{
  "contractName": "Uni",
  "abi": [
    {
      "inputs": [
        {
          "internalType": "address",
          "name": "account",
          "type": "address"
        },
        {
          "internalType": "address",
          "name": "minter_",
          "type": "address"
        },
        {
          "internalType": "uint256",
          "name": "mintingAllowedAfter_",
          "type": "uint256"
        }
      ],
      "payable": false,
      "stateMutability": "nonpayable",
      "type": "constructor"
    },
    {
      "anonymous": false,
      "inputs": [
        {
          "indexed": true,
          "internalType": "address",
          "name": "owner",
          "type": "address"
        },
        {
          "indexed": true,
          "internalType": "address",
          "name": "spender",
          "type": "address"
        },
        {
          "indexed": false,
          "internalType": "uint256",
          "name": "amount",
          "type": "uint256"
        }
      ],
      "name": "Approval",
      "type": "event"
    },
    {
      "anonymous": false,
      "inputs": [
        {
          "indexed": true,
          "internalType": "address",
          "name": "delegator",
          "type": "address"
        },
        {
          "indexed": true,
          "internalType": "address",
          "name": "fromDelegate",
          "type": "address"
        },
        {
          "indexed": true,
          "internalType": "address",
          "name": "toDelegate",
          "type": "address"
        }
      ],
      "name": "DelegateChanged",
      "type": "event"
    },
    {
      "anonymous": false,
      "inputs": [
        {
          "indexed": true,
          "internalType": "address",
          "name": "delegate",
          "type": "address"
        },
        {
          "indexed": false,
          "internalType": "uint256",
          "name": "previousBalance",
          "type": "uint256"
        },
        {
          "indexed": false,
          "internalType": "uint256",
          "name": "newBalance",
          "type": "uint256"
        }
      ],
      "name": "DelegateVotesChanged",
      "type": "event"
    },
    {
      "anonymous": false,
      "inputs": [
        {
          "indexed": false,
          "internalType": "address",
          "name": "minter",
          "type": "address"
        },
        {
          "indexed": false,
          "internalType": "address",
          "name": "newMinter",
          "type": "address"
        }
      ],
      "name": "MinterChanged",
      "type": "event"
    },
    {
      "anonymous": false,
      "inputs": [
        {
          "indexed": true,
          "internalType": "address",
          "name": "from",
          "type": "address"
        },
        {
          "indexed": true,
          "internalType": "address",
          "name": "to",
          "type": "address"
        },
        {
          "indexed": false,
          "internalType": "uint256",
          "name": "amount",
          "type": "uint256"
        }
      ],
      "name": "Transfer",
      "type": "event"
    },
    {
      "constant": true,
      "inputs": [],
      "name": "DELEGATION_TYPEHASH",
      "outputs": [
        {
          "internalType": "bytes32",
          "name": "",
          "type": "bytes32"
        }
      ],
      "payable": false,
      "stateMutability": "view",
      "type": "function"
    },
    {
      "constant": true,
      "inputs": [],
      "name": "DOMAIN_TYPEHASH",
      "outputs": [
        {
          "internalType": "bytes32",
          "name": "",
          "type": "bytes32"
        }
      ],
      "payable": false,
      "stateMutability": "view",
      "type": "function"
    },
    {
      "constant": true,
      "inputs": [],
      "name": "PERMIT_TYPEHASH",
      "outputs": [
        {
          "internalType": "bytes32",
          "name": "",
          "type": "bytes32"
        }
      ],
      "payable": false,
      "stateMutability": "view",
      "type": "function"
    },
    {
      "constant": true,
      "inputs": [
        {
          "internalType": "address",
          "name": "",
          "type": "address"
        },
        {
          "internalType": "uint32",
          "name": "",
          "type": "uint32"
        }
      ],
      "name": "checkpoints",
      "outputs": [
        {
          "internalType": "uint32",
          "name": "fromBlock",
          "type": "uint32"
        },
        {
          "internalType": "uint96",
          "name": "votes",
          "type": "uint96"
        }
      ],
      "payable": false,
      "stateMutability": "view",
      "type": "function"
    },
    {
      "constant": true,
      "inputs": [],
      "name": "decimals",
      "outputs": [
        {
          "internalType": "uint8",
          "name": "",
          "type": "uint8"
        }
      ],
      "payable": false,
      "stateMutability": "view",
      "type": "function"
    },
    {
      "constant": true,
      "inputs": [
        {
          "internalType": "address",
          "name": "",
          "type": "address"
        }
      ],
      "name": "delegates",
      "outputs": [
        {
          "internalType": "address",
          "name": "",
          "type": "address"
        }
      ],
      "payable": false,
      "stateMutability": "view",
      "type": "function"
    },
    {
      "constant": true,
      "inputs": [],
      "name": "minimumTimeBetweenMints",
      "outputs": [
        {
          "internalType": "uint32",
          "name": "",
          "type": "uint32"
        }
      ],
      "payable": false,
      "stateMutability": "view",
      "type": "function"
    },
    {
      "constant": true,
      "inputs": [],
      "name": "mintCap",
      "outputs": [
        {
          "internalType": "uint8",
          "name": "",
          "type": "uint8"
        }
      ],
      "payable": false,
      "stateMutability": "view",
      "type": "function"
    },
    {
      "constant": true,
      "inputs": [],
      "name": "minter",
      "outputs": [
        {
          "internalType": "address",
          "name": "",
          "type": "address"
        }
      ],
      "payable": false,
      "stateMutability": "view",
      "type": "function"
    },
    {
      "constant": true,
      "inputs": [],
      "name": "mintingAllowedAfter",
      "outputs": [
        {
          "internalType": "uint256",
          "name": "",
          "type": "uint256"
        }
      ],
      "payable": false,
      "stateMutability": "view",
      "type": "function"
    },
    {
      "constant": true,
      "inputs": [],
      "name": "name",
      "outputs": [
        {
          "internalType": "string",
          "name": "",
          "type": "string"
        }
      ],
      "payable": false,
      "stateMutability": "view",
      "type": "function"
    },
    {
      "constant": true,
      "inputs": [
        {
          "internalType": "address",
          "name": "",
          "type": "address"
        }
      ],
      "name": "nonces",
      "outputs": [
        {
          "internalType": "uint256",
          "name": "",
          "type": "uint256"
        }
      ],
      "payable": false,
      "stateMutability": "view",
      "type": "function"
    },
    {
      "constant": true,
      "inputs": [
        {
          "internalType": "address",
          "name": "",
          "type": "address"
        }
      ],
      "name": "numCheckpoints",
      "outputs": [
        {
          "internalType": "uint32",
          "name": "",
          "type": "uint32"
        }
      ],
      "payable": false,
      "stateMutability": "view",
      "type": "function"
    },
    {
      "constant": true,
      "inputs": [],
      "name": "symbol",
      "outputs": [
        {
          "internalType": "string",
          "name": "",
          "type": "string"
        }
      ],
      "payable": false,
      "stateMutability": "view",
      "type": "function"
    },
    {
      "constant": true,
      "inputs": [],
      "name": "totalSupply",
      "outputs": [
        {
          "internalType": "uint256",
          "name": "",
          "type": "uint256"
        }
      ],
      "payable": false,
      "stateMutability": "view",
      "type": "function"
    },
    {
      "constant": false,
      "inputs": [
        {
          "internalType": "address",
          "name": "minter_",
          "type": "address"
        }
      ],
      "name": "setMinter",
      "outputs": [],
      "payable": false,
      "stateMutability": "nonpayable",
      "type": "function"
    },
    {
      "constant": false,
      "inputs": [
        {
          "internalType": "address",
          "name": "dst",
          "type": "address"
        },
        {
          "internalType": "uint256",
          "name": "rawAmount",
          "type": "uint256"
        }
      ],
      "name": "mint",
      "outputs": [],
      "payable": false,
      "stateMutability": "nonpayable",
      "type": "function"
    },
    {
      "constant": true,
      "inputs": [
        {
          "internalType": "address",
          "name": "account",
          "type": "address"
        },
        {
          "internalType": "address",
          "name": "spender",
          "type": "address"
        }
      ],
      "name": "allowance",
      "outputs": [
        {
          "internalType": "uint256",
          "name": "",
          "type": "uint256"
        }
      ],
      "payable": false,
      "stateMutability": "view",
      "type": "function"
    },
    {
      "constant": false,
      "inputs": [
        {
          "internalType": "address",
          "name": "spender",
          "type": "address"
        },
        {
          "internalType": "uint256",
          "name": "rawAmount",
          "type": "uint256"
        }
      ],
      "name": "approve",
      "outputs": [
        {
          "internalType": "bool",
          "name": "",
          "type": "bool"
        }
      ],
      "payable": false,
      "stateMutability": "nonpayable",
      "type": "function"
    },
    {
      "constant": false,
      "inputs": [
        {
          "internalType": "address",
          "name": "owner",
          "type": "address"
        },
        {
          "internalType": "address",
          "name": "spender",
          "type": "address"
        },
        {
          "internalType": "uint256",
          "name": "rawAmount",
          "type": "uint256"
        },
        {
          "internalType": "uint256",
          "name": "deadline",
          "type": "uint256"
        },
        {
          "internalType": "uint8",
          "name": "v",
          "type": "uint8"
        },
        {
          "internalType": "bytes32",
          "name": "r",
          "type": "bytes32"
        },
        {
          "internalType": "bytes32",
          "name": "s",
          "type": "bytes32"
        }
      ],
      "name": "permit",
      "outputs": [],
      "payable": false,
      "stateMutability": "nonpayable",
      "type": "function"
    },
    {
      "constant": true,
      "inputs": [
        {
          "internalType": "address",
          "name": "account",
          "type": "address"
        }
      ],
      "name": "balanceOf",
      "outputs": [
        {
          "internalType": "uint256",
          "name": "",
          "type": "uint256"
        }
      ],
      "payable": false,
      "stateMutability": "view",
      "type": "function"
    },
    {
      "constant": false,
      "inputs": [
        {
          "internalType": "address",
          "name": "dst",
          "type": "address"
        },
        {
          "internalType": "uint256",
          "name": "rawAmount",
          "type": "uint256"
        }
      ],
      "name": "transfer",
      "outputs": [
        {
          "internalType": "bool",
          "name": "",
          "type": "bool"
        }
      ],
      "payable": false,
      "stateMutability": "nonpayable",
      "type": "function"
    },
    {
      "constant": false,
      "inputs": [
        {
          "internalType": "address",
          "name": "src",
          "type": "address"
        },
        {
          "internalType": "address",
          "name": "dst",
          "type": "address"
        },
        {
          "internalType": "uint256",
          "name": "rawAmount",
          "type": "uint256"
        }
      ],
      "name": "transferFrom",
      "outputs": [
        {
          "internalType": "bool",
          "name": "",
          "type": "bool"
        }
      ],
      "payable": false,
      "stateMutability": "nonpayable",
      "type": "function"
    },
    {
      "constant": false,
      "inputs": [
        {
          "internalType": "address",
          "name": "delegatee",
          "type": "address"
        }
      ],
      "name": "delegate",
      "outputs": [],
      "payable": false,
      "stateMutability": "nonpayable",
      "type": "function"
    },
    {
      "constant": false,
      "inputs": [
        {
          "internalType": "address",
          "name": "delegatee",
          "type": "address"
        },
        {
          "internalType": "uint256",
          "name": "nonce",
          "type": "uint256"
        },
        {
          "internalType": "uint256",
          "name": "expiry",
          "type": "uint256"
        },
        {
          "internalType": "uint8",
          "name": "v",
          "type": "uint8"
        },
        {
          "internalType": "bytes32",
          "name": "r",
          "type": "bytes32"
        },
        {
          "internalType": "bytes32",
          "name": "s",
          "type": "bytes32"
        }
      ],
      "name": "delegateBySig",
      "outputs": [],
      "payable": false,
      "stateMutability": "nonpayable",
      "type": "function"
    },
    {
      "constant": true,
      "inputs": [
        {
          "internalType": "address",
          "name": "account",
          "type": "address"
        }
      ],
      "name": "getCurrentVotes",
      "outputs": [
        {
          "internalType": "uint96",
          "name": "",
          "type": "uint96"
        }
      ],
      "payable": false,
      "stateMutability": "view",
      "type": "function"
    },
    {
      "constant": true,
      "inputs": [
        {
          "internalType": "address",
          "name": "account",
          "type": "address"
        },
        {
          "internalType": "uint256",
          "name": "blockNumber",
          "type": "uint256"
        }
      ],
      "name": "getPriorVotes",
      "outputs": [
        {
          "internalType": "uint96",
          "name": "",
          "type": "uint96"
        }
      ],
      "payable": false,
      "stateMutability": "view",
      "type": "function"
    }
  ],
  "bytecode": "0x60806040526b033b2e3c9fd0803ce80000006000553480156200002157600080fd5b5060405162004681380380620046818339818101604052620000479190810190620002bf565b620000636103e8426200023160201b620022dc1790919060201c565b811015620000a8576040517f08c379a00000000000000000000000000000000000000000000000000000000081526004016200009f9062000441565b60405180910390fd5b600054600460008573ffffffffffffffffffffffffffffffffffffffff1673ffffffffffffffffffffffffffffffffffffffff16815260200190815260200160002060006101000a8154816bffffffffffffffffffffffff02191690836bffffffffffffffffffffffff1602179055508273ffffffffffffffffffffffffffffffffffffffff16600073ffffffffffffffffffffffffffffffffffffffff167fddf252ad1be2c89b69c2b068fc378daa952ba7f163c4a11628f55a4df523b3ef6000546040516200017a919062000463565b60405180910390a381600160006101000a81548173ffffffffffffffffffffffffffffffffffffffff021916908373ffffffffffffffffffffffffffffffffffffffff1602179055507f3b0007eb941cf645526cbb3a4fdaecda9d28ce4843167d9263b536a1f1edc0f66000600160009054906101000a900473ffffffffffffffffffffffffffffffffffffffff1660405162000219929190620003f2565b60405180910390a1806002819055505050506200053f565b600080821162000278576040517f08c379a00000000000000000000000000000000000000000000000000000000081526004016200026f906200041f565b60405180910390fd5b60008284816200028457fe5b0490508091505092915050565b600081519050620002a2816200050b565b92915050565b600081519050620002b98162000525565b92915050565b600080600060608486031215620002d557600080fd5b6000620002e58682870162000291565b9350506020620002f88682870162000291565b92505060406200030b86828701620002a8565b9150509250925092565b6200032081620004cf565b82525050565b620003318162000491565b82525050565b600062000346601a8362000480565b91507f536166654d6174683a206469766973696f6e206279207a65726f0000000000006000830152602082019050919050565b60006200038860398362000480565b91507f556e693a3a636f6e7374727563746f723a206d696e74696e672063616e206f6e60008301527f6c7920626567696e206166746572206465706c6f796d656e74000000000000006020830152604082019050919050565b620003ec81620004c5565b82525050565b600060408201905062000409600083018562000315565b62000418602083018462000326565b9392505050565b600060208201905081810360008301526200043a8162000337565b9050919050565b600060208201905081810360008301526200045c8162000379565b9050919050565b60006020820190506200047a6000830184620003e1565b92915050565b600082825260208201905092915050565b60006200049e82620004a5565b9050919050565b600073ffffffffffffffffffffffffffffffffffffffff82169050919050565b6000819050919050565b6000620004dc82620004e3565b9050919050565b6000620004f082620004f7565b9050919050565b60006200050482620004a5565b9050919050565b620005168162000491565b81146200052257600080fd5b50565b6200053081620004c5565b81146200053c57600080fd5b50565b614132806200054f6000396000f3fe608060405234801561001057600080fd5b50600436106101a95760003560e01c80636fcfff45116100f9578063b4b5ea5711610097578063dd62ed3e11610071578063dd62ed3e146104fa578063e7a324dc1461052a578063f1127ed814610548578063fca3b5aa14610579576101a9565b8063b4b5ea5714610492578063c3cda520146104c2578063d505accf146104de576101a9565b8063782d6fe1116100d3578063782d6fe1146103e45780637ecebe001461041457806395d89b4114610444578063a9059cbb14610462576101a9565b80636fcfff451461036657806370a082311461039657806376c71ca1146103c6576101a9565b806330adf81f1161016657806340c10f191161014057806340c10f19146102e0578063587cde1e146102fc5780635c11d62f1461032c5780635c19a95c1461034a576101a9565b806330adf81f1461028657806330b36cef146102a4578063313ce567146102c2576101a9565b806306fdde03146101ae57806307546172146101cc578063095ea7b3146101ea57806318160ddd1461021a57806320606b701461023857806323b872dd14610256575b600080fd5b6101b6610595565b6040516101c39190613a2f565b60405180910390f35b6101d46105ce565b6040516101e19190613885565b60405180910390f35b61020460048036036101ff9190810190612e6d565b6105f4565b60405161021191906138c9565b60405180910390f35b610222610787565b60405161022f9190613c93565b60405180910390f35b61024061078d565b60405161024d91906138e4565b60405180910390f35b610270600480360361026b9190810190612d80565b6107a4565b60405161027d91906138c9565b60405180910390f35b61028e610a38565b60405161029b91906138e4565b60405180910390f35b6102ac610a4f565b6040516102b99190613c93565b60405180910390f35b6102ca610a55565b6040516102d79190613cf2565b60405180910390f35b6102fa60048036036102f59190810190612e6d565b610a5a565b005b61031660048036036103119190810190612d1b565b610e7d565b6040516103239190613885565b60405180910390f35b610334610eb0565b6040516103419190613cae565b60405180910390f35b610364600480360361035f9190810190612d1b565b610eb8565b005b610380600480360361037b9190810190612d1b565b610ec5565b60405161038d9190613cae565b60405180910390f35b6103b060048036036103ab9190810190612d1b565b610ee8565b6040516103bd9190613c93565b60405180910390f35b6103ce610f57565b6040516103db9190613cf2565b60405180910390f35b6103fe60048036036103f99190810190612e6d565b610f5c565b60405161040b9190613d28565b60405180910390f35b61042e60048036036104299190810190612d1b565b61136f565b60405161043b9190613c93565b60405180910390f35b61044c611387565b6040516104599190613a2f565b60405180910390f35b61047c60048036036104779190810190612e6d565b6113c0565b60405161048991906138c9565b60405180910390f35b6104ac60048036036104a79190810190612d1b565b6113fd565b6040516104b99190613d28565b60405180910390f35b6104dc60048036036104d79190810190612ea9565b6114eb565b005b6104f860048036036104f39190810190612dcf565b61178e565b005b610514600480360361050f9190810190612d44565b611be0565b6040516105219190613c93565b60405180910390f35b610532611c8d565b60405161053f91906138e4565b60405180910390f35b610562600480360361055d9190810190612f32565b611ca4565b604051610570929190613cc9565b60405180910390f35b610593600480360361058e9190810190612d1b565b611cfd565b005b6040518060400160405280600781526020017f556e69737761700000000000000000000000000000000000000000000000000081525081565b600160009054906101000a900473ffffffffffffffffffffffffffffffffffffffff1681565b6000807fffffffffffffffffffffffffffffffffffffffffffffffffffffffffffffffff831415610647577fffffffffffffffffffffffffffffffffffffffffffffffffffffffffffffffff905061066c565b6106698360405180606001604052806024815260200161409d60249139611e2c565b90505b80600360003373ffffffffffffffffffffffffffffffffffffffff1673ffffffffffffffffffffffffffffffffffffffff16815260200190815260200160002060008673ffffffffffffffffffffffffffffffffffffffff1673ffffffffffffffffffffffffffffffffffffffff16815260200190815260200160002060006101000a8154816bffffffffffffffffffffffff02191690836bffffffffffffffffffffffff1602179055508373ffffffffffffffffffffffffffffffffffffffff163373ffffffffffffffffffffffffffffffffffffffff167f8c5be1e5ebec7d5bd14f71427d1e84f3dd0314c0f7b2291e5b200ac8c7c3b925836040516107749190613d0d565b60405180910390a3600191505092915050565b60005481565b6040516107999061385b565b604051809103902081565b6000803390506000600360008773ffffffffffffffffffffffffffffffffffffffff1673ffffffffffffffffffffffffffffffffffffffff16815260200190815260200160002060008373ffffffffffffffffffffffffffffffffffffffff1673ffffffffffffffffffffffffffffffffffffffff16815260200190815260200160002060009054906101000a90046bffffffffffffffffffffffff16905060006108678560405180606001604052806024815260200161409d60249139611e2c565b90508673ffffffffffffffffffffffffffffffffffffffff168373ffffffffffffffffffffffffffffffffffffffff16141580156108e157507fffffffffffffffffffffffffffffffffffffffffffffffffffffffffffffffff6bffffffffffffffffffffffff16826bffffffffffffffffffffffff1614155b15610a1f57600061090b83836040518060600160405280603c8152602001613f1d603c9139611e8a565b905080600360008a73ffffffffffffffffffffffffffffffffffffffff1673ffffffffffffffffffffffffffffffffffffffff16815260200190815260200160002060008673ffffffffffffffffffffffffffffffffffffffff1673ffffffffffffffffffffffffffffffffffffffff16815260200190815260200160002060006101000a8154816bffffffffffffffffffffffff02191690836bffffffffffffffffffffffff1602179055508373ffffffffffffffffffffffffffffffffffffffff168873ffffffffffffffffffffffffffffffffffffffff167f8c5be1e5ebec7d5bd14f71427d1e84f3dd0314c0f7b2291e5b200ac8c7c3b92583604051610a159190613d0d565b60405180910390a3505b610a2a878783611efb565b600193505050509392505050565b604051610a4490613846565b604051809103902081565b60025481565b601281565b600160009054906101000a900473ffffffffffffffffffffffffffffffffffffffff1673ffffffffffffffffffffffffffffffffffffffff163373ffffffffffffffffffffffffffffffffffffffff1614610aea576040517f08c379a0000000000000000000000000000000000000000000000000000000008152600401610ae190613bb3565b60405180910390fd5b600254610b026103e8426122dc90919063ffffffff16565b1015610b43576040517f08c379a0000000000000000000000000000000000000000000000000000000008152600401610b3a90613b33565b60405180910390fd5b600073ffffffffffffffffffffffffffffffffffffffff168273ffffffffffffffffffffffffffffffffffffffff161415610bb3576040517f08c379a0000000000000000000000000000000000000000000000000000000008152600401610baa90613b13565b60405180910390fd5b610bdb610bcb6103e8426122dc90919063ffffffff16565b6301e1338063ffffffff16612338565b6002819055506000610c058260405180606001604052806021815260200161407c60219139611e2c565b9050610c21610c1a600054600260ff1661238d565b60646122dc565b816bffffffffffffffffffffffff161115610c71576040517f08c379a0000000000000000000000000000000000000000000000000000000008152600401610c6890613b93565b60405180910390fd5b610cac610c8e600054836bffffffffffffffffffffffff16612338565b604051806060016040528060268152602001613f5960269139611e2c565b6bffffffffffffffffffffffff16600081905550610d3a600460008573ffffffffffffffffffffffffffffffffffffffff1673ffffffffffffffffffffffffffffffffffffffff16815260200190815260200160002060009054906101000a90046bffffffffffffffffffffffff1682604051806060016040528060248152602001613ef9602491396123fd565b600460008573ffffffffffffffffffffffffffffffffffffffff1673ffffffffffffffffffffffffffffffffffffffff16815260200190815260200160002060006101000a8154816bffffffffffffffffffffffff02191690836bffffffffffffffffffffffff1602179055508273ffffffffffffffffffffffffffffffffffffffff16600073ffffffffffffffffffffffffffffffffffffffff167fddf252ad1be2c89b69c2b068fc378daa952ba7f163c4a11628f55a4df523b3ef83604051610e059190613d0d565b60405180910390a3610e786000600560008673ffffffffffffffffffffffffffffffffffffffff1673ffffffffffffffffffffffffffffffffffffffff16815260200190815260200160002060009054906101000a900473ffffffffffffffffffffffffffffffffffffffff1683612473565b505050565b60056020528060005260406000206000915054906101000a900473ffffffffffffffffffffffffffffffffffffffff1681565b6301e1338081565b610ec2338261276e565b50565b60076020528060005260406000206000915054906101000a900463ffffffff1681565b6000600460008373ffffffffffffffffffffffffffffffffffffffff1673ffffffffffffffffffffffffffffffffffffffff16815260200190815260200160002060009054906101000a90046bffffffffffffffffffffffff166bffffffffffffffffffffffff169050919050565b600281565b6000438210610fa0576040517f08c379a0000000000000000000000000000000000000000000000000000000008152600401610f9790613ad3565b60405180910390fd5b6000600760008573ffffffffffffffffffffffffffffffffffffffff1673ffffffffffffffffffffffffffffffffffffffff16815260200190815260200160002060009054906101000a900463ffffffff16905060008163ffffffff16141561100d576000915050611369565b82600660008673ffffffffffffffffffffffffffffffffffffffff1673ffffffffffffffffffffffffffffffffffffffff16815260200190815260200160002060006001840363ffffffff1663ffffffff16815260200190815260200160002060000160009054906101000a900463ffffffff1663ffffffff161161110f57600660008573ffffffffffffffffffffffffffffffffffffffff1673ffffffffffffffffffffffffffffffffffffffff16815260200190815260200160002060006001830363ffffffff1663ffffffff16815260200190815260200160002060000160049054906101000a90046bffffffffffffffffffffffff16915050611369565b82600660008673ffffffffffffffffffffffffffffffffffffffff1673ffffffffffffffffffffffffffffffffffffffff16815260200190815260200160002060008063ffffffff16815260200190815260200160002060000160009054906101000a900463ffffffff1663ffffffff161115611190576000915050611369565b600080905060006001830390505b8163ffffffff168163ffffffff1611156112eb576000600283830363ffffffff16816111c657fe5b04820390506111d3612c84565b600660008973ffffffffffffffffffffffffffffffffffffffff1673ffffffffffffffffffffffffffffffffffffffff16815260200190815260200160002060008363ffffffff1663ffffffff1681526020019081526020016000206040518060400160405290816000820160009054906101000a900463ffffffff1663ffffffff1663ffffffff1681526020016000820160049054906101000a90046bffffffffffffffffffffffff166bffffffffffffffffffffffff166bffffffffffffffffffffffff1681525050905086816000015163ffffffff1614156112c357806020015195505050505050611369565b86816000015163ffffffff1610156112dd578193506112e4565b6001820392505b505061119e565b600660008773ffffffffffffffffffffffffffffffffffffffff1673ffffffffffffffffffffffffffffffffffffffff16815260200190815260200160002060008363ffffffff1663ffffffff16815260200190815260200160002060000160049054906101000a90046bffffffffffffffffffffffff1693505050505b92915050565b60086020528060005260406000206000915090505481565b6040518060400160405280600381526020017f554e49000000000000000000000000000000000000000000000000000000000081525081565b6000806113e58360405180606001604052806025815260200161405760259139611e2c565b90506113f2338583611efb565b600191505092915050565b600080600760008473ffffffffffffffffffffffffffffffffffffffff1673ffffffffffffffffffffffffffffffffffffffff16815260200190815260200160002060009054906101000a900463ffffffff16905060008163ffffffff16116114675760006114e3565b600660008473ffffffffffffffffffffffffffffffffffffffff1673ffffffffffffffffffffffffffffffffffffffff16815260200190815260200160002060006001830363ffffffff1663ffffffff16815260200190815260200160002060000160049054906101000a90046bffffffffffffffffffffffff165b915050919050565b60006040516114f99061385b565b60405180910390206040518060400160405280600781526020017f556e6973776170000000000000000000000000000000000000000000000000008152508051906020012061154661292e565b3060405160200161155a94939291906139a5565b604051602081830303815290604052805190602001209050600060405161158090613870565b604051809103902088888860405160200161159e9493929190613960565b604051602081830303815290604052805190602001209050600082826040516020016115cb92919061380f565b60405160208183030381529060405280519060200120905060006001828888886040516000815260200160405260405161160894939291906139ea565b6020604051602081039080840390855afa15801561162a573d6000803e3d6000fd5b505050602060405103519050600073ffffffffffffffffffffffffffffffffffffffff168173ffffffffffffffffffffffffffffffffffffffff1614156116a6576040517f08c379a000000000000000000000000000000000000000000000000000000000815260040161169d90613ab3565b60405180910390fd5b600860008273ffffffffffffffffffffffffffffffffffffffff1673ffffffffffffffffffffffffffffffffffffffff1681526020019081526020016000206000815480929190600101919050558914611735576040517f08c379a000000000000000000000000000000000000000000000000000000000815260040161172c90613bf3565b60405180910390fd5b87421115611778576040517f08c379a000000000000000000000000000000000000000000000000000000000815260040161176f90613a73565b60405180910390fd5b611782818b61276e565b50505050505050505050565b60007fffffffffffffffffffffffffffffffffffffffffffffffffffffffffffffffff8614156117e0577fffffffffffffffffffffffffffffffffffffffffffffffffffffffffffffffff9050611805565b61180286604051806060016040528060238152602001613fb460239139611e2c565b90505b60006040516118139061385b565b60405180910390206040518060400160405280600781526020017f556e6973776170000000000000000000000000000000000000000000000000008152508051906020012061186061292e565b3060405160200161187494939291906139a5565b604051602081830303815290604052805190602001209050600060405161189a90613846565b60405180910390208a8a8a600860008f73ffffffffffffffffffffffffffffffffffffffff1673ffffffffffffffffffffffffffffffffffffffff1681526020019081526020016000206000815480929190600101919050558b604051602001611909969594939291906138ff565b6040516020818303038152906040528051906020012090506000828260405160200161193692919061380f565b60405160208183030381529060405280519060200120905060006001828989896040516000815260200160405260405161197394939291906139ea565b6020604051602081039080840390855afa158015611995573d6000803e3d6000fd5b505050602060405103519050600073ffffffffffffffffffffffffffffffffffffffff168173ffffffffffffffffffffffffffffffffffffffff161415611a11576040517f08c379a0000000000000000000000000000000000000000000000000000000008152600401611a0890613c53565b60405180910390fd5b8b73ffffffffffffffffffffffffffffffffffffffff168173ffffffffffffffffffffffffffffffffffffffff1614611a7f576040517f08c379a0000000000000000000000000000000000000000000000000000000008152600401611a7690613c73565b60405180910390fd5b88421115611ac2576040517f08c379a0000000000000000000000000000000000000000000000000000000008152600401611ab990613c33565b60405180910390fd5b84600360008e73ffffffffffffffffffffffffffffffffffffffff1673ffffffffffffffffffffffffffffffffffffffff16815260200190815260200160002060008d73ffffffffffffffffffffffffffffffffffffffff1673ffffffffffffffffffffffffffffffffffffffff16815260200190815260200160002060006101000a8154816bffffffffffffffffffffffff02191690836bffffffffffffffffffffffff1602179055508a73ffffffffffffffffffffffffffffffffffffffff168c73ffffffffffffffffffffffffffffffffffffffff167f8c5be1e5ebec7d5bd14f71427d1e84f3dd0314c0f7b2291e5b200ac8c7c3b92587604051611bca9190613d0d565b60405180910390a3505050505050505050505050565b6000600360008473ffffffffffffffffffffffffffffffffffffffff1673ffffffffffffffffffffffffffffffffffffffff16815260200190815260200160002060008373ffffffffffffffffffffffffffffffffffffffff1673ffffffffffffffffffffffffffffffffffffffff16815260200190815260200160002060009054906101000a90046bffffffffffffffffffffffff166bffffffffffffffffffffffff16905092915050565b604051611c9990613870565b604051809103902081565b6006602052816000526040600020602052806000526040600020600091509150508060000160009054906101000a900463ffffffff16908060000160049054906101000a90046bffffffffffffffffffffffff16905082565b600160009054906101000a900473ffffffffffffffffffffffffffffffffffffffff1673ffffffffffffffffffffffffffffffffffffffff163373ffffffffffffffffffffffffffffffffffffffff1614611d8d576040517f08c379a0000000000000000000000000000000000000000000000000000000008152600401611d8490613bd3565b60405180910390fd5b7f3b0007eb941cf645526cbb3a4fdaecda9d28ce4843167d9263b536a1f1edc0f6600160009054906101000a900473ffffffffffffffffffffffffffffffffffffffff1682604051611de09291906138a0565b60405180910390a180600160006101000a81548173ffffffffffffffffffffffffffffffffffffffff021916908373ffffffffffffffffffffffffffffffffffffffff16021790555050565b60006c0100000000000000000000000083108290611e80576040517f08c379a0000000000000000000000000000000000000000000000000000000008152600401611e779190613a51565b60405180910390fd5b5082905092915050565b6000836bffffffffffffffffffffffff16836bffffffffffffffffffffffff1611158290611eee576040517f08c379a0000000000000000000000000000000000000000000000000000000008152600401611ee59190613a51565b60405180910390fd5b5082840390509392505050565b600073ffffffffffffffffffffffffffffffffffffffff168373ffffffffffffffffffffffffffffffffffffffff161415611f6b576040517f08c379a0000000000000000000000000000000000000000000000000000000008152600401611f6290613c13565b60405180910390fd5b600073ffffffffffffffffffffffffffffffffffffffff168273ffffffffffffffffffffffffffffffffffffffff161415611fdb576040517f08c379a0000000000000000000000000000000000000000000000000000000008152600401611fd290613b53565b60405180910390fd5b612055600460008573ffffffffffffffffffffffffffffffffffffffff1673ffffffffffffffffffffffffffffffffffffffff16815260200190815260200160002060009054906101000a90046bffffffffffffffffffffffff1682604051806060016040528060358152602001613f7f60359139611e8a565b600460008573ffffffffffffffffffffffffffffffffffffffff1673ffffffffffffffffffffffffffffffffffffffff16815260200190815260200160002060006101000a8154816bffffffffffffffffffffffff02191690836bffffffffffffffffffffffff16021790555061213c600460008473ffffffffffffffffffffffffffffffffffffffff1673ffffffffffffffffffffffffffffffffffffffff16815260200190815260200160002060009054906101000a90046bffffffffffffffffffffffff16826040518060600160405280602f81526020016140c1602f91396123fd565b600460008473ffffffffffffffffffffffffffffffffffffffff1673ffffffffffffffffffffffffffffffffffffffff16815260200190815260200160002060006101000a8154816bffffffffffffffffffffffff02191690836bffffffffffffffffffffffff1602179055508173ffffffffffffffffffffffffffffffffffffffff168373ffffffffffffffffffffffffffffffffffffffff167fddf252ad1be2c89b69c2b068fc378daa952ba7f163c4a11628f55a4df523b3ef836040516122069190613d0d565b60405180910390a36122d7600560008573ffffffffffffffffffffffffffffffffffffffff1673ffffffffffffffffffffffffffffffffffffffff16815260200190815260200160002060009054906101000a900473ffffffffffffffffffffffffffffffffffffffff16600560008573ffffffffffffffffffffffffffffffffffffffff1673ffffffffffffffffffffffffffffffffffffffff16815260200190815260200160002060009054906101000a900473ffffffffffffffffffffffffffffffffffffffff1683612473565b505050565b6000808211612320576040517f08c379a000000000000000000000000000000000000000000000000000000000815260040161231790613af3565b60405180910390fd5b600082848161232b57fe5b0490508091505092915050565b600080828401905083811015612383576040517f08c379a000000000000000000000000000000000000000000000000000000000815260040161237a90613a93565b60405180910390fd5b8091505092915050565b6000808314156123a057600090506123f7565b60008284029050828482816123b157fe5b04146123f2576040517f08c379a00000000000000000000000000000000000000000000000000000000081526004016123e990613b73565b60405180910390fd5b809150505b92915050565b6000808385019050846bffffffffffffffffffffffff16816bffffffffffffffffffffffff1610158390612467576040517f08c379a000000000000000000000000000000000000000000000000000000000815260040161245e9190613a51565b60405180910390fd5b50809150509392505050565b8173ffffffffffffffffffffffffffffffffffffffff168373ffffffffffffffffffffffffffffffffffffffff16141580156124bd57506000816bffffffffffffffffffffffff16115b1561276957600073ffffffffffffffffffffffffffffffffffffffff168373ffffffffffffffffffffffffffffffffffffffff1614612615576000600760008573ffffffffffffffffffffffffffffffffffffffff1673ffffffffffffffffffffffffffffffffffffffff16815260200190815260200160002060009054906101000a900463ffffffff1690506000808263ffffffff16116125605760006125dc565b600660008673ffffffffffffffffffffffffffffffffffffffff1673ffffffffffffffffffffffffffffffffffffffff16815260200190815260200160002060006001840363ffffffff1663ffffffff16815260200190815260200160002060000160049054906101000a90046bffffffffffffffffffffffff165b90506000612603828560405180606001604052806027815260200161403060279139611e8a565b90506126118684848461293b565b5050505b600073ffffffffffffffffffffffffffffffffffffffff168273ffffffffffffffffffffffffffffffffffffffff1614612768576000600760008473ffffffffffffffffffffffffffffffffffffffff1673ffffffffffffffffffffffffffffffffffffffff16815260200190815260200160002060009054906101000a900463ffffffff1690506000808263ffffffff16116126b357600061272f565b600660008573ffffffffffffffffffffffffffffffffffffffff1673ffffffffffffffffffffffffffffffffffffffff16815260200190815260200160002060006001840363ffffffff1663ffffffff16815260200190815260200160002060000160049054906101000a90046bffffffffffffffffffffffff165b905060006127568285604051806060016040528060268152602001613fd7602691396123fd565b90506127648584848461293b565b5050505b5b505050565b6000600560008473ffffffffffffffffffffffffffffffffffffffff1673ffffffffffffffffffffffffffffffffffffffff16815260200190815260200160002060009054906101000a900473ffffffffffffffffffffffffffffffffffffffff1690506000600460008573ffffffffffffffffffffffffffffffffffffffff1673ffffffffffffffffffffffffffffffffffffffff16815260200190815260200160002060009054906101000a90046bffffffffffffffffffffffff16905082600560008673ffffffffffffffffffffffffffffffffffffffff1673ffffffffffffffffffffffffffffffffffffffff16815260200190815260200160002060006101000a81548173ffffffffffffffffffffffffffffffffffffffff021916908373ffffffffffffffffffffffffffffffffffffffff1602179055508273ffffffffffffffffffffffffffffffffffffffff168273ffffffffffffffffffffffffffffffffffffffff168573ffffffffffffffffffffffffffffffffffffffff167f3134e8a2e6d97e929a7e54011ea5485d7d196dd5f0ba4d4ef95803e8e3fc257f60405160405180910390a4612928828483612473565b50505050565b6000804690508091505090565b600061295f43604051806060016040528060338152602001613ffd60339139612c2e565b905060008463ffffffff161180156129f457508063ffffffff16600660008773ffffffffffffffffffffffffffffffffffffffff1673ffffffffffffffffffffffffffffffffffffffff16815260200190815260200160002060006001870363ffffffff1663ffffffff16815260200190815260200160002060000160009054906101000a900463ffffffff1663ffffffff16145b15612a8f5781600660008773ffffffffffffffffffffffffffffffffffffffff1673ffffffffffffffffffffffffffffffffffffffff16815260200190815260200160002060006001870363ffffffff1663ffffffff16815260200190815260200160002060000160046101000a8154816bffffffffffffffffffffffff02191690836bffffffffffffffffffffffff160217905550612bd7565b60405180604001604052808263ffffffff168152602001836bffffffffffffffffffffffff16815250600660008773ffffffffffffffffffffffffffffffffffffffff1673ffffffffffffffffffffffffffffffffffffffff16815260200190815260200160002060008663ffffffff1663ffffffff16815260200190815260200160002060008201518160000160006101000a81548163ffffffff021916908363ffffffff16021790555060208201518160000160046101000a8154816bffffffffffffffffffffffff02191690836bffffffffffffffffffffffff16021790555090505060018401600760008773ffffffffffffffffffffffffffffffffffffffff1673ffffffffffffffffffffffffffffffffffffffff16815260200190815260200160002060006101000a81548163ffffffff021916908363ffffffff1602179055505b8473ffffffffffffffffffffffffffffffffffffffff167fdec2bacdd2f05b59de34da9b523dff8be42e5e38e818c82fdb0bae774387a7248484604051612c1f929190613d43565b60405180910390a25050505050565b600064010000000083108290612c7a576040517f08c379a0000000000000000000000000000000000000000000000000000000008152600401612c719190613a51565b60405180910390fd5b5082905092915050565b6040518060400160405280600063ffffffff16815260200160006bffffffffffffffffffffffff1681525090565b600081359050612cc181613e85565b92915050565b600081359050612cd681613e9c565b92915050565b600081359050612ceb81613eb3565b92915050565b600081359050612d0081613eca565b92915050565b600081359050612d1581613ee1565b92915050565b600060208284031215612d2d57600080fd5b6000612d3b84828501612cb2565b91505092915050565b60008060408385031215612d5757600080fd5b6000612d6585828601612cb2565b9250506020612d7685828601612cb2565b9150509250929050565b600080600060608486031215612d9557600080fd5b6000612da386828701612cb2565b9350506020612db486828701612cb2565b9250506040612dc586828701612cdc565b9150509250925092565b600080600080600080600060e0888a031215612dea57600080fd5b6000612df88a828b01612cb2565b9750506020612e098a828b01612cb2565b9650506040612e1a8a828b01612cdc565b9550506060612e2b8a828b01612cdc565b9450506080612e3c8a828b01612d06565b93505060a0612e4d8a828b01612cc7565b92505060c0612e5e8a828b01612cc7565b91505092959891949750929550565b60008060408385031215612e8057600080fd5b6000612e8e85828601612cb2565b9250506020612e9f85828601612cdc565b9150509250929050565b60008060008060008060c08789031215612ec257600080fd5b6000612ed089828a01612cb2565b9650506020612ee189828a01612cdc565b9550506040612ef289828a01612cdc565b9450506060612f0389828a01612d06565b9350506080612f1489828a01612cc7565b92505060a0612f2589828a01612cc7565b9150509295509295509295565b60008060408385031215612f4557600080fd5b6000612f5385828601612cb2565b9250506020612f6485828601612cf1565b9150509250929050565b612f7781613d9e565b82525050565b612f8681613db0565b82525050565b612f9581613dbc565b82525050565b612fac612fa782613dbc565b613e6a565b82525050565b6000612fbd82613d77565b612fc78185613d82565b9350612fd7818560208601613e37565b612fe081613e74565b840191505092915050565b6000612ff682613d6c565b6130008185613d82565b9350613010818560208601613e37565b61301981613e74565b840191505092915050565b6000613031602583613d82565b91507f556e693a3a64656c656761746542795369673a207369676e617475726520657860008301527f70697265640000000000000000000000000000000000000000000000000000006020830152604082019050919050565b6000613097600283613d93565b91507f19010000000000000000000000000000000000000000000000000000000000006000830152600282019050919050565b60006130d7601b83613d82565b91507f536166654d6174683a206164646974696f6e206f766572666c6f7700000000006000830152602082019050919050565b6000613117602583613d82565b91507f556e693a3a64656c656761746542795369673a20696e76616c6964207369676e60008301527f61747572650000000000000000000000000000000000000000000000000000006020830152604082019050919050565b600061317d602683613d82565b91507f556e693a3a6765745072696f72566f7465733a206e6f7420796574206465746560008301527f726d696e656400000000000000000000000000000000000000000000000000006020830152604082019050919050565b60006131e3601a83613d82565b91507f536166654d6174683a206469766973696f6e206279207a65726f0000000000006000830152602082019050919050565b6000613223602e83613d82565b91507f556e693a3a6d696e743a2063616e6e6f74207472616e7366657220746f20746860008301527f65207a65726f20616464726573730000000000000000000000000000000000006020830152604082019050919050565b6000613289605283613d93565b91507f5065726d69742861646472657373206f776e65722c616464726573732073706560008301527f6e6465722c75696e743235362076616c75652c75696e74323536206e6f6e636560208301527f2c75696e7432353620646561646c696e652900000000000000000000000000006040830152605282019050919050565b6000613315602283613d82565b91507f556e693a3a6d696e743a206d696e74696e67206e6f7420616c6c6f776564207960008301527f65740000000000000000000000000000000000000000000000000000000000006020830152604082019050919050565b600061337b604383613d93565b91507f454950373132446f6d61696e28737472696e67206e616d652c75696e7432353660008301527f20636861696e49642c6164647265737320766572696679696e67436f6e74726160208301527f63742900000000000000000000000000000000000000000000000000000000006040830152604382019050919050565b6000613407603983613d82565b91507f556e693a3a5f7472616e73666572546f6b656e733a2063616e6e6f742074726160008301527f6e7366657220746f20746865207a65726f2061646472657373000000000000006020830152604082019050919050565b600061346d602183613d82565b91507f536166654d6174683a206d756c7469706c69636174696f6e206f766572666c6f60008301527f77000000000000000000000000000000000000000000000000000000000000006020830152604082019050919050565b60006134d3601c83613d82565b91507f556e693a3a6d696e743a206578636565646564206d696e7420636170000000006000830152602082019050919050565b6000613513602383613d82565b91507f556e693a3a6d696e743a206f6e6c7920746865206d696e7465722063616e206d60008301527f696e7400000000000000000000000000000000000000000000000000000000006020830152604082019050919050565b6000613579603d83613d82565b91507f556e693a3a7365744d696e7465723a206f6e6c7920746865206d696e7465722060008301527f63616e206368616e676520746865206d696e74657220616464726573730000006020830152604082019050919050565b60006135df602183613d82565b91507f556e693a3a64656c656761746542795369673a20696e76616c6964206e6f6e6360008301527f65000000000000000000000000000000000000000000000000000000000000006020830152604082019050919050565b6000613645603b83613d82565b91507f556e693a3a5f7472616e73666572546f6b656e733a2063616e6e6f742074726160008301527f6e736665722066726f6d20746865207a65726f206164647265737300000000006020830152604082019050919050565b60006136ab601e83613d82565b91507f556e693a3a7065726d69743a207369676e6174757265206578706972656400006000830152602082019050919050565b60006136eb603a83613d93565b91507f44656c65676174696f6e28616464726573732064656c6567617465652c75696e60008301527f74323536206e6f6e63652c75696e7432353620657870697279290000000000006020830152603a82019050919050565b6000613751601e83613d82565b91507f556e693a3a7065726d69743a20696e76616c6964207369676e617475726500006000830152602082019050919050565b6000613791601983613d82565b91507f556e693a3a7065726d69743a20756e617574686f72697a6564000000000000006000830152602082019050919050565b6137cd81613de6565b82525050565b6137dc81613df0565b82525050565b6137eb81613e00565b82525050565b6137fa81613e25565b82525050565b61380981613e0d565b82525050565b600061381a8261308a565b91506138268285612f9b565b6020820191506138368284612f9b565b6020820191508190509392505050565b60006138518261327c565b9150819050919050565b60006138668261336e565b9150819050919050565b600061387b826136de565b9150819050919050565b600060208201905061389a6000830184612f6e565b92915050565b60006040820190506138b56000830185612f6e565b6138c26020830184612f6e565b9392505050565b60006020820190506138de6000830184612f7d565b92915050565b60006020820190506138f96000830184612f8c565b92915050565b600060c0820190506139146000830189612f8c565b6139216020830188612f6e565b61392e6040830187612f6e565b61393b60608301866137c4565b61394860808301856137c4565b61395560a08301846137c4565b979650505050505050565b60006080820190506139756000830187612f8c565b6139826020830186612f6e565b61398f60408301856137c4565b61399c60608301846137c4565b95945050505050565b60006080820190506139ba6000830187612f8c565b6139c76020830186612f8c565b6139d460408301856137c4565b6139e16060830184612f6e565b95945050505050565b60006080820190506139ff6000830187612f8c565b613a0c60208301866137e2565b613a196040830185612f8c565b613a266060830184612f8c565b95945050505050565b60006020820190508181036000830152613a498184612feb565b905092915050565b60006020820190508181036000830152613a6b8184612fb2565b905092915050565b60006020820190508181036000830152613a8c81613024565b9050919050565b60006020820190508181036000830152613aac816130ca565b9050919050565b60006020820190508181036000830152613acc8161310a565b9050919050565b60006020820190508181036000830152613aec81613170565b9050919050565b60006020820190508181036000830152613b0c816131d6565b9050919050565b60006020820190508181036000830152613b2c81613216565b9050919050565b60006020820190508181036000830152613b4c81613308565b9050919050565b60006020820190508181036000830152613b6c816133fa565b9050919050565b60006020820190508181036000830152613b8c81613460565b9050919050565b60006020820190508181036000830152613bac816134c6565b9050919050565b60006020820190508181036000830152613bcc81613506565b9050919050565b60006020820190508181036000830152613bec8161356c565b9050919050565b60006020820190508181036000830152613c0c816135d2565b9050919050565b60006020820190508181036000830152613c2c81613638565b9050919050565b60006020820190508181036000830152613c4c8161369e565b9050919050565b60006020820190508181036000830152613c6c81613744565b9050919050565b60006020820190508181036000830152613c8c81613784565b9050919050565b6000602082019050613ca860008301846137c4565b92915050565b6000602082019050613cc360008301846137d3565b92915050565b6000604082019050613cde60008301856137d3565b613ceb6020830184613800565b9392505050565b6000602082019050613d0760008301846137e2565b92915050565b6000602082019050613d2260008301846137f1565b92915050565b6000602082019050613d3d6000830184613800565b92915050565b6000604082019050613d5860008301856137f1565b613d6560208301846137f1565b9392505050565b600081519050919050565b600081519050919050565b600082825260208201905092915050565b600081905092915050565b6000613da982613dc6565b9050919050565b60008115159050919050565b6000819050919050565b600073ffffffffffffffffffffffffffffffffffffffff82169050919050565b6000819050919050565b600063ffffffff82169050919050565b600060ff82169050919050565b60006bffffffffffffffffffffffff82169050919050565b6000613e3082613e0d565b9050919050565b60005b83811015613e55578082015181840152602081019050613e3a565b83811115613e64576000848401525b50505050565b6000819050919050565b6000601f19601f8301169050919050565b613e8e81613d9e565b8114613e9957600080fd5b50565b613ea581613dbc565b8114613eb057600080fd5b50565b613ebc81613de6565b8114613ec757600080fd5b50565b613ed381613df0565b8114613ede57600080fd5b50565b613eea81613e00565b8114613ef557600080fd5b5056fe556e693a3a6d696e743a207472616e7366657220616d6f756e74206f766572666c6f7773556e693a3a7472616e7366657246726f6d3a207472616e7366657220616d6f756e742065786365656473207370656e64657220616c6c6f77616e6365556e693a3a6d696e743a20746f74616c537570706c7920657863656564732039362062697473556e693a3a5f7472616e73666572546f6b656e733a207472616e7366657220616d6f756e7420657863656564732062616c616e6365556e693a3a7065726d69743a20616d6f756e7420657863656564732039362062697473556e693a3a5f6d6f7665566f7465733a20766f746520616d6f756e74206f766572666c6f7773556e693a3a5f7772697465436865636b706f696e743a20626c6f636b206e756d62657220657863656564732033322062697473556e693a3a5f6d6f7665566f7465733a20766f746520616d6f756e7420756e646572666c6f7773556e693a3a7472616e736665723a20616d6f756e7420657863656564732039362062697473556e693a3a6d696e743a20616d6f756e7420657863656564732039362062697473556e693a3a617070726f76653a20616d6f756e7420657863656564732039362062697473556e693a3a5f7472616e73666572546f6b656e733a207472616e7366657220616d6f756e74206f766572666c6f7773a365627a7a7231582086b82e593310e22d3999e91a99828005f41ba21eb2995c22c1f9687e726241bf6c6578706572696d656e74616cf564736f6c63430005110040",
  "source": "pragma solidity ^0.5.16;\npragma experimental ABIEncoderV2;\n\nimport \"./libraries/SafeMath.sol\";\n\ncontract Uni {\n    using SafeMath for uint256;\n    /// @notice EIP-20 token name for this token\n    string public constant name = \"Uniswap\";\n\n    /// @notice EIP-20 token symbol for this token\n    string public constant symbol = \"UNI\";\n\n    /// @notice EIP-20 token decimals for this token\n    uint8 public constant decimals = 18;\n\n    /// @notice Total number of tokens in circulation\n    uint public totalSupply = 1_000_000_000e18; // 1 billion Uni\n\n    /// @notice Address which may mint new tokens\n    address public minter;\n\n    /// @notice The timestamp after which minting may occur\n    uint public mintingAllowedAfter;\n\n    /// @notice Minimum time between mints\n    uint32 public constant minimumTimeBetweenMints = 1 days * 365;\n\n    /// @notice Cap on the percentage of totalSupply that can be minted at each mint\n    uint8 public constant mintCap = 2;\n\n    /// @notice Allowance amounts on behalf of others\n    mapping (address => mapping (address => uint96)) internal allowances;\n\n    /// @notice Official record of token balances for each account\n    mapping (address => uint96) internal balances;\n\n    /// @notice A record of each accounts delegate\n    mapping (address => address) public delegates;\n\n    /// @notice A checkpoint for marking number of votes from a given block\n    struct Checkpoint {\n        uint32 fromBlock;\n        uint96 votes;\n    }\n\n    /// @notice A record of votes checkpoints for each account, by index\n    mapping (address => mapping (uint32 => Checkpoint)) public checkpoints;\n\n    /// @notice The number of checkpoints for each account\n    mapping (address => uint32) public numCheckpoints;\n\n    /// @notice The EIP-712 typehash for the contract's domain\n    bytes32 public constant DOMAIN_TYPEHASH = keccak256(\"EIP712Domain(string name,uint256 chainId,address verifyingContract)\");\n\n    /// @notice The EIP-712 typehash for the delegation struct used by the contract\n    bytes32 public constant DELEGATION_TYPEHASH = keccak256(\"Delegation(address delegatee,uint256 nonce,uint256 expiry)\");\n\n    /// @notice The EIP-712 typehash for the permit struct used by the contract\n    bytes32 public constant PERMIT_TYPEHASH = keccak256(\"Permit(address owner,address spender,uint256 value,uint256 nonce,uint256 deadline)\");\n\n    /// @notice A record of states for signing / validating signatures\n    mapping (address => uint) public nonces;\n\n    /// @notice An event thats emitted when the minter address is changed\n    event MinterChanged(address minter, address newMinter);\n\n    /// @notice An event thats emitted when an account changes its delegate\n    event DelegateChanged(address indexed delegator, address indexed fromDelegate, address indexed toDelegate);\n\n    /// @notice An event thats emitted when a delegate account's vote balance changes\n    event DelegateVotesChanged(address indexed delegate, uint previousBalance, uint newBalance);\n\n    /// @notice The standard EIP-20 transfer event\n    event Transfer(address indexed from, address indexed to, uint256 amount);\n\n    /// @notice The standard EIP-20 approval event\n    event Approval(address indexed owner, address indexed spender, uint256 amount);\n\n    /**\n     * @notice Construct a new Uni token\n     * @param account The initial account to grant all the tokens\n     * @param minter_ The account with minting ability\n     * @param mintingAllowedAfter_ The timestamp after which minting may occur\n     */\n    constructor(address account, address minter_, uint mintingAllowedAfter_) public {\n        require(mintingAllowedAfter_ >= block.timestamp.div(1000), \"Uni::constructor: minting can only begin after deployment\");\n\n        balances[account] = uint96(totalSupply);\n        emit Transfer(address(uint160(0)), account, totalSupply);\n        minter = minter_;\n        emit MinterChanged(address(uint160(0)), minter);\n        mintingAllowedAfter = mintingAllowedAfter_;\n    }\n\n    /**\n     * @notice Change the minter address\n     * @param minter_ The address of the new minter\n     */\n    function setMinter(address minter_) external {\n        require(msg.sender == minter, \"Uni::setMinter: only the minter can change the minter address\");\n        emit MinterChanged(minter, minter_);\n        minter = minter_;\n    }\n\n    /**\n     * @notice Mint new tokens\n     * @param dst The address of the destination account\n     * @param rawAmount The number of tokens to be minted\n     */\n    function mint(address dst, uint rawAmount) external {\n        require(msg.sender == minter, \"Uni::mint: only the minter can mint\");\n        require(block.timestamp.div(1000) >= mintingAllowedAfter, \"Uni::mint: minting not allowed yet\");\n        require(dst != address(uint160(0)), \"Uni::mint: cannot transfer to the zero address\");\n\n        // record the mint\n        mintingAllowedAfter = SafeMath.add(block.timestamp.div(1000), minimumTimeBetweenMints);\n\n        // mint the amount\n        uint96 amount = safe96(rawAmount, \"Uni::mint: amount exceeds 96 bits\");\n        require(amount <= SafeMath.div(SafeMath.mul(totalSupply, mintCap), 100), \"Uni::mint: exceeded mint cap\");\n        totalSupply = safe96(SafeMath.add(totalSupply, amount), \"Uni::mint: totalSupply exceeds 96 bits\");\n\n        // transfer the amount to the recipient\n        balances[dst] = add96(balances[dst], amount, \"Uni::mint: transfer amount overflows\");\n        emit Transfer(address(uint160(0)), dst, amount);\n\n        // move delegates\n        _moveDelegates(address(uint160(0)), delegates[dst], amount);\n    }\n\n    /**\n     * @notice Get the number of tokens `spender` is approved to spend on behalf of `account`\n     * @param account The address of the account holding the funds\n     * @param spender The address of the account spending the funds\n     * @return The number of tokens approved\n     */\n    function allowance(address account, address spender) external view returns (uint) {\n        return allowances[account][spender];\n    }\n\n    /**\n     * @notice Approve `spender` to transfer up to `amount` from `src`\n     * @dev This will overwrite the approval amount for `spender`\n     *  and is subject to issues noted [here](https://eips.ethereum.org/EIPS/eip-20#approve)\n     * @param spender The address of the account which may transfer tokens\n     * @param rawAmount The number of tokens that are approved (2^256-1 means infinite)\n     * @return Whether or not the approval succeeded\n     */\n    function approve(address spender, uint rawAmount) external returns (bool) {\n        uint96 amount;\n        if (rawAmount == uint(-1)) {\n            amount = uint96(-1);\n        } else {\n            amount = safe96(rawAmount, \"Uni::approve: amount exceeds 96 bits\");\n        }\n\n        allowances[msg.sender][spender] = amount;\n\n        emit Approval(msg.sender, spender, amount);\n        return true;\n    }\n\n    /**\n     * @notice Triggers an approval from owner to spends\n     * @param owner The address to approve from\n     * @param spender The address to be approved\n     * @param rawAmount The number of tokens that are approved (2^256-1 means infinite)\n     * @param deadline The time at which to expire the signature\n     * @param v The recovery byte of the signature\n     * @param r Half of the ECDSA signature pair\n     * @param s Half of the ECDSA signature pair\n     */\n    function permit(address owner, address spender, uint rawAmount, uint deadline, uint8 v, bytes32 r, bytes32 s) external {\n        uint96 amount;\n        if (rawAmount == uint(-1)) {\n            amount = uint96(-1);\n        } else {\n            amount = safe96(rawAmount, \"Uni::permit: amount exceeds 96 bits\");\n        }\n\n        bytes32 domainSeparator = keccak256(abi.encode(DOMAIN_TYPEHASH, keccak256(bytes(name)), getChainId(), address(this)));\n        bytes32 structHash = keccak256(abi.encode(PERMIT_TYPEHASH, owner, spender, rawAmount, nonces[owner]++, deadline));\n        bytes32 digest = keccak256(abi.encodePacked(\"\\x19\\x01\", domainSeparator, structHash));\n        address signatory = ecrecover(digest, v, r, s);\n        require(signatory != address(uint160(0)), \"Uni::permit: invalid signature\");\n        require(signatory == owner, \"Uni::permit: unauthorized\");\n        require(now <= deadline, \"Uni::permit: signature expired\");\n\n        allowances[owner][spender] = amount;\n\n        emit Approval(owner, spender, amount);\n    }\n\n    /**\n     * @notice Get the number of tokens held by the `account`\n     * @param account The address of the account to get the balance of\n     * @return The number of tokens held\n     */\n    function balanceOf(address account) external view returns (uint) {\n        return balances[account];\n    }\n\n    /**\n     * @notice Transfer `amount` tokens from `msg.sender` to `dst`\n     * @param dst The address of the destination account\n     * @param rawAmount The number of tokens to transfer\n     * @return Whether or not the transfer succeeded\n     */\n    function transfer(address dst, uint rawAmount) external returns (bool) {\n        uint96 amount = safe96(rawAmount, \"Uni::transfer: amount exceeds 96 bits\");\n        _transferTokens(msg.sender, dst, amount);\n        return true;\n    }\n\n    /**\n     * @notice Transfer `amount` tokens from `src` to `dst`\n     * @param src The address of the source account\n     * @param dst The address of the destination account\n     * @param rawAmount The number of tokens to transfer\n     * @return Whether or not the transfer succeeded\n     */\n    function transferFrom(address src, address dst, uint rawAmount) external returns (bool) {\n        address spender = msg.sender;\n        uint96 spenderAllowance = allowances[src][spender];\n        uint96 amount = safe96(rawAmount, \"Uni::approve: amount exceeds 96 bits\");\n\n        if (spender != src && spenderAllowance != uint96(-1)) {\n            uint96 newAllowance = sub96(spenderAllowance, amount, \"Uni::transferFrom: transfer amount exceeds spender allowance\");\n            allowances[src][spender] = newAllowance;\n\n            emit Approval(src, spender, newAllowance);\n        }\n\n        _transferTokens(src, dst, amount);\n        return true;\n    }\n\n    /**\n     * @notice Delegate votes from `msg.sender` to `delegatee`\n     * @param delegatee The address to delegate votes to\n     */\n    function delegate(address delegatee) public {\n        return _delegate(msg.sender, delegatee);\n    }\n\n    /**\n     * @notice Delegates votes from signatory to `delegatee`\n     * @param delegatee The address to delegate votes to\n     * @param nonce The contract state required to match the signature\n     * @param expiry The time at which to expire the signature\n     * @param v The recovery byte of the signature\n     * @param r Half of the ECDSA signature pair\n     * @param s Half of the ECDSA signature pair\n     */\n    function delegateBySig(address delegatee, uint nonce, uint expiry, uint8 v, bytes32 r, bytes32 s) public {\n        bytes32 domainSeparator = keccak256(abi.encode(DOMAIN_TYPEHASH, keccak256(bytes(name)), getChainId(), address(this)));\n        bytes32 structHash = keccak256(abi.encode(DELEGATION_TYPEHASH, delegatee, nonce, expiry));\n        bytes32 digest = keccak256(abi.encodePacked(\"\\x19\\x01\", domainSeparator, structHash));\n        address signatory = ecrecover(digest, v, r, s);\n        require(signatory != address(uint160(0)), \"Uni::delegateBySig: invalid signature\");\n        require(nonce == nonces[signatory]++, \"Uni::delegateBySig: invalid nonce\");\n        require(now <= expiry, \"Uni::delegateBySig: signature expired\");\n        return _delegate(signatory, delegatee);\n    }\n\n    /**\n     * @notice Gets the current votes balance for `account`\n     * @param account The address to get votes balance\n     * @return The number of current votes for `account`\n     */\n    function getCurrentVotes(address account) external view returns (uint96) {\n        uint32 nCheckpoints = numCheckpoints[account];\n        return nCheckpoints > 0 ? checkpoints[account][nCheckpoints - 1].votes : 0;\n    }\n\n    /**\n     * @notice Determine the prior number of votes for an account as of a block number\n     * @dev Block number must be a finalized block or else this function will revert to prevent misinformation.\n     * @param account The address of the account to check\n     * @param blockNumber The block number to get the vote balance at\n     * @return The number of votes the account had as of the given block\n     */\n    function getPriorVotes(address account, uint blockNumber) public view returns (uint96) {\n        require(blockNumber < block.number, \"Uni::getPriorVotes: not yet determined\");\n\n        uint32 nCheckpoints = numCheckpoints[account];\n        if (nCheckpoints == 0) {\n            return 0;\n        }\n\n        // First check most recent balance\n        if (checkpoints[account][nCheckpoints - 1].fromBlock <= blockNumber) {\n            return checkpoints[account][nCheckpoints - 1].votes;\n        }\n\n        // Next check implicit zero balance\n        if (checkpoints[account][0].fromBlock > blockNumber) {\n            return 0;\n        }\n\n        uint32 lower = 0;\n        uint32 upper = nCheckpoints - 1;\n        while (upper > lower) {\n            uint32 center = upper - (upper - lower) / 2; // ceil, avoiding overflow\n            Checkpoint memory cp = checkpoints[account][center];\n            if (cp.fromBlock == blockNumber) {\n                return cp.votes;\n            } else if (cp.fromBlock < blockNumber) {\n                lower = center;\n            } else {\n                upper = center - 1;\n            }\n        }\n        return checkpoints[account][lower].votes;\n    }\n\n    function _delegate(address delegator, address delegatee) internal {\n        address currentDelegate = delegates[delegator];\n        uint96 delegatorBalance = balances[delegator];\n        delegates[delegator] = delegatee;\n\n        emit DelegateChanged(delegator, currentDelegate, delegatee);\n\n        _moveDelegates(currentDelegate, delegatee, delegatorBalance);\n    }\n\n    function _transferTokens(address src, address dst, uint96 amount) internal {\n        require(src != address(uint160(0)), \"Uni::_transferTokens: cannot transfer from the zero address\");\n        require(dst != address(uint160(0)), \"Uni::_transferTokens: cannot transfer to the zero address\");\n\n        balances[src] = sub96(balances[src], amount, \"Uni::_transferTokens: transfer amount exceeds balance\");\n        balances[dst] = add96(balances[dst], amount, \"Uni::_transferTokens: transfer amount overflows\");\n        emit Transfer(src, dst, amount);\n\n        _moveDelegates(delegates[src], delegates[dst], amount);\n    }\n\n    function _moveDelegates(address srcRep, address dstRep, uint96 amount) internal {\n        if (srcRep != dstRep && amount > 0) {\n            if (srcRep != address(uint160(0))) {\n                uint32 srcRepNum = numCheckpoints[srcRep];\n                uint96 srcRepOld = srcRepNum > 0 ? checkpoints[srcRep][srcRepNum - 1].votes : 0;\n                uint96 srcRepNew = sub96(srcRepOld, amount, \"Uni::_moveVotes: vote amount underflows\");\n                _writeCheckpoint(srcRep, srcRepNum, srcRepOld, srcRepNew);\n            }\n\n            if (dstRep != address(uint160(0))) {\n                uint32 dstRepNum = numCheckpoints[dstRep];\n                uint96 dstRepOld = dstRepNum > 0 ? checkpoints[dstRep][dstRepNum - 1].votes : 0;\n                uint96 dstRepNew = add96(dstRepOld, amount, \"Uni::_moveVotes: vote amount overflows\");\n                _writeCheckpoint(dstRep, dstRepNum, dstRepOld, dstRepNew);\n            }\n        }\n    }\n\n    function _writeCheckpoint(address delegatee, uint32 nCheckpoints, uint96 oldVotes, uint96 newVotes) internal {\n      uint32 blockNumber = safe32(block.number, \"Uni::_writeCheckpoint: block number exceeds 32 bits\");\n\n      if (nCheckpoints > 0 && checkpoints[delegatee][nCheckpoints - 1].fromBlock == blockNumber) {\n          checkpoints[delegatee][nCheckpoints - 1].votes = newVotes;\n      } else {\n          checkpoints[delegatee][nCheckpoints] = Checkpoint(blockNumber, newVotes);\n          numCheckpoints[delegatee] = nCheckpoints + 1;\n      }\n\n      emit DelegateVotesChanged(delegatee, oldVotes, newVotes);\n    }\n\n    function safe32(uint n, string memory errorMessage) internal pure returns (uint32) {\n        require(n < 2**32, errorMessage);\n        return uint32(n);\n    }\n\n    function safe96(uint n, string memory errorMessage) internal pure returns (uint96) {\n        require(n < 2**96, errorMessage);\n        return uint96(n);\n    }\n\n    function add96(uint96 a, uint96 b, string memory errorMessage) internal pure returns (uint96) {\n        uint96 c = a + b;\n        require(c >= a, errorMessage);\n        return c;\n    }\n\n    function sub96(uint96 a, uint96 b, string memory errorMessage) internal pure returns (uint96) {\n        require(b <= a, errorMessage);\n        return a - b;\n    }\n\n    function getChainId() internal pure returns (uint) {\n        uint256 chainId;\n        assembly { chainId := chainid() }\n        return chainId;\n    }\n}\n",
  "sourcePath": "/Users/mingcai/Documents/GitHub/ViperSwap/contracts/Uni.sol",
  "compiler": {
    "name": "solc",
    "version": "0.5.17+commit.d19bba13.Emscripten.clang"
  },
  "schemaVersion": "3.0.18",
  "updatedAt": "2021-11-16T02:45:19.230Z",
  "devdoc": {
    "methods": {
      "allowance(address,address)": {
        "params": {
          "account": "The address of the account holding the funds",
          "spender": "The address of the account spending the funds"
        },
        "return": "The number of tokens approved"
      },
      "approve(address,uint256)": {
        "details": "This will overwrite the approval amount for `spender` and is subject to issues noted [here](https://eips.ethereum.org/EIPS/eip-20#approve)",
        "params": {
          "rawAmount": "The number of tokens that are approved (2^256-1 means infinite)",
          "spender": "The address of the account which may transfer tokens"
        },
        "return": "Whether or not the approval succeeded"
      },
      "balanceOf(address)": {
        "params": {
          "account": "The address of the account to get the balance of"
        },
        "return": "The number of tokens held"
      },
      "constructor": {
        "params": {
          "account": "The initial account to grant all the tokens",
          "minter_": "The account with minting ability",
          "mintingAllowedAfter_": "The timestamp after which minting may occur"
        }
      },
      "delegate(address)": {
        "params": {
          "delegatee": "The address to delegate votes to"
        }
      },
      "delegateBySig(address,uint256,uint256,uint8,bytes32,bytes32)": {
        "params": {
          "delegatee": "The address to delegate votes to",
          "expiry": "The time at which to expire the signature",
          "nonce": "The contract state required to match the signature",
          "r": "Half of the ECDSA signature pair",
          "s": "Half of the ECDSA signature pair",
          "v": "The recovery byte of the signature"
        }
      },
      "getCurrentVotes(address)": {
        "params": {
          "account": "The address to get votes balance"
        },
        "return": "The number of current votes for `account`"
      },
      "getPriorVotes(address,uint256)": {
        "details": "Block number must be a finalized block or else this function will revert to prevent misinformation.",
        "params": {
          "account": "The address of the account to check",
          "blockNumber": "The block number to get the vote balance at"
        },
        "return": "The number of votes the account had as of the given block"
      },
      "mint(address,uint256)": {
        "params": {
          "dst": "The address of the destination account",
          "rawAmount": "The number of tokens to be minted"
        }
      },
      "permit(address,address,uint256,uint256,uint8,bytes32,bytes32)": {
        "params": {
          "deadline": "The time at which to expire the signature",
          "owner": "The address to approve from",
          "r": "Half of the ECDSA signature pair",
          "rawAmount": "The number of tokens that are approved (2^256-1 means infinite)",
          "s": "Half of the ECDSA signature pair",
          "spender": "The address to be approved",
          "v": "The recovery byte of the signature"
        }
      },
      "setMinter(address)": {
        "params": {
          "minter_": "The address of the new minter"
        }
      },
      "transfer(address,uint256)": {
        "params": {
          "dst": "The address of the destination account",
          "rawAmount": "The number of tokens to transfer"
        },
        "return": "Whether or not the transfer succeeded"
      },
      "transferFrom(address,address,uint256)": {
        "params": {
          "dst": "The address of the destination account",
          "rawAmount": "The number of tokens to transfer",
          "src": "The address of the source account"
        },
        "return": "Whether or not the transfer succeeded"
      }
    }
  },
  "userdoc": {
    "methods": {
      "allowance(address,address)": {
        "notice": "Get the number of tokens `spender` is approved to spend on behalf of `account`"
      },
      "approve(address,uint256)": {
        "notice": "Approve `spender` to transfer up to `amount` from `src`"
      },
      "balanceOf(address)": {
        "notice": "Get the number of tokens held by the `account`"
      },
      "constructor": "Construct a new Uni token",
      "delegate(address)": {
        "notice": "Delegate votes from `msg.sender` to `delegatee`"
      },
      "delegateBySig(address,uint256,uint256,uint8,bytes32,bytes32)": {
        "notice": "Delegates votes from signatory to `delegatee`"
      },
      "getCurrentVotes(address)": {
        "notice": "Gets the current votes balance for `account`"
      },
      "getPriorVotes(address,uint256)": {
        "notice": "Determine the prior number of votes for an account as of a block number"
      },
      "mint(address,uint256)": {
        "notice": "Mint new tokens"
      },
      "permit(address,address,uint256,uint256,uint8,bytes32,bytes32)": {
        "notice": "Triggers an approval from owner to spends"
      },
      "setMinter(address)": {
        "notice": "Change the minter address"
      },
      "transfer(address,uint256)": {
        "notice": "Transfer `amount` tokens from `msg.sender` to `dst`"
      },
      "transferFrom(address,address,uint256)": {
        "notice": "Transfer `amount` tokens from `src` to `dst`"
      }
    }
  }
}