{
  "contractName": "ViperRouter",
  "abi": [
    {
      "inputs": [
        {
          "internalType": "address",
          "name": "_factory",
          "type": "address"
        },
        {
          "internalType": "address",
          "name": "_WATP",
          "type": "address"
        }
      ],
      "payable": false,
      "stateMutability": "nonpayable",
      "type": "constructor"
    },
    {
      "payable": true,
      "stateMutability": "payable",
      "type": "fallback"
    },
    {
      "constant": true,
      "inputs": [],
      "name": "WATP",
      "outputs": [
        {
          "internalType": "address",
          "name": "",
          "type": "address"
        }
      ],
      "payable": false,
      "stateMutability": "view",
      "type": "function"
    },
    {
      "constant": true,
      "inputs": [],
      "name": "factory",
      "outputs": [
        {
          "internalType": "address",
          "name": "",
          "type": "address"
        }
      ],
      "payable": false,
      "stateMutability": "view",
      "type": "function"
    },
    {
      "constant": false,
      "inputs": [
        {
          "internalType": "address",
          "name": "tokenA",
          "type": "address"
        },
        {
          "internalType": "address",
          "name": "tokenB",
          "type": "address"
        },
        {
          "internalType": "uint256",
          "name": "amountADesired",
          "type": "uint256"
        },
        {
          "internalType": "uint256",
          "name": "amountBDesired",
          "type": "uint256"
        },
        {
          "internalType": "uint256",
          "name": "amountAMin",
          "type": "uint256"
        },
        {
          "internalType": "uint256",
          "name": "amountBMin",
          "type": "uint256"
        },
        {
          "internalType": "address",
          "name": "to",
          "type": "address"
        },
        {
          "internalType": "uint256",
          "name": "deadline",
          "type": "uint256"
        }
      ],
      "name": "addLiquidity",
      "outputs": [
        {
          "internalType": "uint256",
          "name": "amountA",
          "type": "uint256"
        },
        {
          "internalType": "uint256",
          "name": "amountB",
          "type": "uint256"
        },
        {
          "internalType": "uint256",
          "name": "liquidity",
          "type": "uint256"
        }
      ],
      "payable": false,
      "stateMutability": "nonpayable",
      "type": "function"
    },
    {
      "constant": false,
      "inputs": [
        {
          "internalType": "address",
          "name": "token",
          "type": "address"
        },
        {
          "internalType": "uint256",
          "name": "amountTokenDesired",
          "type": "uint256"
        },
        {
          "internalType": "uint256",
          "name": "amountTokenMin",
          "type": "uint256"
        },
        {
          "internalType": "uint256",
          "name": "amountATPMin",
          "type": "uint256"
        },
        {
          "internalType": "address",
          "name": "to",
          "type": "address"
        },
        {
          "internalType": "uint256",
          "name": "deadline",
          "type": "uint256"
        }
      ],
      "name": "addLiquidityATP",
      "outputs": [
        {
          "internalType": "uint256",
          "name": "amountToken",
          "type": "uint256"
        },
        {
          "internalType": "uint256",
          "name": "amountATP",
          "type": "uint256"
        },
        {
          "internalType": "uint256",
          "name": "liquidity",
          "type": "uint256"
        }
      ],
      "payable": true,
      "stateMutability": "payable",
      "type": "function"
    },
    {
      "constant": false,
      "inputs": [
        {
          "internalType": "address",
          "name": "tokenA",
          "type": "address"
        },
        {
          "internalType": "address",
          "name": "tokenB",
          "type": "address"
        },
        {
          "internalType": "uint256",
          "name": "liquidity",
          "type": "uint256"
        },
        {
          "internalType": "uint256",
          "name": "amountAMin",
          "type": "uint256"
        },
        {
          "internalType": "uint256",
          "name": "amountBMin",
          "type": "uint256"
        },
        {
          "internalType": "address",
          "name": "to",
          "type": "address"
        },
        {
          "internalType": "uint256",
          "name": "deadline",
          "type": "uint256"
        }
      ],
      "name": "removeLiquidity",
      "outputs": [
        {
          "internalType": "uint256",
          "name": "amountA",
          "type": "uint256"
        },
        {
          "internalType": "uint256",
          "name": "amountB",
          "type": "uint256"
        }
      ],
      "payable": false,
      "stateMutability": "nonpayable",
      "type": "function"
    },
    {
      "constant": false,
      "inputs": [
        {
          "internalType": "address",
          "name": "token",
          "type": "address"
        },
        {
          "internalType": "uint256",
          "name": "liquidity",
          "type": "uint256"
        },
        {
          "internalType": "uint256",
          "name": "amountTokenMin",
          "type": "uint256"
        },
        {
          "internalType": "uint256",
          "name": "amountATPMin",
          "type": "uint256"
        },
        {
          "internalType": "address",
          "name": "to",
          "type": "address"
        },
        {
          "internalType": "uint256",
          "name": "deadline",
          "type": "uint256"
        }
      ],
      "name": "removeLiquidityATP",
      "outputs": [
        {
          "internalType": "uint256",
          "name": "amountToken",
          "type": "uint256"
        },
        {
          "internalType": "uint256",
          "name": "amountATP",
          "type": "uint256"
        }
      ],
      "payable": false,
      "stateMutability": "nonpayable",
      "type": "function"
    },
    {
      "constant": false,
      "inputs": [
        {
          "internalType": "address",
          "name": "tokenA",
          "type": "address"
        },
        {
          "internalType": "address",
          "name": "tokenB",
          "type": "address"
        },
        {
          "internalType": "uint256",
          "name": "liquidity",
          "type": "uint256"
        },
        {
          "internalType": "uint256",
          "name": "amountAMin",
          "type": "uint256"
        },
        {
          "internalType": "uint256",
          "name": "amountBMin",
          "type": "uint256"
        },
        {
          "internalType": "address",
          "name": "to",
          "type": "address"
        },
        {
          "internalType": "uint256",
          "name": "deadline",
          "type": "uint256"
        },
        {
          "internalType": "bool",
          "name": "approveMax",
          "type": "bool"
        },
        {
          "internalType": "uint8",
          "name": "v",
          "type": "uint8"
        },
        {
          "internalType": "bytes32",
          "name": "r",
          "type": "bytes32"
        },
        {
          "internalType": "bytes32",
          "name": "s",
          "type": "bytes32"
        }
      ],
      "name": "removeLiquidityWithPermit",
      "outputs": [
        {
          "internalType": "uint256",
          "name": "amountA",
          "type": "uint256"
        },
        {
          "internalType": "uint256",
          "name": "amountB",
          "type": "uint256"
        }
      ],
      "payable": false,
      "stateMutability": "nonpayable",
      "type": "function"
    },
    {
      "constant": false,
      "inputs": [
        {
          "internalType": "address",
          "name": "token",
          "type": "address"
        },
        {
          "internalType": "uint256",
          "name": "liquidity",
          "type": "uint256"
        },
        {
          "internalType": "uint256",
          "name": "amountTokenMin",
          "type": "uint256"
        },
        {
          "internalType": "uint256",
          "name": "amountATPMin",
          "type": "uint256"
        },
        {
          "internalType": "address",
          "name": "to",
          "type": "address"
        },
        {
          "internalType": "uint256",
          "name": "deadline",
          "type": "uint256"
        },
        {
          "internalType": "bool",
          "name": "approveMax",
          "type": "bool"
        },
        {
          "internalType": "uint8",
          "name": "v",
          "type": "uint8"
        },
        {
          "internalType": "bytes32",
          "name": "r",
          "type": "bytes32"
        },
        {
          "internalType": "bytes32",
          "name": "s",
          "type": "bytes32"
        }
      ],
      "name": "removeLiquidityATPWithPermit",
      "outputs": [
        {
          "internalType": "uint256",
          "name": "amountToken",
          "type": "uint256"
        },
        {
          "internalType": "uint256",
          "name": "amountATP",
          "type": "uint256"
        }
      ],
      "payable": false,
      "stateMutability": "nonpayable",
      "type": "function"
    },
    {
      "constant": false,
      "inputs": [
        {
          "internalType": "address",
          "name": "token",
          "type": "address"
        },
        {
          "internalType": "uint256",
          "name": "liquidity",
          "type": "uint256"
        },
        {
          "internalType": "uint256",
          "name": "amountTokenMin",
          "type": "uint256"
        },
        {
          "internalType": "uint256",
          "name": "amountATPMin",
          "type": "uint256"
        },
        {
          "internalType": "address",
          "name": "to",
          "type": "address"
        },
        {
          "internalType": "uint256",
          "name": "deadline",
          "type": "uint256"
        }
      ],
      "name": "removeLiquidityATPSupportingFeeOnTransferTokens",
      "outputs": [
        {
          "internalType": "uint256",
          "name": "amountATP",
          "type": "uint256"
        }
      ],
      "payable": false,
      "stateMutability": "nonpayable",
      "type": "function"
    },
    {
      "constant": false,
      "inputs": [
        {
          "internalType": "address",
          "name": "token",
          "type": "address"
        },
        {
          "internalType": "uint256",
          "name": "liquidity",
          "type": "uint256"
        },
        {
          "internalType": "uint256",
          "name": "amountTokenMin",
          "type": "uint256"
        },
        {
          "internalType": "uint256",
          "name": "amountATPMin",
          "type": "uint256"
        },
        {
          "internalType": "address",
          "name": "to",
          "type": "address"
        },
        {
          "internalType": "uint256",
          "name": "deadline",
          "type": "uint256"
        },
        {
          "internalType": "bool",
          "name": "approveMax",
          "type": "bool"
        },
        {
          "internalType": "uint8",
          "name": "v",
          "type": "uint8"
        },
        {
          "internalType": "bytes32",
          "name": "r",
          "type": "bytes32"
        },
        {
          "internalType": "bytes32",
          "name": "s",
          "type": "bytes32"
        }
      ],
      "name": "removeLiquidityATPWithPermitSupportingFeeOnTransferTokens",
      "outputs": [
        {
          "internalType": "uint256",
          "name": "amountATP",
          "type": "uint256"
        }
      ],
      "payable": false,
      "stateMutability": "nonpayable",
      "type": "function"
    },
    {
      "constant": false,
      "inputs": [
        {
          "internalType": "uint256",
          "name": "amountIn",
          "type": "uint256"
        },
        {
          "internalType": "uint256",
          "name": "amountOutMin",
          "type": "uint256"
        },
        {
          "internalType": "address[]",
          "name": "path",
          "type": "address[]"
        },
        {
          "internalType": "address",
          "name": "to",
          "type": "address"
        },
        {
          "internalType": "uint256",
          "name": "deadline",
          "type": "uint256"
        }
      ],
      "name": "swapExactTokensForTokens",
      "outputs": [
        {
          "internalType": "uint256[]",
          "name": "amounts",
          "type": "uint256[]"
        }
      ],
      "payable": false,
      "stateMutability": "nonpayable",
      "type": "function"
    },
    {
      "constant": false,
      "inputs": [
        {
          "internalType": "uint256",
          "name": "amountOut",
          "type": "uint256"
        },
        {
          "internalType": "uint256",
          "name": "amountInMax",
          "type": "uint256"
        },
        {
          "internalType": "address[]",
          "name": "path",
          "type": "address[]"
        },
        {
          "internalType": "address",
          "name": "to",
          "type": "address"
        },
        {
          "internalType": "uint256",
          "name": "deadline",
          "type": "uint256"
        }
      ],
      "name": "swapTokensForExactTokens",
      "outputs": [
        {
          "internalType": "uint256[]",
          "name": "amounts",
          "type": "uint256[]"
        }
      ],
      "payable": false,
      "stateMutability": "nonpayable",
      "type": "function"
    },
    {
      "constant": false,
      "inputs": [
        {
          "internalType": "uint256",
          "name": "amountOutMin",
          "type": "uint256"
        },
        {
          "internalType": "address[]",
          "name": "path",
          "type": "address[]"
        },
        {
          "internalType": "address",
          "name": "to",
          "type": "address"
        },
        {
          "internalType": "uint256",
          "name": "deadline",
          "type": "uint256"
        }
      ],
      "name": "swapExactATPForTokens",
      "outputs": [
        {
          "internalType": "uint256[]",
          "name": "amounts",
          "type": "uint256[]"
        }
      ],
      "payable": true,
      "stateMutability": "payable",
      "type": "function"
    },
    {
      "constant": false,
      "inputs": [
        {
          "internalType": "uint256",
          "name": "amountOut",
          "type": "uint256"
        },
        {
          "internalType": "uint256",
          "name": "amountInMax",
          "type": "uint256"
        },
        {
          "internalType": "address[]",
          "name": "path",
          "type": "address[]"
        },
        {
          "internalType": "address",
          "name": "to",
          "type": "address"
        },
        {
          "internalType": "uint256",
          "name": "deadline",
          "type": "uint256"
        }
      ],
      "name": "swapTokensForExactATP",
      "outputs": [
        {
          "internalType": "uint256[]",
          "name": "amounts",
          "type": "uint256[]"
        }
      ],
      "payable": false,
      "stateMutability": "nonpayable",
      "type": "function"
    },
    {
      "constant": false,
      "inputs": [
        {
          "internalType": "uint256",
          "name": "amountIn",
          "type": "uint256"
        },
        {
          "internalType": "uint256",
          "name": "amountOutMin",
          "type": "uint256"
        },
        {
          "internalType": "address[]",
          "name": "path",
          "type": "address[]"
        },
        {
          "internalType": "address",
          "name": "to",
          "type": "address"
        },
        {
          "internalType": "uint256",
          "name": "deadline",
          "type": "uint256"
        }
      ],
      "name": "swapExactTokensForATP",
      "outputs": [
        {
          "internalType": "uint256[]",
          "name": "amounts",
          "type": "uint256[]"
        }
      ],
      "payable": false,
      "stateMutability": "nonpayable",
      "type": "function"
    },
    {
      "constant": false,
      "inputs": [
        {
          "internalType": "uint256",
          "name": "amountOut",
          "type": "uint256"
        },
        {
          "internalType": "address[]",
          "name": "path",
          "type": "address[]"
        },
        {
          "internalType": "address",
          "name": "to",
          "type": "address"
        },
        {
          "internalType": "uint256",
          "name": "deadline",
          "type": "uint256"
        }
      ],
      "name": "swapATPForExactTokens",
      "outputs": [
        {
          "internalType": "uint256[]",
          "name": "amounts",
          "type": "uint256[]"
        }
      ],
      "payable": true,
      "stateMutability": "payable",
      "type": "function"
    },
    {
      "constant": false,
      "inputs": [
        {
          "internalType": "uint256",
          "name": "amountIn",
          "type": "uint256"
        },
        {
          "internalType": "uint256",
          "name": "amountOutMin",
          "type": "uint256"
        },
        {
          "internalType": "address[]",
          "name": "path",
          "type": "address[]"
        },
        {
          "internalType": "address",
          "name": "to",
          "type": "address"
        },
        {
          "internalType": "uint256",
          "name": "deadline",
          "type": "uint256"
        }
      ],
      "name": "swapExactTokensForTokensSupportingFeeOnTransferTokens",
      "outputs": [],
      "payable": false,
      "stateMutability": "nonpayable",
      "type": "function"
    },
    {
      "constant": false,
      "inputs": [
        {
          "internalType": "uint256",
          "name": "amountOutMin",
          "type": "uint256"
        },
        {
          "internalType": "address[]",
          "name": "path",
          "type": "address[]"
        },
        {
          "internalType": "address",
          "name": "to",
          "type": "address"
        },
        {
          "internalType": "uint256",
          "name": "deadline",
          "type": "uint256"
        }
      ],
      "name": "swapExactATPForTokensSupportingFeeOnTransferTokens",
      "outputs": [],
      "payable": true,
      "stateMutability": "payable",
      "type": "function"
    },
    {
      "constant": false,
      "inputs": [
        {
          "internalType": "uint256",
          "name": "amountIn",
          "type": "uint256"
        },
        {
          "internalType": "uint256",
          "name": "amountOutMin",
          "type": "uint256"
        },
        {
          "internalType": "address[]",
          "name": "path",
          "type": "address[]"
        },
        {
          "internalType": "address",
          "name": "to",
          "type": "address"
        },
        {
          "internalType": "uint256",
          "name": "deadline",
          "type": "uint256"
        }
      ],
      "name": "swapExactTokensForATPSupportingFeeOnTransferTokens",
      "outputs": [],
      "payable": false,
      "stateMutability": "nonpayable",
      "type": "function"
    },
    {
      "constant": true,
      "inputs": [
        {
          "internalType": "uint256",
          "name": "amountA",
          "type": "uint256"
        },
        {
          "internalType": "uint256",
          "name": "reserveA",
          "type": "uint256"
        },
        {
          "internalType": "uint256",
          "name": "reserveB",
          "type": "uint256"
        }
      ],
      "name": "quote",
      "outputs": [
        {
          "internalType": "uint256",
          "name": "amountB",
          "type": "uint256"
        }
      ],
      "payable": false,
      "stateMutability": "pure",
      "type": "function"
    },
    {
      "constant": true,
      "inputs": [
        {
          "internalType": "uint256",
          "name": "amountIn",
          "type": "uint256"
        },
        {
          "internalType": "uint256",
          "name": "reserveIn",
          "type": "uint256"
        },
        {
          "internalType": "uint256",
          "name": "reserveOut",
          "type": "uint256"
        }
      ],
      "name": "getAmountOut",
      "outputs": [
        {
          "internalType": "uint256",
          "name": "amountOut",
          "type": "uint256"
        }
      ],
      "payable": false,
      "stateMutability": "pure",
      "type": "function"
    },
    {
      "constant": true,
      "inputs": [
        {
          "internalType": "uint256",
          "name": "amountOut",
          "type": "uint256"
        },
        {
          "internalType": "uint256",
          "name": "reserveIn",
          "type": "uint256"
        },
        {
          "internalType": "uint256",
          "name": "reserveOut",
          "type": "uint256"
        }
      ],
      "name": "getAmountIn",
      "outputs": [
        {
          "internalType": "uint256",
          "name": "amountIn",
          "type": "uint256"
        }
      ],
      "payable": false,
      "stateMutability": "pure",
      "type": "function"
    },
    {
      "constant": true,
      "inputs": [
        {
          "internalType": "uint256",
          "name": "amountIn",
          "type": "uint256"
        },
        {
          "internalType": "address[]",
          "name": "path",
          "type": "address[]"
        }
      ],
      "name": "getAmountsOut",
      "outputs": [
        {
          "internalType": "uint256[]",
          "name": "amounts",
          "type": "uint256[]"
        }
      ],
      "payable": false,
      "stateMutability": "view",
      "type": "function"
    },
    {
      "constant": true,
      "inputs": [
        {
          "internalType": "uint256",
          "name": "amountOut",
          "type": "uint256"
        },
        {
          "internalType": "address[]",
          "name": "path",
          "type": "address[]"
        }
      ],
      "name": "getAmountsIn",
      "outputs": [
        {
          "internalType": "uint256[]",
          "name": "amounts",
          "type": "uint256[]"
        }
      ],
      "payable": false,
      "stateMutability": "view",
      "type": "function"
    }
  ],
  "bytecode": "0x60806040523480156200001157600080fd5b50604051620069f4380380620069f4833981810160405260408110156200003757600080fd5b810190808051906020019092919080519060200190929190505050816000806101000a81548173ffffffffffffffffffffffffffffffffffffffff021916908373ffffffffffffffffffffffffffffffffffffffff16021790555080600160006101000a81548173ffffffffffffffffffffffffffffffffffffffff021916908373ffffffffffffffffffffffffffffffffffffffff160217905550505061690f80620000e56000396000f3fe60806040526004361061014b5760003560e01c8063aa702c6b116100b6578063d22a847b1161006f578063d22a847b14610ef1578063d491d95e14610ff3578063df74c11a146110ce578063e8e33700146111d0578063ec79687d146112b6578063f90b26d5146113cf5761014b565b8063aa702c6b14610a99578063ad2e7d3e14610b5d578063ad615dec14610c3f578063baa2abde14610ca2578063c45a015514610d76578063d06ca61f14610dcd5761014b565b806351085f711161010857806351085f71146106a1578063522ec87b1461074e5780635c11d795146107a557806385f8c259146108695780638803dbee146108cc5780639ff8e87d146109e55761014b565b8063054d50d4146101a457806313094cd7146102075780631f00ca74146102b45780632195995c146103d857806338616999146104da57806338ed173914610588575b600160009054906101000a900473ffffffffffffffffffffffffffffffffffffffff1673ffffffffffffffffffffffffffffffffffffffff163373ffffffffffffffffffffffffffffffffffffffff16146101a257fe5b005b3480156101b057600080fd5b506101f1600480360360608110156101c757600080fd5b810190808035906020019092919080359060200190929190803590602001909291905050506114e8565b6040518082815260200191505060405180910390f35b6102b26004803603608081101561021d57600080fd5b81019080803590602001909291908035906020019064010000000081111561024457600080fd5b82018360208201111561025657600080fd5b8035906020019184602083028401116401000000008311171561027857600080fd5b9091929391929390803573ffffffffffffffffffffffffffffffffffffffff169060200190929190803590602001909291905050506114fe565b005b3480156102c057600080fd5b50610381600480360360408110156102d757600080fd5b8101908080359060200190929190803590602001906401000000008111156102fe57600080fd5b82018360208201111561031057600080fd5b8035906020019184602083028401116401000000008311171561033257600080fd5b919080806020026020016040519081016040528093929190818152602001838360200280828437600081840152601f19601f820116905080830192505050505050509192919290505050611adf565b6040518080602001828103825283818151815260200191508051906020019060200280838360005b838110156103c45780820151818401526020810190506103a9565b505050509050019250505060405180910390f35b3480156103e457600080fd5b506104bd60048036036101608110156103fc57600080fd5b81019080803573ffffffffffffffffffffffffffffffffffffffff169060200190929190803573ffffffffffffffffffffffffffffffffffffffff169060200190929190803590602001909291908035906020019092919080359060200190929190803573ffffffffffffffffffffffffffffffffffffffff16906020019092919080359060200190929190803515159060200190929190803560ff1690602001909291908035906020019092919080359060200190929190505050611b15565b604051808381526020018281526020019250505060405180910390f35b610564600480360360c08110156104f057600080fd5b81019080803573ffffffffffffffffffffffffffffffffffffffff169060200190929190803590602001909291908035906020019092919080359060200190929190803573ffffffffffffffffffffffffffffffffffffffff16906020019092919080359060200190929190505050611c9b565b60405180848152602001838152602001828152602001935050505060405180910390f35b34801561059457600080fd5b5061064a600480360360a08110156105ab57600080fd5b810190808035906020019092919080359060200190929190803590602001906401000000008111156105dc57600080fd5b8201836020820111156105ee57600080fd5b8035906020019184602083028401116401000000008311171561061057600080fd5b9091929391929390803573ffffffffffffffffffffffffffffffffffffffff16906020019092919080359060200190929190505050611ff9565b6040518080602001828103825283818151815260200191508051906020019060200280838360005b8381101561068d578082015181840152602081019050610672565b505050509050019250505060405180910390f35b3480156106ad57600080fd5b50610738600480360360c08110156106c457600080fd5b81019080803573ffffffffffffffffffffffffffffffffffffffff169060200190929190803590602001909291908035906020019092919080359060200190929190803573ffffffffffffffffffffffffffffffffffffffff1690602001909291908035906020019092919050505061226e565b6040518082815260200191505060405180910390f35b34801561075a57600080fd5b50610763612482565b604051808273ffffffffffffffffffffffffffffffffffffffff1673ffffffffffffffffffffffffffffffffffffffff16815260200191505060405180910390f35b3480156107b157600080fd5b50610867600480360360a08110156107c857600080fd5b810190808035906020019092919080359060200190929190803590602001906401000000008111156107f957600080fd5b82018360208201111561080b57600080fd5b8035906020019184602083028401116401000000008311171561082d57600080fd5b9091929391929390803573ffffffffffffffffffffffffffffffffffffffff169060200190929190803590602001909291905050506124a8565b005b34801561087557600080fd5b506108b66004803603606081101561088c57600080fd5b81019080803590602001909291908035906020019092919080359060200190929190505050612860565b6040518082815260200191505060405180910390f35b3480156108d857600080fd5b5061098e600480360360a08110156108ef57600080fd5b8101908080359060200190929190803590602001909291908035906020019064010000000081111561092057600080fd5b82018360208201111561093257600080fd5b8035906020019184602083028401116401000000008311171561095457600080fd5b9091929391929390803573ffffffffffffffffffffffffffffffffffffffff16906020019092919080359060200190929190505050612876565b6040518080602001828103825283818151815260200191508051906020019060200280838360005b838110156109d15780820151818401526020810190506109b6565b505050509050019250505060405180910390f35b3480156109f157600080fd5b50610a7c600480360360c0811015610a0857600080fd5b81019080803573ffffffffffffffffffffffffffffffffffffffff169060200190929190803590602001909291908035906020019092919080359060200190929190803573ffffffffffffffffffffffffffffffffffffffff16906020019092919080359060200190929190505050612ae8565b604051808381526020018281526020019250505060405180910390f35b348015610aa557600080fd5b50610b5b600480360360a0811015610abc57600080fd5b81019080803590602001909291908035906020019092919080359060200190640100000000811115610aed57600080fd5b820183602082011115610aff57600080fd5b80359060200191846020830284011164010000000083111715610b2157600080fd5b9091929391929390803573ffffffffffffffffffffffffffffffffffffffff16906020019092919080359060200190929190505050612c49565b005b348015610b6957600080fd5b50610c226004803603610140811015610b8157600080fd5b81019080803573ffffffffffffffffffffffffffffffffffffffff169060200190929190803590602001909291908035906020019092919080359060200190929190803573ffffffffffffffffffffffffffffffffffffffff16906020019092919080359060200190929190803515159060200190929190803560ff1690602001909291908035906020019092919080359060200190929190505050613086565b604051808381526020018281526020019250505060405180910390f35b348015610c4b57600080fd5b50610c8c60048036036060811015610c6257600080fd5b8101908080359060200190929190803590602001909291908035906020019092919050505061322c565b6040518082815260200191505060405180910390f35b348015610cae57600080fd5b50610d59600480360360e0811015610cc557600080fd5b81019080803573ffffffffffffffffffffffffffffffffffffffff169060200190929190803573ffffffffffffffffffffffffffffffffffffffff169060200190929190803590602001909291908035906020019092919080359060200190929190803573ffffffffffffffffffffffffffffffffffffffff16906020019092919080359060200190929190505050613242565b604051808381526020018281526020019250505060405180910390f35b348015610d8257600080fd5b50610d8b6135c4565b604051808273ffffffffffffffffffffffffffffffffffffffff1673ffffffffffffffffffffffffffffffffffffffff16815260200191505060405180910390f35b348015610dd957600080fd5b50610e9a60048036036040811015610df057600080fd5b810190808035906020019092919080359060200190640100000000811115610e1757600080fd5b820183602082011115610e2957600080fd5b80359060200191846020830284011164010000000083111715610e4b57600080fd5b919080806020026020016040519081016040528093929190818152602001838360200280828437600081840152601f19601f8201169050808301925050505050505091929192905050506135e9565b6040518080602001828103825283818151815260200191508051906020019060200280838360005b83811015610edd578082015181840152602081019050610ec2565b505050509050019250505060405180910390f35b610f9c60048036036080811015610f0757600080fd5b810190808035906020019092919080359060200190640100000000811115610f2e57600080fd5b820183602082011115610f4057600080fd5b80359060200191846020830284011164010000000083111715610f6257600080fd5b9091929391929390803573ffffffffffffffffffffffffffffffffffffffff1690602001909291908035906020019092919050505061361f565b6040518080602001828103825283818151815260200191508051906020019060200280838360005b83811015610fdf578082015181840152602081019050610fc4565b505050509050019250505060405180910390f35b348015610fff57600080fd5b506110b8600480360361014081101561101757600080fd5b81019080803573ffffffffffffffffffffffffffffffffffffffff169060200190929190803590602001909291908035906020019092919080359060200190929190803573ffffffffffffffffffffffffffffffffffffffff16906020019092919080359060200190929190803515159060200190929190803560ff1690602001909291908035906020019092919080359060200190929190505050613acb565b6040518082815260200191505060405180910390f35b611179600480360360808110156110e457600080fd5b81019080803590602001909291908035906020019064010000000081111561110b57600080fd5b82018360208201111561111d57600080fd5b8035906020019184602083028401116401000000008311171561113f57600080fd5b9091929391929390803573ffffffffffffffffffffffffffffffffffffffff16906020019092919080359060200190929190505050613c68565b6040518080602001828103825283818151815260200191508051906020019060200280838360005b838110156111bc5780820151818401526020810190506111a1565b505050509050019250505060405180910390f35b3480156111dc57600080fd5b5061129260048036036101008110156111f457600080fd5b81019080803573ffffffffffffffffffffffffffffffffffffffff169060200190929190803573ffffffffffffffffffffffffffffffffffffffff16906020019092919080359060200190929190803590602001909291908035906020019092919080359060200190929190803573ffffffffffffffffffffffffffffffffffffffff1690602001909291908035906020019092919050505061414e565b60405180848152602001838152602001828152602001935050505060405180910390f35b3480156112c257600080fd5b50611378600480360360a08110156112d957600080fd5b8101908080359060200190929190803590602001909291908035906020019064010000000081111561130a57600080fd5b82018360208201111561131c57600080fd5b8035906020019184602083028401116401000000008311171561133e57600080fd5b9091929391929390803573ffffffffffffffffffffffffffffffffffffffff169060200190929190803590602001909291905050506142f4565b6040518080602001828103825283818151815260200191508051906020019060200280838360005b838110156113bb5780820151818401526020810190506113a0565b505050509050019250505060405180910390f35b3480156113db57600080fd5b50611491600480360360a08110156113f257600080fd5b8101908080359060200190929190803590602001909291908035906020019064010000000081111561142357600080fd5b82018360208201111561143557600080fd5b8035906020019184602083028401116401000000008311171561145757600080fd5b9091929391929390803573ffffffffffffffffffffffffffffffffffffffff1690602001909291908035906020019092919050505061471c565b6040518080602001828103825283818151815260200191508051906020019060200280838360005b838110156114d45780820151818401526020810190506114b9565b505050509050019250505060405180910390f35b60006114f5848484614b47565b90509392505050565b8042811015611575576040517f08c379a00000000000000000000000000000000000000000000000000000000081526004018080602001828103825260148152602001807f5669706572526f757465723a204558504952454400000000000000000000000081525060200191505060405180910390fd5b600160009054906101000a900473ffffffffffffffffffffffffffffffffffffffff1673ffffffffffffffffffffffffffffffffffffffff16858560008181106115bb57fe5b9050602002013573ffffffffffffffffffffffffffffffffffffffff1673ffffffffffffffffffffffffffffffffffffffff1614611661576040517f08c379a00000000000000000000000000000000000000000000000000000000081526004018080602001828103825260198152602001807f5669706572526f757465723a20494e56414c49445f504154480000000000000081525060200191505060405180910390fd5b6000349050600160009054906101000a900473ffffffffffffffffffffffffffffffffffffffff1673ffffffffffffffffffffffffffffffffffffffff1663d0e30db0826040518263ffffffff1660e01b81526004016000604051808303818588803b1580156116d057600080fd5b505af11580156116e4573d6000803e3d6000fd5b5050505050600160009054906101000a900473ffffffffffffffffffffffffffffffffffffffff1673ffffffffffffffffffffffffffffffffffffffff1663a9059cbb6117a56000809054906101000a900473ffffffffffffffffffffffffffffffffffffffff168989600081811061175957fe5b9050602002013573ffffffffffffffffffffffffffffffffffffffff168a8a600181811061178357fe5b9050602002013573ffffffffffffffffffffffffffffffffffffffff16614c77565b836040518363ffffffff1660e01b8152600401808373ffffffffffffffffffffffffffffffffffffffff1673ffffffffffffffffffffffffffffffffffffffff16815260200182815260200192505050602060405180830381600087803b15801561180f57600080fd5b505af1158015611823573d6000803e3d6000fd5b505050506040513d602081101561183957600080fd5b810190808051906020019092919050505061185057fe5b600086866001898990500381811061186457fe5b9050602002013573ffffffffffffffffffffffffffffffffffffffff1673ffffffffffffffffffffffffffffffffffffffff166370a08231866040518263ffffffff1660e01b8152600401808273ffffffffffffffffffffffffffffffffffffffff1673ffffffffffffffffffffffffffffffffffffffff16815260200191505060206040518083038186803b1580156118fd57600080fd5b505afa158015611911573d6000803e3d6000fd5b505050506040513d602081101561192757600080fd5b81019080805190602001909291905050509050611985878780806020026020016040519081016040528093929190818152602001838360200280828437600081840152601f19601f8201169050808301925050505050505086614dd2565b87611a7e82898960018c8c90500381811061199c57fe5b9050602002013573ffffffffffffffffffffffffffffffffffffffff1673ffffffffffffffffffffffffffffffffffffffff166370a08231896040518263ffffffff1660e01b8152600401808273ffffffffffffffffffffffffffffffffffffffff1673ffffffffffffffffffffffffffffffffffffffff16815260200191505060206040518083038186803b158015611a3557600080fd5b505afa158015611a49573d6000803e3d6000fd5b505050506040513d6020811015611a5f57600080fd5b810190808051906020019092919050505061523490919063ffffffff16565b1015611ad5576040517f08c379a00000000000000000000000000000000000000000000000000000000081526004018080602001828103825260278152602001806167a56027913960400191505060405180910390fd5b5050505050505050565b6060611b0d6000809054906101000a900473ffffffffffffffffffffffffffffffffffffffff1684846152bd565b905092915050565b6000806000611b466000809054906101000a900473ffffffffffffffffffffffffffffffffffffffff168f8f614c77565b9050600087611b55578c611b77565b7fffffffffffffffffffffffffffffffffffffffffffffffffffffffffffffffff5b90508173ffffffffffffffffffffffffffffffffffffffff1663d505accf3330848d8c8c8c6040518863ffffffff1660e01b8152600401808873ffffffffffffffffffffffffffffffffffffffff1673ffffffffffffffffffffffffffffffffffffffff1681526020018773ffffffffffffffffffffffffffffffffffffffff1673ffffffffffffffffffffffffffffffffffffffff1681526020018681526020018581526020018460ff1660ff168152602001838152602001828152602001975050505050505050600060405180830381600087803b158015611c5a57600080fd5b505af1158015611c6e573d6000803e3d6000fd5b50505050611c818f8f8f8f8f8f8f613242565b809450819550505050509b509b9950505050505050505050565b60008060008342811015611d17576040517f08c379a00000000000000000000000000000000000000000000000000000000081526004018080602001828103825260148152602001807f5669706572526f757465723a204558504952454400000000000000000000000081525060200191505060405180910390fd5b611d478a600160009054906101000a900473ffffffffffffffffffffffffffffffffffffffff168b348c8c615426565b80945081955050506000611d9f6000809054906101000a900473ffffffffffffffffffffffffffffffffffffffff168c600160009054906101000a900473ffffffffffffffffffffffffffffffffffffffff16614c77565b9050611dad8b3383886157dd565b600160009054906101000a900473ffffffffffffffffffffffffffffffffffffffff1673ffffffffffffffffffffffffffffffffffffffff1663d0e30db0856040518263ffffffff1660e01b81526004016000604051808303818588803b158015611e1757600080fd5b505af1158015611e2b573d6000803e3d6000fd5b5050505050600160009054906101000a900473ffffffffffffffffffffffffffffffffffffffff1673ffffffffffffffffffffffffffffffffffffffff1663a9059cbb82866040518363ffffffff1660e01b8152600401808373ffffffffffffffffffffffffffffffffffffffff1673ffffffffffffffffffffffffffffffffffffffff16815260200182815260200192505050602060405180830381600087803b158015611ed957600080fd5b505af1158015611eed573d6000803e3d6000fd5b505050506040513d6020811015611f0357600080fd5b8101908080519060200190929190505050611f1a57fe5b8073ffffffffffffffffffffffffffffffffffffffff16636a627842886040518263ffffffff1660e01b8152600401808273ffffffffffffffffffffffffffffffffffffffff1673ffffffffffffffffffffffffffffffffffffffff168152602001915050602060405180830381600087803b158015611f9957600080fd5b505af1158015611fad573d6000803e3d6000fd5b505050506040513d6020811015611fc357600080fd5b8101908080519060200190929190505050925083341115611feb57611fea338534036159ee565b5b505096509650969350505050565b60608142811015612072576040517f08c379a00000000000000000000000000000000000000000000000000000000081526004018080602001828103825260148152602001807f5669706572526f757465723a204558504952454400000000000000000000000081525060200191505060405180910390fd5b6120df6000809054906101000a900473ffffffffffffffffffffffffffffffffffffffff1689888880806020026020016040519081016040528093929190818152602001838360200280828437600081840152601f19601f82011690508083019250505050505050615b36565b915086826001845103815181106120f257fe5b60200260200101511015612151576040517f08c379a00000000000000000000000000000000000000000000000000000000081526004018080602001828103825260278152602001806167a56027913960400191505060405180910390fd5b6122178686600081811061216157fe5b9050602002013573ffffffffffffffffffffffffffffffffffffffff16336121fd6000809054906101000a900473ffffffffffffffffffffffffffffffffffffffff168a8a60008181106121b157fe5b9050602002013573ffffffffffffffffffffffffffffffffffffffff168b8b60018181106121db57fe5b9050602002013573ffffffffffffffffffffffffffffffffffffffff16614c77565b8560008151811061220a57fe5b60200260200101516157dd565b61226382878780806020026020016040519081016040528093929190818152602001838360200280828437600081840152601f19601f8201169050808301925050505050505086615c97565b509695505050505050565b600081428110156122e7576040517f08c379a00000000000000000000000000000000000000000000000000000000081526004018080602001828103825260148152602001807f5669706572526f757465723a204558504952454400000000000000000000000081525060200191505060405180910390fd5b61231888600160009054906101000a900473ffffffffffffffffffffffffffffffffffffffff168989893089613242565b9050809250506123e088858a73ffffffffffffffffffffffffffffffffffffffff166370a08231306040518263ffffffff1660e01b8152600401808273ffffffffffffffffffffffffffffffffffffffff1673ffffffffffffffffffffffffffffffffffffffff16815260200191505060206040518083038186803b1580156123a057600080fd5b505afa1580156123b4573d6000803e3d6000fd5b505050506040513d60208110156123ca57600080fd5b8101908080519060200190929190505050615f2d565b600160009054906101000a900473ffffffffffffffffffffffffffffffffffffffff1673ffffffffffffffffffffffffffffffffffffffff16632e1a7d4d836040518263ffffffff1660e01b815260040180828152602001915050600060405180830381600087803b15801561245557600080fd5b505af1158015612469573d6000803e3d6000fd5b5050505061247784836159ee565b509695505050505050565b600160009054906101000a900473ffffffffffffffffffffffffffffffffffffffff1681565b804281101561251f576040517f08c379a00000000000000000000000000000000000000000000000000000000081526004018080602001828103825260148152602001807f5669706572526f757465723a204558504952454400000000000000000000000081525060200191505060405180910390fd5b6125d18585600081811061252f57fe5b9050602002013573ffffffffffffffffffffffffffffffffffffffff16336125cb6000809054906101000a900473ffffffffffffffffffffffffffffffffffffffff168989600081811061257f57fe5b9050602002013573ffffffffffffffffffffffffffffffffffffffff168a8a60018181106125a957fe5b9050602002013573ffffffffffffffffffffffffffffffffffffffff16614c77565b8a6157dd565b60008585600188889050038181106125e557fe5b9050602002013573ffffffffffffffffffffffffffffffffffffffff1673ffffffffffffffffffffffffffffffffffffffff166370a08231856040518263ffffffff1660e01b8152600401808273ffffffffffffffffffffffffffffffffffffffff1673ffffffffffffffffffffffffffffffffffffffff16815260200191505060206040518083038186803b15801561267e57600080fd5b505afa158015612692573d6000803e3d6000fd5b505050506040513d60208110156126a857600080fd5b81019080805190602001909291905050509050612706868680806020026020016040519081016040528093929190818152602001838360200280828437600081840152601f19601f8201169050808301925050505050505085614dd2565b866127ff82888860018b8b90500381811061271d57fe5b9050602002013573ffffffffffffffffffffffffffffffffffffffff1673ffffffffffffffffffffffffffffffffffffffff166370a08231886040518263ffffffff1660e01b8152600401808273ffffffffffffffffffffffffffffffffffffffff1673ffffffffffffffffffffffffffffffffffffffff16815260200191505060206040518083038186803b1580156127b657600080fd5b505afa1580156127ca573d6000803e3d6000fd5b505050506040513d60208110156127e057600080fd5b810190808051906020019092919050505061523490919063ffffffff16565b1015612856576040517f08c379a00000000000000000000000000000000000000000000000000000000081526004018080602001828103825260278152602001806167a56027913960400191505060405180910390fd5b5050505050505050565b600061286d848484616109565b90509392505050565b606081428110156128ef576040517f08c379a00000000000000000000000000000000000000000000000000000000081526004018080602001828103825260148152602001807f5669706572526f757465723a204558504952454400000000000000000000000081525060200191505060405180910390fd5b61295c6000809054906101000a900473ffffffffffffffffffffffffffffffffffffffff1689888880806020026020016040519081016040528093929190818152602001838360200280828437600081840152601f19601f820116905080830192505050505050506152bd565b9150868260008151811061296c57fe5b602002602001015111156129cb576040517f08c379a00000000000000000000000000000000000000000000000000000000081526004018080602001828103825260238152602001806166e56023913960400191505060405180910390fd5b612a91868660008181106129db57fe5b9050602002013573ffffffffffffffffffffffffffffffffffffffff1633612a776000809054906101000a900473ffffffffffffffffffffffffffffffffffffffff168a8a6000818110612a2b57fe5b9050602002013573ffffffffffffffffffffffffffffffffffffffff168b8b6001818110612a5557fe5b9050602002013573ffffffffffffffffffffffffffffffffffffffff16614c77565b85600081518110612a8457fe5b60200260200101516157dd565b612add82878780806020026020016040519081016040528093929190818152602001838360200280828437600081840152601f19601f8201169050808301925050505050505086615c97565b509695505050505050565b6000808242811015612b62576040517f08c379a00000000000000000000000000000000000000000000000000000000081526004018080602001828103825260148152602001807f5669706572526f757465723a204558504952454400000000000000000000000081525060200191505060405180910390fd5b612b9389600160009054906101000a900473ffffffffffffffffffffffffffffffffffffffff168a8a8a308a613242565b8093508194505050612ba6898685615f2d565b600160009054906101000a900473ffffffffffffffffffffffffffffffffffffffff1673ffffffffffffffffffffffffffffffffffffffff16632e1a7d4d836040518263ffffffff1660e01b815260040180828152602001915050600060405180830381600087803b158015612c1b57600080fd5b505af1158015612c2f573d6000803e3d6000fd5b50505050612c3d85836159ee565b50965096945050505050565b8042811015612cc0576040517f08c379a00000000000000000000000000000000000000000000000000000000081526004018080602001828103825260148152602001807f5669706572526f757465723a204558504952454400000000000000000000000081525060200191505060405180910390fd5b600160009054906101000a900473ffffffffffffffffffffffffffffffffffffffff1673ffffffffffffffffffffffffffffffffffffffff16858560018888905003818110612d0b57fe5b9050602002013573ffffffffffffffffffffffffffffffffffffffff1673ffffffffffffffffffffffffffffffffffffffff1614612db1576040517f08c379a00000000000000000000000000000000000000000000000000000000081526004018080602001828103825260198152602001807f5669706572526f757465723a20494e56414c49445f504154480000000000000081525060200191505060405180910390fd5b612e6385856000818110612dc157fe5b9050602002013573ffffffffffffffffffffffffffffffffffffffff1633612e5d6000809054906101000a900473ffffffffffffffffffffffffffffffffffffffff1689896000818110612e1157fe5b9050602002013573ffffffffffffffffffffffffffffffffffffffff168a8a6001818110612e3b57fe5b9050602002013573ffffffffffffffffffffffffffffffffffffffff16614c77565b8a6157dd565b612eae858580806020026020016040519081016040528093929190818152602001838360200280828437600081840152601f19601f8201169050808301925050505050505030614dd2565b6000600160009054906101000a900473ffffffffffffffffffffffffffffffffffffffff1673ffffffffffffffffffffffffffffffffffffffff166370a08231306040518263ffffffff1660e01b8152600401808273ffffffffffffffffffffffffffffffffffffffff1673ffffffffffffffffffffffffffffffffffffffff16815260200191505060206040518083038186803b158015612f4f57600080fd5b505afa158015612f63573d6000803e3d6000fd5b505050506040513d6020811015612f7957600080fd5b8101908080519060200190929190505050905086811015612fe5576040517f08c379a00000000000000000000000000000000000000000000000000000000081526004018080602001828103825260278152602001806167a56027913960400191505060405180910390fd5b600160009054906101000a900473ffffffffffffffffffffffffffffffffffffffff1673ffffffffffffffffffffffffffffffffffffffff16632e1a7d4d826040518263ffffffff1660e01b815260040180828152602001915050600060405180830381600087803b15801561305a57600080fd5b505af115801561306e573d6000803e3d6000fd5b5050505061307c84826159ee565b5050505050505050565b60008060006130d96000809054906101000a900473ffffffffffffffffffffffffffffffffffffffff168e600160009054906101000a900473ffffffffffffffffffffffffffffffffffffffff16614c77565b90506000876130e8578c61310a565b7fffffffffffffffffffffffffffffffffffffffffffffffffffffffffffffffff5b90508173ffffffffffffffffffffffffffffffffffffffff1663d505accf3330848d8c8c8c6040518863ffffffff1660e01b8152600401808873ffffffffffffffffffffffffffffffffffffffff1673ffffffffffffffffffffffffffffffffffffffff1681526020018773ffffffffffffffffffffffffffffffffffffffff1673ffffffffffffffffffffffffffffffffffffffff1681526020018681526020018581526020018460ff1660ff168152602001838152602001828152602001975050505050505050600060405180830381600087803b1580156131ed57600080fd5b505af1158015613201573d6000803e3d6000fd5b505050506132138e8e8e8e8e8e612ae8565b809450819550505050509a509a98505050505050505050565b6000613239848484616246565b90509392505050565b60008082428110156132bc576040517f08c379a00000000000000000000000000000000000000000000000000000000081526004018080602001828103825260148152602001807f5669706572526f757465723a204558504952454400000000000000000000000081525060200191505060405180910390fd5b60006132ea6000809054906101000a900473ffffffffffffffffffffffffffffffffffffffff168c8c614c77565b90508073ffffffffffffffffffffffffffffffffffffffff166323b872dd33838c6040518463ffffffff1660e01b8152600401808473ffffffffffffffffffffffffffffffffffffffff1673ffffffffffffffffffffffffffffffffffffffff1681526020018373ffffffffffffffffffffffffffffffffffffffff1673ffffffffffffffffffffffffffffffffffffffff1681526020018281526020019350505050602060405180830381600087803b1580156133a757600080fd5b505af11580156133bb573d6000803e3d6000fd5b505050506040513d60208110156133d157600080fd5b8101908080519060200190929190505050506000808273ffffffffffffffffffffffffffffffffffffffff166389afcb44896040518263ffffffff1660e01b8152600401808273ffffffffffffffffffffffffffffffffffffffff1673ffffffffffffffffffffffffffffffffffffffff1681526020019150506040805180830381600087803b15801561346457600080fd5b505af1158015613478573d6000803e3d6000fd5b505050506040513d604081101561348e57600080fd5b8101908080519060200190929190805190602001909291905050509150915060006134b98e8e61632a565b5090508073ffffffffffffffffffffffffffffffffffffffff168e73ffffffffffffffffffffffffffffffffffffffff16146134f65781836134f9565b82825b80975081985050508a87101561355a576040517f08c379a00000000000000000000000000000000000000000000000000000000081526004018080602001828103825260228152602001806168306022913960400191505060405180910390fd5b898610156135b3576040517f08c379a00000000000000000000000000000000000000000000000000000000081526004018080602001828103825260228152602001806167cc6022913960400191505060405180910390fd5b505050505097509795505050505050565b6000809054906101000a900473ffffffffffffffffffffffffffffffffffffffff1681565b60606136176000809054906101000a900473ffffffffffffffffffffffffffffffffffffffff168484615b36565b905092915050565b60608142811015613698576040517f08c379a00000000000000000000000000000000000000000000000000000000081526004018080602001828103825260148152602001807f5669706572526f757465723a204558504952454400000000000000000000000081525060200191505060405180910390fd5b600160009054906101000a900473ffffffffffffffffffffffffffffffffffffffff1673ffffffffffffffffffffffffffffffffffffffff16868660008181106136de57fe5b9050602002013573ffffffffffffffffffffffffffffffffffffffff1673ffffffffffffffffffffffffffffffffffffffff1614613784576040517f08c379a00000000000000000000000000000000000000000000000000000000081526004018080602001828103825260198152602001807f5669706572526f757465723a20494e56414c49445f504154480000000000000081525060200191505060405180910390fd5b6137f16000809054906101000a900473ffffffffffffffffffffffffffffffffffffffff1634888880806020026020016040519081016040528093929190818152602001838360200280828437600081840152601f19601f82011690508083019250505050505050615b36565b9150868260018451038151811061380457fe5b60200260200101511015613863576040517f08c379a00000000000000000000000000000000000000000000000000000000081526004018080602001828103825260278152602001806167a56027913960400191505060405180910390fd5b600160009054906101000a900473ffffffffffffffffffffffffffffffffffffffff1673ffffffffffffffffffffffffffffffffffffffff1663d0e30db0836000815181106138ae57fe5b60200260200101516040518263ffffffff1660e01b81526004016000604051808303818588803b1580156138e157600080fd5b505af11580156138f5573d6000803e3d6000fd5b5050505050600160009054906101000a900473ffffffffffffffffffffffffffffffffffffffff1673ffffffffffffffffffffffffffffffffffffffff1663a9059cbb6139b66000809054906101000a900473ffffffffffffffffffffffffffffffffffffffff168989600081811061396a57fe5b9050602002013573ffffffffffffffffffffffffffffffffffffffff168a8a600181811061399457fe5b9050602002013573ffffffffffffffffffffffffffffffffffffffff16614c77565b846000815181106139c357fe5b60200260200101516040518363ffffffff1660e01b8152600401808373ffffffffffffffffffffffffffffffffffffffff1673ffffffffffffffffffffffffffffffffffffffff16815260200182815260200192505050602060405180830381600087803b158015613a3457600080fd5b505af1158015613a48573d6000803e3d6000fd5b505050506040513d6020811015613a5e57600080fd5b8101908080519060200190929190505050613a7557fe5b613ac182878780806020026020016040519081016040528093929190818152602001838360200280828437600081840152601f19601f8201169050808301925050505050505086615c97565b5095945050505050565b600080613b1c6000809054906101000a900473ffffffffffffffffffffffffffffffffffffffff168d600160009054906101000a900473ffffffffffffffffffffffffffffffffffffffff16614c77565b9050600086613b2b578b613b4d565b7fffffffffffffffffffffffffffffffffffffffffffffffffffffffffffffffff5b90508173ffffffffffffffffffffffffffffffffffffffff1663d505accf3330848c8b8b8b6040518863ffffffff1660e01b8152600401808873ffffffffffffffffffffffffffffffffffffffff1673ffffffffffffffffffffffffffffffffffffffff1681526020018773ffffffffffffffffffffffffffffffffffffffff1673ffffffffffffffffffffffffffffffffffffffff1681526020018681526020018581526020018460ff1660ff168152602001838152602001828152602001975050505050505050600060405180830381600087803b158015613c3057600080fd5b505af1158015613c44573d6000803e3d6000fd5b50505050613c568d8d8d8d8d8d61226e565b925050509a9950505050505050505050565b60608142811015613ce1576040517f08c379a00000000000000000000000000000000000000000000000000000000081526004018080602001828103825260148152602001807f5669706572526f757465723a204558504952454400000000000000000000000081525060200191505060405180910390fd5b600160009054906101000a900473ffffffffffffffffffffffffffffffffffffffff1673ffffffffffffffffffffffffffffffffffffffff1686866000818110613d2757fe5b9050602002013573ffffffffffffffffffffffffffffffffffffffff1673ffffffffffffffffffffffffffffffffffffffff1614613dcd576040517f08c379a00000000000000000000000000000000000000000000000000000000081526004018080602001828103825260198152602001807f5669706572526f757465723a20494e56414c49445f504154480000000000000081525060200191505060405180910390fd5b613e3a6000809054906101000a900473ffffffffffffffffffffffffffffffffffffffff1688888880806020026020016040519081016040528093929190818152602001838360200280828437600081840152601f19601f820116905080830192505050505050506152bd565b91503482600081518110613e4a57fe5b60200260200101511115613ea9576040517f08c379a00000000000000000000000000000000000000000000000000000000081526004018080602001828103825260238152602001806166e56023913960400191505060405180910390fd5b600160009054906101000a900473ffffffffffffffffffffffffffffffffffffffff1673ffffffffffffffffffffffffffffffffffffffff1663d0e30db083600081518110613ef457fe5b60200260200101516040518263ffffffff1660e01b81526004016000604051808303818588803b158015613f2757600080fd5b505af1158015613f3b573d6000803e3d6000fd5b5050505050600160009054906101000a900473ffffffffffffffffffffffffffffffffffffffff1673ffffffffffffffffffffffffffffffffffffffff1663a9059cbb613ffc6000809054906101000a900473ffffffffffffffffffffffffffffffffffffffff1689896000818110613fb057fe5b9050602002013573ffffffffffffffffffffffffffffffffffffffff168a8a6001818110613fda57fe5b9050602002013573ffffffffffffffffffffffffffffffffffffffff16614c77565b8460008151811061400957fe5b60200260200101516040518363ffffffff1660e01b8152600401808373ffffffffffffffffffffffffffffffffffffffff1673ffffffffffffffffffffffffffffffffffffffff16815260200182815260200192505050602060405180830381600087803b15801561407a57600080fd5b505af115801561408e573d6000803e3d6000fd5b505050506040513d60208110156140a457600080fd5b81019080805190602001909291905050506140bb57fe5b61410782878780806020026020016040519081016040528093929190818152602001838360200280828437600081840152601f19601f8201169050808301925050505050505086615c97565b8160008151811061411457fe5b602002602001015134111561414457614143338360008151811061413457fe5b602002602001015134036159ee565b5b5095945050505050565b600080600083428110156141ca576040517f08c379a00000000000000000000000000000000000000000000000000000000081526004018080602001828103825260148152602001807f5669706572526f757465723a204558504952454400000000000000000000000081525060200191505060405180910390fd5b6141d88c8c8c8c8c8c615426565b8094508195505050600061420e6000809054906101000a900473ffffffffffffffffffffffffffffffffffffffff168e8e614c77565b905061421c8d3383886157dd565b6142288c3383876157dd565b8073ffffffffffffffffffffffffffffffffffffffff16636a627842886040518263ffffffff1660e01b8152600401808273ffffffffffffffffffffffffffffffffffffffff1673ffffffffffffffffffffffffffffffffffffffff168152602001915050602060405180830381600087803b1580156142a757600080fd5b505af11580156142bb573d6000803e3d6000fd5b505050506040513d60208110156142d157600080fd5b810190808051906020019092919050505092505050985098509895505050505050565b6060814281101561436d576040517f08c379a00000000000000000000000000000000000000000000000000000000081526004018080602001828103825260148152602001807f5669706572526f757465723a204558504952454400000000000000000000000081525060200191505060405180910390fd5b600160009054906101000a900473ffffffffffffffffffffffffffffffffffffffff1673ffffffffffffffffffffffffffffffffffffffff168686600189899050038181106143b857fe5b9050602002013573ffffffffffffffffffffffffffffffffffffffff1673ffffffffffffffffffffffffffffffffffffffff161461445e576040517f08c379a00000000000000000000000000000000000000000000000000000000081526004018080602001828103825260198152602001807f5669706572526f757465723a20494e56414c49445f504154480000000000000081525060200191505060405180910390fd5b6144cb6000809054906101000a900473ffffffffffffffffffffffffffffffffffffffff1689888880806020026020016040519081016040528093929190818152602001838360200280828437600081840152601f19601f820116905080830192505050505050506152bd565b915086826000815181106144db57fe5b6020026020010151111561453a576040517f08c379a00000000000000000000000000000000000000000000000000000000081526004018080602001828103825260238152602001806166e56023913960400191505060405180910390fd5b6146008686600081811061454a57fe5b9050602002013573ffffffffffffffffffffffffffffffffffffffff16336145e66000809054906101000a900473ffffffffffffffffffffffffffffffffffffffff168a8a600081811061459a57fe5b9050602002013573ffffffffffffffffffffffffffffffffffffffff168b8b60018181106145c457fe5b9050602002013573ffffffffffffffffffffffffffffffffffffffff16614c77565b856000815181106145f357fe5b60200260200101516157dd565b61464c82878780806020026020016040519081016040528093929190818152602001838360200280828437600081840152601f19601f8201169050808301925050505050505030615c97565b600160009054906101000a900473ffffffffffffffffffffffffffffffffffffffff1673ffffffffffffffffffffffffffffffffffffffff16632e1a7d4d8360018551038151811061469a57fe5b60200260200101516040518263ffffffff1660e01b815260040180828152602001915050600060405180830381600087803b1580156146d857600080fd5b505af11580156146ec573d6000803e3d6000fd5b50505050614711848360018551038151811061470457fe5b60200260200101516159ee565b509695505050505050565b60608142811015614795576040517f08c379a00000000000000000000000000000000000000000000000000000000081526004018080602001828103825260148152602001807f5669706572526f757465723a204558504952454400000000000000000000000081525060200191505060405180910390fd5b600160009054906101000a900473ffffffffffffffffffffffffffffffffffffffff1673ffffffffffffffffffffffffffffffffffffffff168686600189899050038181106147e057fe5b9050602002013573ffffffffffffffffffffffffffffffffffffffff1673ffffffffffffffffffffffffffffffffffffffff1614614886576040517f08c379a00000000000000000000000000000000000000000000000000000000081526004018080602001828103825260198152602001807f5669706572526f757465723a20494e56414c49445f504154480000000000000081525060200191505060405180910390fd5b6148f36000809054906101000a900473ffffffffffffffffffffffffffffffffffffffff1689888880806020026020016040519081016040528093929190818152602001838360200280828437600081840152601f19601f82011690508083019250505050505050615b36565b9150868260018451038151811061490657fe5b60200260200101511015614965576040517f08c379a00000000000000000000000000000000000000000000000000000000081526004018080602001828103825260278152602001806167a56027913960400191505060405180910390fd5b614a2b8686600081811061497557fe5b9050602002013573ffffffffffffffffffffffffffffffffffffffff1633614a116000809054906101000a900473ffffffffffffffffffffffffffffffffffffffff168a8a60008181106149c557fe5b9050602002013573ffffffffffffffffffffffffffffffffffffffff168b8b60018181106149ef57fe5b9050602002013573ffffffffffffffffffffffffffffffffffffffff16614c77565b85600081518110614a1e57fe5b60200260200101516157dd565b614a7782878780806020026020016040519081016040528093929190818152602001838360200280828437600081840152601f19601f8201169050808301925050505050505030615c97565b600160009054906101000a900473ffffffffffffffffffffffffffffffffffffffff1673ffffffffffffffffffffffffffffffffffffffff16632e1a7d4d83600185510381518110614ac557fe5b60200260200101516040518263ffffffff1660e01b815260040180828152602001915050600060405180830381600087803b158015614b0357600080fd5b505af1158015614b17573d6000803e3d6000fd5b50505050614b3c8483600185510381518110614b2f57fe5b60200260200101516159ee565b509695505050505050565b6000808411614ba1576040517f08c379a00000000000000000000000000000000000000000000000000000000081526004018080602001828103825260278152602001806167086027913960400191505060405180910390fd5b600083118015614bb15750600082115b614c06576040517f08c379a00000000000000000000000000000000000000000000000000000000081526004018080602001828103825260248152602001806167506024913960400191505060405180910390fd5b6000614c1d6103e6866164a190919063ffffffff16565b90506000614c3484836164a190919063ffffffff16565b90506000614c5f83614c516103e8896164a190919063ffffffff16565b61652790919063ffffffff16565b9050808281614c6a57fe5b0493505050509392505050565b6000806000614c86858561632a565b91509150858282604051602001808373ffffffffffffffffffffffffffffffffffffffff1673ffffffffffffffffffffffffffffffffffffffff1660601b81526014018273ffffffffffffffffffffffffffffffffffffffff1673ffffffffffffffffffffffffffffffffffffffff1660601b8152601401925050506040516020818303038152906040528051906020012060405160200180807fff000000000000000000000000000000000000000000000000000000000000008152506001018373ffffffffffffffffffffffffffffffffffffffff1673ffffffffffffffffffffffffffffffffffffffff1660601b8152601401828152602001807fd0d4c4cd0848c93cb4fd1f498d7013ee6bfb25783ea21593d5834f5d250ece66815250602001925050506040516020818303038152906040528051906020012060001c925050509392505050565b60005b600183510381101561522f57600080848381518110614df057fe5b6020026020010151856001850181518110614e0757fe5b6020026020010151915091506000614e1f838361632a565b5090506000614e506000809054906101000a900473ffffffffffffffffffffffffffffffffffffffff168585614c77565b90506000806000808473ffffffffffffffffffffffffffffffffffffffff16630902f1ac6040518163ffffffff1660e01b815260040160606040518083038186803b158015614e9e57600080fd5b505afa158015614eb2573d6000803e3d6000fd5b505050506040513d6060811015614ec857600080fd5b81019080805190602001909291908051906020019092919080519060200190929190505050506dffffffffffffffffffffffffffff1691506dffffffffffffffffffffffffffff1691506000808773ffffffffffffffffffffffffffffffffffffffff168a73ffffffffffffffffffffffffffffffffffffffff1614614f4f578284614f52565b83835b91509150615020828b73ffffffffffffffffffffffffffffffffffffffff166370a082318a6040518263ffffffff1660e01b8152600401808273ffffffffffffffffffffffffffffffffffffffff1673ffffffffffffffffffffffffffffffffffffffff16815260200191505060206040518083038186803b158015614fd757600080fd5b505afa158015614feb573d6000803e3d6000fd5b505050506040513d602081101561500157600080fd5b810190808051906020019092919050505061523490919063ffffffff16565b955061502d868383614b47565b9450505050506000808573ffffffffffffffffffffffffffffffffffffffff168873ffffffffffffffffffffffffffffffffffffffff161461507157826000615075565b6000835b91509150600060028c51038a1061508c578a6150cf565b6150ce6000809054906101000a900473ffffffffffffffffffffffffffffffffffffffff16898e60028e01815181106150c157fe5b6020026020010151614c77565b5b90508573ffffffffffffffffffffffffffffffffffffffff1663022c0d9f84848460006040519080825280601f01601f1916602001820160405280156151245781602001600182028038833980820191505090505b506040518563ffffffff1660e01b8152600401808581526020018481526020018373ffffffffffffffffffffffffffffffffffffffff1673ffffffffffffffffffffffffffffffffffffffff16815260200180602001828103825283818151815260200191508051906020019080838360005b838110156151b2578082015181840152602081019050615197565b50505050905090810190601f1680156151df5780820380516001836020036101000a031916815260200191505b5095505050505050600060405180830381600087803b15801561520157600080fd5b505af1158015615215573d6000803e3d6000fd5b505050505050505050505050508080600101915050614dd5565b505050565b6000828211156152ac576040517f08c379a000000000000000000000000000000000000000000000000000000000815260040180806020018281038252601e8152602001807f536166654d6174683a207375627472616374696f6e206f766572666c6f77000081525060200191505060405180910390fd5b600082840390508091505092915050565b6060600282511015615337576040517f08c379a000000000000000000000000000000000000000000000000000000000815260040180806020018281038252601a8152602001807f56697065724c6962726172793a20494e56414c49445f5041544800000000000081525060200191505060405180910390fd5b81516040519080825280602002602001820160405280156153675781602001602082028038833980820191505090505b509050828160018351038151811061537b57fe5b6020026020010181815250506000600183510390505b600081111561541e576000806153d1878660018603815181106153b057fe5b60200260200101518786815181106153c457fe5b60200260200101516165af565b915091506153f38484815181106153e457fe5b60200260200101518383616109565b84600185038151811061540257fe5b6020026020010181815250505050808060019003915050615391565b509392505050565b600080600073ffffffffffffffffffffffffffffffffffffffff166000809054906101000a900473ffffffffffffffffffffffffffffffffffffffff1673ffffffffffffffffffffffffffffffffffffffff1663e6a439058a8a6040518363ffffffff1660e01b8152600401808373ffffffffffffffffffffffffffffffffffffffff1673ffffffffffffffffffffffffffffffffffffffff1681526020018273ffffffffffffffffffffffffffffffffffffffff1673ffffffffffffffffffffffffffffffffffffffff1681526020019250505060206040518083038186803b15801561551357600080fd5b505afa158015615527573d6000803e3d6000fd5b505050506040513d602081101561553d57600080fd5b810190808051906020019092919050505073ffffffffffffffffffffffffffffffffffffffff16141561567b576000809054906101000a900473ffffffffffffffffffffffffffffffffffffffff1673ffffffffffffffffffffffffffffffffffffffff1663c9c6539689896040518363ffffffff1660e01b8152600401808373ffffffffffffffffffffffffffffffffffffffff1673ffffffffffffffffffffffffffffffffffffffff1681526020018273ffffffffffffffffffffffffffffffffffffffff1673ffffffffffffffffffffffffffffffffffffffff16815260200192505050602060405180830381600087803b15801561563e57600080fd5b505af1158015615652573d6000803e3d6000fd5b505050506040513d602081101561566857600080fd5b8101908080519060200190929190505050505b6000806156aa6000809054906101000a900473ffffffffffffffffffffffffffffffffffffffff168b8b6165af565b915091506000821480156156be5750600081145b156156d257878780945081955050506157d0565b60006156df898484616246565b90508781116157505785811015615741576040517f08c379a00000000000000000000000000000000000000000000000000000000081526004018080602001828103825260228152602001806167cc6022913960400191505060405180910390fd5b888180955081965050506157ce565b600061575d898486616246565b90508981111561576957fe5b878110156157c2576040517f08c379a00000000000000000000000000000000000000000000000000000000081526004018080602001828103825260228152602001806168306022913960400191505060405180910390fd5b80898096508197505050505b505b5050965096945050505050565b600060608573ffffffffffffffffffffffffffffffffffffffff166323b872dd868686604051602401808473ffffffffffffffffffffffffffffffffffffffff1673ffffffffffffffffffffffffffffffffffffffff1681526020018373ffffffffffffffffffffffffffffffffffffffff1673ffffffffffffffffffffffffffffffffffffffff16815260200182815260200193505050506040516020818303038152906040529060e01b6020820180517bffffffffffffffffffffffffffffffffffffffffffffffffffffffff83818316178352505050506040518082805190602001908083835b602083106158ea57805182526020820191506020810190506020830392506158c7565b6001836020036101000a0380198251168184511680821785525050505050509050019150506000604051808303816000865af19150503d806000811461594c576040519150601f19603f3d011682016040523d82523d6000602084013e615951565b606091505b50915091508180156159915750600081511480615990575080806020019051602081101561597e57600080fd5b81019080805190602001909291905050505b5b6159e6576040517f08c379a00000000000000000000000000000000000000000000000000000000081526004018080602001828103825260318152602001806167746031913960400191505060405180910390fd5b505050505050565b60008273ffffffffffffffffffffffffffffffffffffffff168260006040519080825280601f01601f191660200182016040528015615a3c5781602001600182028038833980820191505090505b506040518082805190602001908083835b60208310615a705780518252602082019150602081019050602083039250615a4d565b6001836020036101000a03801982511681845116808217855250505050505090500191505060006040518083038185875af1925050503d8060008114615ad2576040519150601f19603f3d011682016040523d82523d6000602084013e615ad7565b606091505b5050905080615b31576040517f08c379a00000000000000000000000000000000000000000000000000000000081526004018080602001828103825260348152602001806168a76034913960400191505060405180910390fd5b505050565b6060600282511015615bb0576040517f08c379a000000000000000000000000000000000000000000000000000000000815260040180806020018281038252601a8152602001807f56697065724c6962726172793a20494e56414c49445f5041544800000000000081525060200191505060405180910390fd5b8151604051908082528060200260200182016040528015615be05781602001602082028038833980820191505090505b5090508281600081518110615bf157fe5b60200260200101818152505060005b6001835103811015615c8f57600080615c4387868581518110615c1f57fe5b6020026020010151876001870181518110615c3657fe5b60200260200101516165af565b91509150615c65848481518110615c5657fe5b60200260200101518383614b47565b846001850181518110615c7457fe5b60200260200101818152505050508080600101915050615c00565b509392505050565b60005b6001835103811015615f2757600080848381518110615cb557fe5b6020026020010151856001850181518110615ccc57fe5b6020026020010151915091506000615ce4838361632a565b5090506000876001860181518110615cf857fe5b602002602001015190506000808373ffffffffffffffffffffffffffffffffffffffff168673ffffffffffffffffffffffffffffffffffffffff1614615d4057826000615d44565b6000835b91509150600060028a51038810615d5b5788615d9e565b615d9d6000809054906101000a900473ffffffffffffffffffffffffffffffffffffffff16878c60028c0181518110615d9057fe5b6020026020010151614c77565b5b9050615dcc6000809054906101000a900473ffffffffffffffffffffffffffffffffffffffff168888614c77565b73ffffffffffffffffffffffffffffffffffffffff1663022c0d9f84848460006040519080825280601f01601f191660200182016040528015615e1e5781602001600182028038833980820191505090505b506040518563ffffffff1660e01b8152600401808581526020018481526020018373ffffffffffffffffffffffffffffffffffffffff1673ffffffffffffffffffffffffffffffffffffffff16815260200180602001828103825283818151815260200191508051906020019080838360005b83811015615eac578082015181840152602081019050615e91565b50505050905090810190601f168015615ed95780820380516001836020036101000a031916815260200191505b5095505050505050600060405180830381600087803b158015615efb57600080fd5b505af1158015615f0f573d6000803e3d6000fd5b50505050505050505050508080600101915050615c9a565b50505050565b600060608473ffffffffffffffffffffffffffffffffffffffff1663a9059cbb8585604051602401808373ffffffffffffffffffffffffffffffffffffffff1673ffffffffffffffffffffffffffffffffffffffff168152602001828152602001925050506040516020818303038152906040529060e01b6020820180517bffffffffffffffffffffffffffffffffffffffffffffffffffffffff83818316178352505050506040518082805190602001908083835b602083106160065780518252602082019150602081019050602083039250615fe3565b6001836020036101000a0380198251168184511680821785525050505050509050019150506000604051808303816000865af19150503d8060008114616068576040519150601f19603f3d011682016040523d82523d6000602084013e61606d565b606091505b50915091508180156160ad57506000815114806160ac575080806020019051602081101561609a57600080fd5b81019080805190602001909291905050505b5b616102576040517f08c379a000000000000000000000000000000000000000000000000000000000815260040180806020018281038252602d815260200180616852602d913960400191505060405180910390fd5b5050505050565b6000808411616163576040517f08c379a000000000000000000000000000000000000000000000000000000000815260040180806020018281038252602881526020018061687f6028913960400191505060405180910390fd5b6000831180156161735750600082115b6161c8576040517f08c379a00000000000000000000000000000000000000000000000000000000081526004018080602001828103825260248152602001806167506024913960400191505060405180910390fd5b60006161f16103e86161e387876164a190919063ffffffff16565b6164a190919063ffffffff16565b9050600061621c6103e661620e888761523490919063ffffffff16565b6164a190919063ffffffff16565b905061623b600182848161622c57fe5b0461652790919063ffffffff16565b925050509392505050565b60008084116162a0576040517f08c379a000000000000000000000000000000000000000000000000000000000815260040180806020018281038252602181526020018061672f6021913960400191505060405180910390fd5b6000831180156162b05750600082115b616305576040517f08c379a00000000000000000000000000000000000000000000000000000000081526004018080602001828103825260248152602001806167506024913960400191505060405180910390fd5b8261631983866164a190919063ffffffff16565b8161632057fe5b0490509392505050565b6000808273ffffffffffffffffffffffffffffffffffffffff168473ffffffffffffffffffffffffffffffffffffffff1614156163b2576040517f08c379a00000000000000000000000000000000000000000000000000000000081526004018080602001828103825260218152602001806167ee6021913960400191505060405180910390fd5b8273ffffffffffffffffffffffffffffffffffffffff168473ffffffffffffffffffffffffffffffffffffffff16106163ec5782846163ef565b83835b8092508193505050600073ffffffffffffffffffffffffffffffffffffffff168273ffffffffffffffffffffffffffffffffffffffff16141561649a576040517f08c379a000000000000000000000000000000000000000000000000000000000815260040180806020018281038252601a8152602001807f56697065724c6962726172793a205a45524f5f4144445245535300000000000081525060200191505060405180910390fd5b9250929050565b6000808314156164b45760009050616521565b60008284029050828482816164c557fe5b041461651c576040517f08c379a000000000000000000000000000000000000000000000000000000000815260040180806020018281038252602181526020018061680f6021913960400191505060405180910390fd5b809150505b92915050565b6000808284019050838110156165a5576040517f08c379a000000000000000000000000000000000000000000000000000000000815260040180806020018281038252601b8152602001807f536166654d6174683a206164646974696f6e206f766572666c6f77000000000081525060200191505060405180910390fd5b8091505092915050565b60008060006165be858561632a565b5090506165cc868686614c77565b506000806165db888888614c77565b73ffffffffffffffffffffffffffffffffffffffff16630902f1ac6040518163ffffffff1660e01b815260040160606040518083038186803b15801561662057600080fd5b505afa158015616634573d6000803e3d6000fd5b505050506040513d606081101561664a57600080fd5b81019080805190602001909291908051906020019092919080519060200190929190505050506dffffffffffffffffffffffffffff1691506dffffffffffffffffffffffffffff1691508273ffffffffffffffffffffffffffffffffffffffff168773ffffffffffffffffffffffffffffffffffffffff16146166ce5780826166d1565b81815b809550819650505050505093509391505056fe5669706572526f757465723a204558434553534956455f494e5055545f414d4f554e5456697065724c6962726172793a20494e53554646494349454e545f494e5055545f414d4f554e5456697065724c6962726172793a20494e53554646494349454e545f414d4f554e5456697065724c6962726172793a20494e53554646494349454e545f4c49515549444954595472616e7366657248656c7065723a3a7472616e7366657246726f6d3a207472616e7366657246726f6d206661696c65645669706572526f757465723a20494e53554646494349454e545f4f55545055545f414d4f554e545669706572526f757465723a20494e53554646494349454e545f425f414d4f554e5456697065724c6962726172793a204944454e544943414c5f414444524553534553536166654d6174683a206d756c7469706c69636174696f6e206f766572666c6f775669706572526f757465723a20494e53554646494349454e545f415f414d4f554e545472616e7366657248656c7065723a3a736166655472616e736665723a207472616e73666572206661696c656456697065724c6962726172793a20494e53554646494349454e545f4f55545055545f414d4f554e545472616e7366657248656c7065723a3a736166655472616e736665724154503a20415450207472616e73666572206661696c6564a265627a7a723158208b5f49ca4cbb3cd2087c838f9ed8ab6498c0b3c112129a8c3c43adaa2e2641c064736f6c63430005110032",
  "source": "// pragma solidity ^0.6.6;\npragma solidity ^0.5.16;\n\nimport './interfaces/IViperFactory.sol';\nimport './libraries/TransferHelper.sol';\nimport './interfaces/IViperRouter01.sol';\nimport './libraries/ViperLibrary.sol';\nimport './libraries/SafeMath.sol';\nimport './interfaces/IERC20.sol';\nimport './interfaces/IWATP.sol';\n\ncontract ViperRouter is IViperRouter01 {\n    using SafeMath for uint;\n\n    address public factory;\n    address public WATP;\n\n    modifier ensure(uint deadline) {\n        require(deadline >= block.timestamp, 'ViperRouter: EXPIRED');\n        _;\n    }\n\n    constructor(address _factory, address _WATP) public {\n        factory = _factory;\n        WATP = _WATP;\n    }\n\n    function() external payable {\n        assert(msg.sender == WATP); // only accept ATP via fallback from the WATP contract\n    }\n\n    // **** ADD LIQUIDITY ****\n    function _addLiquidity(\n        address tokenA,\n        address tokenB,\n        uint amountADesired,\n        uint amountBDesired,\n        uint amountAMin,\n        uint amountBMin\n    ) internal returns (uint amountA, uint amountB) {\n        // create the pair if it doesn't exist yet\n        if (IViperFactory(factory).getPair(tokenA, tokenB) == address(0)) {\n            IViperFactory(factory).createPair(tokenA, tokenB);\n        }\n        (uint reserveA, uint reserveB) = ViperLibrary.getReserves(factory, tokenA, tokenB);\n        if (reserveA == 0 && reserveB == 0) {\n            (amountA, amountB) = (amountADesired, amountBDesired);\n        } else {\n            uint amountBOptimal = ViperLibrary.quote(amountADesired, reserveA, reserveB);\n            if (amountBOptimal <= amountBDesired) {\n                require(amountBOptimal >= amountBMin, 'ViperRouter: INSUFFICIENT_B_AMOUNT');\n                (amountA, amountB) = (amountADesired, amountBOptimal);\n            } else {\n                uint amountAOptimal = ViperLibrary.quote(amountBDesired, reserveB, reserveA);\n                assert(amountAOptimal <= amountADesired);\n                require(amountAOptimal >= amountAMin, 'ViperRouter: INSUFFICIENT_A_AMOUNT');\n                (amountA, amountB) = (amountAOptimal, amountBDesired);\n            }\n        }\n    }\n    function addLiquidity(\n        address tokenA,\n        address tokenB,\n        uint amountADesired,\n        uint amountBDesired,\n        uint amountAMin,\n        uint amountBMin,\n        address to,\n        uint deadline\n    ) external ensure(deadline) returns (uint amountA, uint amountB, uint liquidity) {\n        (amountA, amountB) = _addLiquidity(tokenA, tokenB, amountADesired, amountBDesired, amountAMin, amountBMin);\n        address pair = ViperLibrary.pairFor(factory, tokenA, tokenB);\n        TransferHelper.safeTransferFrom(tokenA, msg.sender, pair, amountA);\n        TransferHelper.safeTransferFrom(tokenB, msg.sender, pair, amountB);\n        liquidity = IViperPair(pair).mint(to);\n    }\n    function addLiquidityATP(\n        address token,\n        uint amountTokenDesired,\n        uint amountTokenMin,\n        uint amountATPMin,\n        address to,\n        uint deadline\n    ) external payable ensure(deadline) returns (uint amountToken, uint amountATP, uint liquidity) {\n        (amountToken, amountATP) = _addLiquidity(\n            token,\n            WATP,\n            amountTokenDesired,\n            msg.value,\n            amountTokenMin,\n            amountATPMin\n        );\n        address pair = ViperLibrary.pairFor(factory, token, WATP);\n        TransferHelper.safeTransferFrom(token, msg.sender, pair, amountToken);\n        IWATP(WATP).deposit.value(amountATP)();\n        assert(IWATP(WATP).transfer(pair, amountATP));\n        liquidity = IViperPair(pair).mint(to);\n        // refund dust ATP, if any\n        if (msg.value > amountATP) TransferHelper.safeTransferATP(msg.sender, msg.value - amountATP);\n    }\n\n    // **** REMOVE LIQUIDITY ****\n    function removeLiquidity(\n        address tokenA,\n        address tokenB,\n        uint liquidity,\n        uint amountAMin,\n        uint amountBMin,\n        address to,\n        uint deadline\n    ) public ensure(deadline) returns (uint amountA, uint amountB) {\n        address pair = ViperLibrary.pairFor(factory, tokenA, tokenB);\n        IViperPair(pair).transferFrom(msg.sender, pair, liquidity); // send liquidity to pair\n        (uint amount0, uint amount1) = IViperPair(pair).burn(to);\n        (address token0,) = ViperLibrary.sortTokens(tokenA, tokenB);\n        (amountA, amountB) = tokenA == token0 ? (amount0, amount1) : (amount1, amount0);\n        require(amountA >= amountAMin, 'ViperRouter: INSUFFICIENT_A_AMOUNT');\n        require(amountB >= amountBMin, 'ViperRouter: INSUFFICIENT_B_AMOUNT');\n    }\n    function removeLiquidityATP(\n        address token,\n        uint liquidity,\n        uint amountTokenMin,\n        uint amountATPMin,\n        address to,\n        uint deadline\n    ) public ensure(deadline) returns (uint amountToken, uint amountATP) {\n        (amountToken, amountATP) = removeLiquidity(\n            token,\n            WATP,\n            liquidity,\n            amountTokenMin,\n            amountATPMin,\n            address(this),\n            deadline\n        );\n        TransferHelper.safeTransfer(token, to, amountToken);\n        IWATP(WATP).withdraw(amountATP);\n        TransferHelper.safeTransferATP(to, amountATP);\n    }\n    function removeLiquidityWithPermit(\n        address tokenA,\n        address tokenB,\n        uint liquidity,\n        uint amountAMin,\n        uint amountBMin,\n        address to,\n        uint deadline,\n        bool approveMax, uint8 v, bytes32 r, bytes32 s\n    ) external returns (uint amountA, uint amountB) {\n        address pair = ViperLibrary.pairFor(factory, tokenA, tokenB);\n        uint value = approveMax ? uint(-1) : liquidity;\n        IViperPair(pair).permit(msg.sender, address(this), value, deadline, v, r, s);\n        (amountA, amountB) = removeLiquidity(tokenA, tokenB, liquidity, amountAMin, amountBMin, to, deadline);\n    }\n    function removeLiquidityATPWithPermit(\n        address token,\n        uint liquidity,\n        uint amountTokenMin,\n        uint amountATPMin,\n        address to,\n        uint deadline,\n        bool approveMax, uint8 v, bytes32 r, bytes32 s\n    ) external returns (uint amountToken, uint amountATP) {\n        address pair = ViperLibrary.pairFor(factory, token, WATP);\n        uint value = approveMax ? uint(-1) : liquidity;\n        IViperPair(pair).permit(msg.sender, address(this), value, deadline, v, r, s);\n        (amountToken, amountATP) = removeLiquidityATP(token, liquidity, amountTokenMin, amountATPMin, to, deadline);\n    }\n\n    // **** REMOVE LIQUIDITY (supporting fee-on-transfer tokens) ****\n    function removeLiquidityATPSupportingFeeOnTransferTokens(\n        address token,\n        uint liquidity,\n        uint amountTokenMin,\n        uint amountATPMin,\n        address to,\n        uint deadline\n    ) public ensure(deadline) returns (uint amountATP) {\n        (, amountATP) = removeLiquidity(\n            token,\n            WATP,\n            liquidity,\n            amountTokenMin,\n            amountATPMin,\n            address(this),\n            deadline\n        );\n        TransferHelper.safeTransfer(token, to, IERC20(token).balanceOf(address(this)));\n        IWATP(WATP).withdraw(amountATP);\n        TransferHelper.safeTransferATP(to, amountATP);\n    }\n    function removeLiquidityATPWithPermitSupportingFeeOnTransferTokens(\n        address token,\n        uint liquidity,\n        uint amountTokenMin,\n        uint amountATPMin,\n        address to,\n        uint deadline,\n        bool approveMax, uint8 v, bytes32 r, bytes32 s\n    ) external returns (uint amountATP) {\n        address pair = ViperLibrary.pairFor(factory, token, WATP);\n        uint value = approveMax ? uint(-1) : liquidity;\n        IViperPair(pair).permit(msg.sender, address(this), value, deadline, v, r, s);\n        amountATP = removeLiquidityATPSupportingFeeOnTransferTokens(\n            token, liquidity, amountTokenMin, amountATPMin, to, deadline\n        );\n    }\n\n    // **** SWAP ****\n    // requires the initial amount to have already been sent to the first pair\n    function _swap(uint[] memory amounts, address[] memory path, address _to) internal {\n        for (uint i; i < path.length - 1; i++) {\n            (address input, address output) = (path[i], path[i + 1]);\n            (address token0,) = ViperLibrary.sortTokens(input, output);\n            uint amountOut = amounts[i + 1];\n            (uint amount0Out, uint amount1Out) = input == token0 ? (uint(0), amountOut) : (amountOut, uint(0));\n            address to = i < path.length - 2 ? ViperLibrary.pairFor(factory, output, path[i + 2]) : _to;\n            IViperPair(ViperLibrary.pairFor(factory, input, output)).swap(\n                amount0Out, amount1Out, to, new bytes(0)\n            );\n        }\n    }\n    function swapExactTokensForTokens(\n        uint amountIn,\n        uint amountOutMin,\n        address[] calldata path,\n        address to,\n        uint deadline\n    ) external ensure(deadline) returns (uint[] memory amounts) {\n        amounts = ViperLibrary.getAmountsOut(factory, amountIn, path);\n        require(amounts[amounts.length - 1] >= amountOutMin, 'ViperRouter: INSUFFICIENT_OUTPUT_AMOUNT');\n        TransferHelper.safeTransferFrom(\n            path[0], msg.sender, ViperLibrary.pairFor(factory, path[0], path[1]), amounts[0]\n        );\n        _swap(amounts, path, to);\n    }\n    function swapTokensForExactTokens(\n        uint amountOut,\n        uint amountInMax,\n        address[] calldata path,\n        address to,\n        uint deadline\n    ) external ensure(deadline) returns (uint[] memory amounts) {\n        amounts = ViperLibrary.getAmountsIn(factory, amountOut, path);\n        require(amounts[0] <= amountInMax, 'ViperRouter: EXCESSIVE_INPUT_AMOUNT');\n        TransferHelper.safeTransferFrom(\n            path[0], msg.sender, ViperLibrary.pairFor(factory, path[0], path[1]), amounts[0]\n        );\n        _swap(amounts, path, to);\n    }\n    function swapExactATPForTokens(uint amountOutMin, address[] calldata path, address to, uint deadline)\n        external\n        payable\n        ensure(deadline)\n        returns (uint[] memory amounts)\n    {\n        require(path[0] == WATP, 'ViperRouter: INVALID_PATH');\n        amounts = ViperLibrary.getAmountsOut(factory, msg.value, path);\n        require(amounts[amounts.length - 1] >= amountOutMin, 'ViperRouter: INSUFFICIENT_OUTPUT_AMOUNT');\n        IWATP(WATP).deposit.value(amounts[0])();\n        assert(IWATP(WATP).transfer(ViperLibrary.pairFor(factory, path[0], path[1]), amounts[0]));\n        _swap(amounts, path, to);\n    }\n    function swapTokensForExactATP(uint amountOut, uint amountInMax, address[] calldata path, address to, uint deadline)\n        external\n        ensure(deadline)\n        returns (uint[] memory amounts)\n    {\n        require(path[path.length - 1] == WATP, 'ViperRouter: INVALID_PATH');\n        amounts = ViperLibrary.getAmountsIn(factory, amountOut, path);\n        require(amounts[0] <= amountInMax, 'ViperRouter: EXCESSIVE_INPUT_AMOUNT');\n        TransferHelper.safeTransferFrom(\n            path[0], msg.sender, ViperLibrary.pairFor(factory, path[0], path[1]), amounts[0]\n        );\n        _swap(amounts, path, address(this));\n        IWATP(WATP).withdraw(amounts[amounts.length - 1]);\n        TransferHelper.safeTransferATP(to, amounts[amounts.length - 1]);\n    }\n    function swapExactTokensForATP(uint amountIn, uint amountOutMin, address[] calldata path, address to, uint deadline)\n        external\n        ensure(deadline)\n        returns (uint[] memory amounts)\n    {\n        require(path[path.length - 1] == WATP, 'ViperRouter: INVALID_PATH');\n        amounts = ViperLibrary.getAmountsOut(factory, amountIn, path);\n        require(amounts[amounts.length - 1] >= amountOutMin, 'ViperRouter: INSUFFICIENT_OUTPUT_AMOUNT');\n        TransferHelper.safeTransferFrom(\n            path[0], msg.sender, ViperLibrary.pairFor(factory, path[0], path[1]), amounts[0]\n        );\n        _swap(amounts, path, address(this));\n        IWATP(WATP).withdraw(amounts[amounts.length - 1]);\n        TransferHelper.safeTransferATP(to, amounts[amounts.length - 1]);\n    }\n    function swapATPForExactTokens(uint amountOut, address[] calldata path, address to, uint deadline)\n        external\n        payable\n        ensure(deadline)\n        returns (uint[] memory amounts)\n    {\n        require(path[0] == WATP, 'ViperRouter: INVALID_PATH');\n        amounts = ViperLibrary.getAmountsIn(factory, amountOut, path);\n        require(amounts[0] <= msg.value, 'ViperRouter: EXCESSIVE_INPUT_AMOUNT');\n        IWATP(WATP).deposit.value(amounts[0])();\n        assert(IWATP(WATP).transfer(ViperLibrary.pairFor(factory, path[0], path[1]), amounts[0]));\n        _swap(amounts, path, to);\n        // refund dust ATP, if any\n        if (msg.value > amounts[0]) TransferHelper.safeTransferATP(msg.sender, msg.value - amounts[0]);\n    }\n\n    // **** SWAP (supporting fee-on-transfer tokens) ****\n    // requires the initial amount to have already been sent to the first pair\n    function _swapSupportingFeeOnTransferTokens(address[] memory path, address _to) internal {\n        for (uint i; i < path.length - 1; i++) {\n            (address input, address output) = (path[i], path[i + 1]);\n            (address token0,) = ViperLibrary.sortTokens(input, output);\n            IViperPair pair = IViperPair(ViperLibrary.pairFor(factory, input, output));\n            uint amountInput;\n            uint amountOutput;\n            { // scope to avoid stack too deep errors\n            (uint reserve0, uint reserve1,) = pair.getReserves();\n            (uint reserveInput, uint reserveOutput) = input == token0 ? (reserve0, reserve1) : (reserve1, reserve0);\n            amountInput = IERC20(input).balanceOf(address(pair)).sub(reserveInput);\n            amountOutput = ViperLibrary.getAmountOut(amountInput, reserveInput, reserveOutput);\n            }\n            (uint amount0Out, uint amount1Out) = input == token0 ? (uint(0), amountOutput) : (amountOutput, uint(0));\n            address to = i < path.length - 2 ? ViperLibrary.pairFor(factory, output, path[i + 2]) : _to;\n            pair.swap(amount0Out, amount1Out, to, new bytes(0));\n        }\n    }\n    function swapExactTokensForTokensSupportingFeeOnTransferTokens(\n        uint amountIn,\n        uint amountOutMin,\n        address[] calldata path,\n        address to,\n        uint deadline\n    ) external ensure(deadline) {\n        TransferHelper.safeTransferFrom(\n            path[0], msg.sender, ViperLibrary.pairFor(factory, path[0], path[1]), amountIn\n        );\n        uint balanceBefore = IERC20(path[path.length - 1]).balanceOf(to);\n        _swapSupportingFeeOnTransferTokens(path, to);\n        require(\n            IERC20(path[path.length - 1]).balanceOf(to).sub(balanceBefore) >= amountOutMin,\n            'ViperRouter: INSUFFICIENT_OUTPUT_AMOUNT'\n        );\n    }\n    function swapExactATPForTokensSupportingFeeOnTransferTokens(\n        uint amountOutMin,\n        address[] calldata path,\n        address to,\n        uint deadline\n    )\n        external\n        payable\n        ensure(deadline)\n    {\n        require(path[0] == WATP, 'ViperRouter: INVALID_PATH');\n        uint amountIn = msg.value;\n        IWATP(WATP).deposit.value(amountIn)();\n        assert(IWATP(WATP).transfer(ViperLibrary.pairFor(factory, path[0], path[1]), amountIn));\n        uint balanceBefore = IERC20(path[path.length - 1]).balanceOf(to);\n        _swapSupportingFeeOnTransferTokens(path, to);\n        require(\n            IERC20(path[path.length - 1]).balanceOf(to).sub(balanceBefore) >= amountOutMin,\n            'ViperRouter: INSUFFICIENT_OUTPUT_AMOUNT'\n        );\n    }\n    function swapExactTokensForATPSupportingFeeOnTransferTokens(\n        uint amountIn,\n        uint amountOutMin,\n        address[] calldata path,\n        address to,\n        uint deadline\n    )\n        external\n        ensure(deadline)\n    {\n        require(path[path.length - 1] == WATP, 'ViperRouter: INVALID_PATH');\n        TransferHelper.safeTransferFrom(\n            path[0], msg.sender, ViperLibrary.pairFor(factory, path[0], path[1]), amountIn\n        );\n        _swapSupportingFeeOnTransferTokens(path, address(this));\n        uint amountOut = IERC20(WATP).balanceOf(address(this));\n        require(amountOut >= amountOutMin, 'ViperRouter: INSUFFICIENT_OUTPUT_AMOUNT');\n        IWATP(WATP).withdraw(amountOut);\n        TransferHelper.safeTransferATP(to, amountOut);\n    }\n\n    // **** LIBRARY FUNCTIONS ****\n    function quote(uint amountA, uint reserveA, uint reserveB) public pure returns (uint amountB) {\n        return ViperLibrary.quote(amountA, reserveA, reserveB);\n    }\n\n    function getAmountOut(uint amountIn, uint reserveIn, uint reserveOut)\n        public\n        pure\n        returns (uint amountOut)\n    {\n        return ViperLibrary.getAmountOut(amountIn, reserveIn, reserveOut);\n    }\n\n    function getAmountIn(uint amountOut, uint reserveIn, uint reserveOut)\n        public\n        pure\n        returns (uint amountIn)\n    {\n        return ViperLibrary.getAmountIn(amountOut, reserveIn, reserveOut);\n    }\n\n    function getAmountsOut(uint amountIn, address[] memory path)\n        public\n        view\n        returns (uint[] memory amounts)\n    {\n        return ViperLibrary.getAmountsOut(factory, amountIn, path);\n    }\n\n    function getAmountsIn(uint amountOut, address[] memory path)\n        public\n        view\n        returns (uint[] memory amounts)\n    {\n        return ViperLibrary.getAmountsIn(factory, amountOut, path);\n    }\n}",
  "sourcePath": "/Users/mingcai/Documents/GitHub/ViperSwap/contracts/ViperRouter.sol",
  "compiler": {
    "name": "solc",
    "version": "0.5.17+commit.d19bba13.Emscripten.clang"
  },
  "schemaVersion": "3.0.18",
  "updatedAt": "2021-11-15T04:37:29.279Z",
  "devdoc": {
    "methods": {}
  },
  "userdoc": {
    "methods": {}
  }
}