{
  "contractName": "ViperMigrator",
  "abi": [
    {
      "inputs": [
        {
          "internalType": "address",
          "name": "_factoryV1",
          "type": "address"
        },
        {
          "internalType": "address",
          "name": "_router",
          "type": "address"
        }
      ],
      "payable": false,
      "stateMutability": "nonpayable",
      "type": "constructor"
    },
    {
      "payable": true,
      "stateMutability": "payable",
      "type": "fallback"
    },
    {
      "constant": false,
      "inputs": [
        {
          "internalType": "address",
          "name": "token",
          "type": "address"
        },
        {
          "internalType": "uint256",
          "name": "amountTokenMin",
          "type": "uint256"
        },
        {
          "internalType": "uint256",
          "name": "amountATPMin",
          "type": "uint256"
        },
        {
          "internalType": "address",
          "name": "to",
          "type": "address"
        },
        {
          "internalType": "uint256",
          "name": "deadline",
          "type": "uint256"
        }
      ],
      "name": "migrate",
      "outputs": [],
      "payable": false,
      "stateMutability": "nonpayable",
      "type": "function"
    }
  ],
  "bytecode": "0x608060405234801561001057600080fd5b50604051610d0d380380610d0d8339818101604052604081101561003357600080fd5b810190808051906020019092919080519060200190929190505050816000806101000a81548173ffffffffffffffffffffffffffffffffffffffff021916908373ffffffffffffffffffffffffffffffffffffffff16021790555080600160006101000a81548173ffffffffffffffffffffffffffffffffffffffff021916908373ffffffffffffffffffffffffffffffffffffffff1602179055505050610c2d806100e06000396000f3fe60806040526004361061001e5760003560e01c8063b7df1d2514610020575b005b34801561002c57600080fd5b506100ad600480360360a081101561004357600080fd5b81019080803573ffffffffffffffffffffffffffffffffffffffff1690602001909291908035906020019092919080359060200190929190803573ffffffffffffffffffffffffffffffffffffffff169060200190929190803590602001909291905050506100af565b005b60008060009054906101000a900473ffffffffffffffffffffffffffffffffffffffff1673ffffffffffffffffffffffffffffffffffffffff166306f2bf62876040518263ffffffff1660e01b8152600401808273ffffffffffffffffffffffffffffffffffffffff1673ffffffffffffffffffffffffffffffffffffffff16815260200191505060206040518083038186803b15801561014f57600080fd5b505afa158015610163573d6000803e3d6000fd5b505050506040513d602081101561017957600080fd5b8101908080519060200190929190505050905060008173ffffffffffffffffffffffffffffffffffffffff166370a08231336040518263ffffffff1660e01b8152600401808273ffffffffffffffffffffffffffffffffffffffff1673ffffffffffffffffffffffffffffffffffffffff16815260200191505060206040518083038186803b15801561020b57600080fd5b505afa15801561021f573d6000803e3d6000fd5b505050506040513d602081101561023557600080fd5b810190808051906020019092919050505090508173ffffffffffffffffffffffffffffffffffffffff166323b872dd3330846040518463ffffffff1660e01b8152600401808473ffffffffffffffffffffffffffffffffffffffff1673ffffffffffffffffffffffffffffffffffffffff1681526020018373ffffffffffffffffffffffffffffffffffffffff1673ffffffffffffffffffffffffffffffffffffffff1681526020018281526020019350505050602060405180830381600087803b15801561030357600080fd5b505af1158015610317573d6000803e3d6000fd5b505050506040513d602081101561032d57600080fd5b81019080805190602001909291905050506103b0576040517f08c379a00000000000000000000000000000000000000000000000000000000081526004018080602001828103825260148152602001807f5452414e534645525f46524f4d5f4641494c454400000000000000000000000081525060200191505060405180910390fd5b6000808373ffffffffffffffffffffffffffffffffffffffff1663f88bf15a846001807fffffffffffffffffffffffffffffffffffffffffffffffffffffffffffffffff6040518563ffffffff1660e01b8152600401808581526020018481526020018381526020018281526020019450505050506040805180830381600087803b15801561043e57600080fd5b505af1158015610452573d6000803e3d6000fd5b505050506040513d604081101561046857600080fd5b810190808051906020019092919080519060200190929190505050915091506104b489600160009054906101000a900473ffffffffffffffffffffffffffffffffffffffff168361066c565b600080600160009054906101000a900473ffffffffffffffffffffffffffffffffffffffff1673ffffffffffffffffffffffffffffffffffffffff166338616999858d868e8e8e8e6040518863ffffffff1660e01b8152600401808773ffffffffffffffffffffffffffffffffffffffff1673ffffffffffffffffffffffffffffffffffffffff1681526020018681526020018581526020018481526020018373ffffffffffffffffffffffffffffffffffffffff1673ffffffffffffffffffffffffffffffffffffffff16815260200182815260200196505050505050506060604051808303818588803b1580156105ac57600080fd5b505af11580156105c0573d6000803e3d6000fd5b50505050506040513d60608110156105d757600080fd5b81019080805190602001909291908051906020019092919080519060200190929190505050509150915081831115610649576106378b600160009054906101000a900473ffffffffffffffffffffffffffffffffffffffff16600061066c565b6106448b33848603610848565b61065f565b8084111561065e5761065d33828603610a24565b5b5b5050505050505050505050565b600060608473ffffffffffffffffffffffffffffffffffffffff1663095ea7b38585604051602401808373ffffffffffffffffffffffffffffffffffffffff1673ffffffffffffffffffffffffffffffffffffffff168152602001828152602001925050506040516020818303038152906040529060e01b6020820180517bffffffffffffffffffffffffffffffffffffffffffffffffffffffff83818316178352505050506040518082805190602001908083835b602083106107455780518252602082019150602081019050602083039250610722565b6001836020036101000a0380198251168184511680821785525050505050509050019150506000604051808303816000865af19150503d80600081146107a7576040519150601f19603f3d011682016040523d82523d6000602084013e6107ac565b606091505b50915091508180156107ec57506000815114806107eb57508080602001905160208110156107d957600080fd5b81019080805190602001909291905050505b5b610841576040517f08c379a000000000000000000000000000000000000000000000000000000000815260040180806020018281038252602b815260200180610b6d602b913960400191505060405180910390fd5b5050505050565b600060608473ffffffffffffffffffffffffffffffffffffffff1663a9059cbb8585604051602401808373ffffffffffffffffffffffffffffffffffffffff1673ffffffffffffffffffffffffffffffffffffffff168152602001828152602001925050506040516020818303038152906040529060e01b6020820180517bffffffffffffffffffffffffffffffffffffffffffffffffffffffff83818316178352505050506040518082805190602001908083835b6020831061092157805182526020820191506020810190506020830392506108fe565b6001836020036101000a0380198251168184511680821785525050505050509050019150506000604051808303816000865af19150503d8060008114610983576040519150601f19603f3d011682016040523d82523d6000602084013e610988565b606091505b50915091508180156109c857506000815114806109c757508080602001905160208110156109b557600080fd5b81019080805190602001909291905050505b5b610a1d576040517f08c379a000000000000000000000000000000000000000000000000000000000815260040180806020018281038252602d815260200180610b98602d913960400191505060405180910390fd5b5050505050565b60008273ffffffffffffffffffffffffffffffffffffffff168260006040519080825280601f01601f191660200182016040528015610a725781602001600182028038833980820191505090505b506040518082805190602001908083835b60208310610aa65780518252602082019150602081019050602083039250610a83565b6001836020036101000a03801982511681845116808217855250505050505090500191505060006040518083038185875af1925050503d8060008114610b08576040519150601f19603f3d011682016040523d82523d6000602084013e610b0d565b606091505b5050905080610b67576040517f08c379a0000000000000000000000000000000000000000000000000000000008152600401808060200182810382526034815260200180610bc56034913960400191505060405180910390fd5b50505056fe5472616e7366657248656c7065723a3a73616665417070726f76653a20617070726f7665206661696c65645472616e7366657248656c7065723a3a736166655472616e736665723a207472616e73666572206661696c65645472616e7366657248656c7065723a3a736166655472616e736665724154503a20415450207472616e73666572206661696c6564a265627a7a7231582053fc4dd1502afe9cfb8d67206a971f28dab9f3c15c5a8e364702732c8528a41a64736f6c63430005110032",
  "source": "// pragma solidity ^0.6.6;\npragma solidity ^0.5.16;\n\nimport './libraries/TransferHelper.sol';\nimport './interfaces/IViperMigrator.sol';\nimport './interfaces/IUniswapV1Factory.sol';\nimport './interfaces/IUniswapV1Exchange.sol';\nimport './interfaces/IViperRouter01.sol';\nimport './interfaces/IERC20.sol';\n\ncontract ViperMigrator is IViperMigrator {\n    IUniswapV1Factory factoryV1;\n    IViperRouter01 router;\n\n    constructor(address _factoryV1, address _router) public {\n        factoryV1 = IUniswapV1Factory(_factoryV1);\n        router = IViperRouter01(_router);\n    }\n\n    // needs to accept ATP from any v1 exchange and the router. ideally this could be enforced, as in the router,\n    // but it's not possible because it requires a call to the v1 factory, which takes too much gas\n    function() external payable {}\n\n    function migrate(address token, uint amountTokenMin, uint amountATPMin, address to, uint deadline)\n        external\n    {\n        IUniswapV1Exchange exchangeV1 = IUniswapV1Exchange(factoryV1.getExchange(token));\n        uint liquidityV1 = exchangeV1.balanceOf(msg.sender);\n        require(exchangeV1.transferFrom(msg.sender, address(this), liquidityV1), 'TRANSFER_FROM_FAILED');\n        (uint amountATPV1, uint amountTokenV1) = exchangeV1.removeLiquidity(liquidityV1, 1, 1, uint(-1));\n        TransferHelper.safeApprove(token, address(router), amountTokenV1);\n        (uint amountTokenV2, uint amountATPV2,) = router.addLiquidityATP.value(amountATPV1)(\n            token,\n            amountTokenV1,\n            amountTokenMin,\n            amountATPMin,\n            to,\n            deadline\n        );\n        if (amountTokenV1 > amountTokenV2) {\n            TransferHelper.safeApprove(token, address(router), 0); // be a good blockchain citizen, reset allowance to 0\n            TransferHelper.safeTransfer(token, msg.sender, amountTokenV1 - amountTokenV2);\n        } else if (amountATPV1 > amountATPV2) {\n            // addLiquidityATP guarantees that all of amountATPV1 or amountTokenV1 will be used, hence this else is safe\n            TransferHelper.safeTransferATP(msg.sender, amountATPV1 - amountATPV2);\n        }\n    }\n}",
  "sourcePath": "/Users/mingcai/Documents/GitHub/viperSwap1/contracts/ViperMigrator.sol",
  "compiler": {
    "name": "solc",
    "version": "0.5.17+commit.d19bba13.Emscripten.clang"
  },
  "schemaVersion": "3.0.20",
  "updatedAt": "2021-12-06T09:30:47.318Z",
  "devdoc": {
    "methods": {}
  },
  "userdoc": {
    "methods": {}
  }
}