{
  "contractName": "Viper",
  "abi": [
    {
      "inputs": [
        {
          "internalType": "address",
          "name": "account",
          "type": "address"
        },
        {
          "internalType": "address",
          "name": "minter_",
          "type": "address"
        },
        {
          "internalType": "uint256",
          "name": "mintingAllowedAfter_",
          "type": "uint256"
        }
      ],
      "payable": false,
      "stateMutability": "nonpayable",
      "type": "constructor"
    },
    {
      "anonymous": false,
      "inputs": [
        {
          "indexed": true,
          "internalType": "address",
          "name": "owner",
          "type": "address"
        },
        {
          "indexed": true,
          "internalType": "address",
          "name": "spender",
          "type": "address"
        },
        {
          "indexed": false,
          "internalType": "uint256",
          "name": "amount",
          "type": "uint256"
        }
      ],
      "name": "Approval",
      "type": "event"
    },
    {
      "anonymous": false,
      "inputs": [
        {
          "indexed": true,
          "internalType": "address",
          "name": "delegator",
          "type": "address"
        },
        {
          "indexed": true,
          "internalType": "address",
          "name": "fromDelegate",
          "type": "address"
        },
        {
          "indexed": true,
          "internalType": "address",
          "name": "toDelegate",
          "type": "address"
        }
      ],
      "name": "DelegateChanged",
      "type": "event"
    },
    {
      "anonymous": false,
      "inputs": [
        {
          "indexed": true,
          "internalType": "address",
          "name": "delegate",
          "type": "address"
        },
        {
          "indexed": false,
          "internalType": "uint256",
          "name": "previousBalance",
          "type": "uint256"
        },
        {
          "indexed": false,
          "internalType": "uint256",
          "name": "newBalance",
          "type": "uint256"
        }
      ],
      "name": "DelegateVotesChanged",
      "type": "event"
    },
    {
      "anonymous": false,
      "inputs": [
        {
          "indexed": false,
          "internalType": "address",
          "name": "minter",
          "type": "address"
        },
        {
          "indexed": false,
          "internalType": "address",
          "name": "newMinter",
          "type": "address"
        }
      ],
      "name": "MinterChanged",
      "type": "event"
    },
    {
      "anonymous": false,
      "inputs": [
        {
          "indexed": true,
          "internalType": "address",
          "name": "from",
          "type": "address"
        },
        {
          "indexed": true,
          "internalType": "address",
          "name": "to",
          "type": "address"
        },
        {
          "indexed": false,
          "internalType": "uint256",
          "name": "amount",
          "type": "uint256"
        }
      ],
      "name": "Transfer",
      "type": "event"
    },
    {
      "constant": true,
      "inputs": [],
      "name": "DELEGATION_TYPEHASH",
      "outputs": [
        {
          "internalType": "bytes32",
          "name": "",
          "type": "bytes32"
        }
      ],
      "payable": false,
      "stateMutability": "view",
      "type": "function"
    },
    {
      "constant": true,
      "inputs": [],
      "name": "DOMAIN_TYPEHASH",
      "outputs": [
        {
          "internalType": "bytes32",
          "name": "",
          "type": "bytes32"
        }
      ],
      "payable": false,
      "stateMutability": "view",
      "type": "function"
    },
    {
      "constant": true,
      "inputs": [],
      "name": "PERMIT_TYPEHASH",
      "outputs": [
        {
          "internalType": "bytes32",
          "name": "",
          "type": "bytes32"
        }
      ],
      "payable": false,
      "stateMutability": "view",
      "type": "function"
    },
    {
      "constant": true,
      "inputs": [
        {
          "internalType": "address",
          "name": "",
          "type": "address"
        },
        {
          "internalType": "uint32",
          "name": "",
          "type": "uint32"
        }
      ],
      "name": "checkpoints",
      "outputs": [
        {
          "internalType": "uint32",
          "name": "fromBlock",
          "type": "uint32"
        },
        {
          "internalType": "uint96",
          "name": "votes",
          "type": "uint96"
        }
      ],
      "payable": false,
      "stateMutability": "view",
      "type": "function"
    },
    {
      "constant": true,
      "inputs": [],
      "name": "decimals",
      "outputs": [
        {
          "internalType": "uint8",
          "name": "",
          "type": "uint8"
        }
      ],
      "payable": false,
      "stateMutability": "view",
      "type": "function"
    },
    {
      "constant": true,
      "inputs": [
        {
          "internalType": "address",
          "name": "",
          "type": "address"
        }
      ],
      "name": "delegates",
      "outputs": [
        {
          "internalType": "address",
          "name": "",
          "type": "address"
        }
      ],
      "payable": false,
      "stateMutability": "view",
      "type": "function"
    },
    {
      "constant": true,
      "inputs": [],
      "name": "minimumTimeBetweenMints",
      "outputs": [
        {
          "internalType": "uint32",
          "name": "",
          "type": "uint32"
        }
      ],
      "payable": false,
      "stateMutability": "view",
      "type": "function"
    },
    {
      "constant": true,
      "inputs": [],
      "name": "mintCap",
      "outputs": [
        {
          "internalType": "uint8",
          "name": "",
          "type": "uint8"
        }
      ],
      "payable": false,
      "stateMutability": "view",
      "type": "function"
    },
    {
      "constant": true,
      "inputs": [],
      "name": "minter",
      "outputs": [
        {
          "internalType": "address",
          "name": "",
          "type": "address"
        }
      ],
      "payable": false,
      "stateMutability": "view",
      "type": "function"
    },
    {
      "constant": true,
      "inputs": [],
      "name": "mintingAllowedAfter",
      "outputs": [
        {
          "internalType": "uint256",
          "name": "",
          "type": "uint256"
        }
      ],
      "payable": false,
      "stateMutability": "view",
      "type": "function"
    },
    {
      "constant": true,
      "inputs": [],
      "name": "name",
      "outputs": [
        {
          "internalType": "string",
          "name": "",
          "type": "string"
        }
      ],
      "payable": false,
      "stateMutability": "view",
      "type": "function"
    },
    {
      "constant": true,
      "inputs": [
        {
          "internalType": "address",
          "name": "",
          "type": "address"
        }
      ],
      "name": "nonces",
      "outputs": [
        {
          "internalType": "uint256",
          "name": "",
          "type": "uint256"
        }
      ],
      "payable": false,
      "stateMutability": "view",
      "type": "function"
    },
    {
      "constant": true,
      "inputs": [
        {
          "internalType": "address",
          "name": "",
          "type": "address"
        }
      ],
      "name": "numCheckpoints",
      "outputs": [
        {
          "internalType": "uint32",
          "name": "",
          "type": "uint32"
        }
      ],
      "payable": false,
      "stateMutability": "view",
      "type": "function"
    },
    {
      "constant": true,
      "inputs": [],
      "name": "symbol",
      "outputs": [
        {
          "internalType": "string",
          "name": "",
          "type": "string"
        }
      ],
      "payable": false,
      "stateMutability": "view",
      "type": "function"
    },
    {
      "constant": true,
      "inputs": [],
      "name": "totalSupply",
      "outputs": [
        {
          "internalType": "uint256",
          "name": "",
          "type": "uint256"
        }
      ],
      "payable": false,
      "stateMutability": "view",
      "type": "function"
    },
    {
      "constant": false,
      "inputs": [
        {
          "internalType": "address",
          "name": "minter_",
          "type": "address"
        }
      ],
      "name": "setMinter",
      "outputs": [],
      "payable": false,
      "stateMutability": "nonpayable",
      "type": "function"
    },
    {
      "constant": false,
      "inputs": [
        {
          "internalType": "address",
          "name": "dst",
          "type": "address"
        },
        {
          "internalType": "uint256",
          "name": "rawAmount",
          "type": "uint256"
        }
      ],
      "name": "mint",
      "outputs": [],
      "payable": false,
      "stateMutability": "nonpayable",
      "type": "function"
    },
    {
      "constant": true,
      "inputs": [
        {
          "internalType": "address",
          "name": "account",
          "type": "address"
        },
        {
          "internalType": "address",
          "name": "spender",
          "type": "address"
        }
      ],
      "name": "allowance",
      "outputs": [
        {
          "internalType": "uint256",
          "name": "",
          "type": "uint256"
        }
      ],
      "payable": false,
      "stateMutability": "view",
      "type": "function"
    },
    {
      "constant": false,
      "inputs": [
        {
          "internalType": "address",
          "name": "spender",
          "type": "address"
        },
        {
          "internalType": "uint256",
          "name": "rawAmount",
          "type": "uint256"
        }
      ],
      "name": "approve",
      "outputs": [
        {
          "internalType": "bool",
          "name": "",
          "type": "bool"
        }
      ],
      "payable": false,
      "stateMutability": "nonpayable",
      "type": "function"
    },
    {
      "constant": false,
      "inputs": [
        {
          "internalType": "address",
          "name": "owner",
          "type": "address"
        },
        {
          "internalType": "address",
          "name": "spender",
          "type": "address"
        },
        {
          "internalType": "uint256",
          "name": "rawAmount",
          "type": "uint256"
        },
        {
          "internalType": "uint256",
          "name": "deadline",
          "type": "uint256"
        },
        {
          "internalType": "uint8",
          "name": "v",
          "type": "uint8"
        },
        {
          "internalType": "bytes32",
          "name": "r",
          "type": "bytes32"
        },
        {
          "internalType": "bytes32",
          "name": "s",
          "type": "bytes32"
        }
      ],
      "name": "permit",
      "outputs": [],
      "payable": false,
      "stateMutability": "nonpayable",
      "type": "function"
    },
    {
      "constant": true,
      "inputs": [
        {
          "internalType": "address",
          "name": "account",
          "type": "address"
        }
      ],
      "name": "balanceOf",
      "outputs": [
        {
          "internalType": "uint256",
          "name": "",
          "type": "uint256"
        }
      ],
      "payable": false,
      "stateMutability": "view",
      "type": "function"
    },
    {
      "constant": false,
      "inputs": [
        {
          "internalType": "address",
          "name": "dst",
          "type": "address"
        },
        {
          "internalType": "uint256",
          "name": "rawAmount",
          "type": "uint256"
        }
      ],
      "name": "transfer",
      "outputs": [
        {
          "internalType": "bool",
          "name": "",
          "type": "bool"
        }
      ],
      "payable": false,
      "stateMutability": "nonpayable",
      "type": "function"
    },
    {
      "constant": false,
      "inputs": [
        {
          "internalType": "address",
          "name": "src",
          "type": "address"
        },
        {
          "internalType": "address",
          "name": "dst",
          "type": "address"
        },
        {
          "internalType": "uint256",
          "name": "rawAmount",
          "type": "uint256"
        }
      ],
      "name": "transferFrom",
      "outputs": [
        {
          "internalType": "bool",
          "name": "",
          "type": "bool"
        }
      ],
      "payable": false,
      "stateMutability": "nonpayable",
      "type": "function"
    },
    {
      "constant": false,
      "inputs": [
        {
          "internalType": "address",
          "name": "delegatee",
          "type": "address"
        }
      ],
      "name": "delegate",
      "outputs": [],
      "payable": false,
      "stateMutability": "nonpayable",
      "type": "function"
    },
    {
      "constant": false,
      "inputs": [
        {
          "internalType": "address",
          "name": "delegatee",
          "type": "address"
        },
        {
          "internalType": "uint256",
          "name": "nonce",
          "type": "uint256"
        },
        {
          "internalType": "uint256",
          "name": "expiry",
          "type": "uint256"
        },
        {
          "internalType": "uint8",
          "name": "v",
          "type": "uint8"
        },
        {
          "internalType": "bytes32",
          "name": "r",
          "type": "bytes32"
        },
        {
          "internalType": "bytes32",
          "name": "s",
          "type": "bytes32"
        }
      ],
      "name": "delegateBySig",
      "outputs": [],
      "payable": false,
      "stateMutability": "nonpayable",
      "type": "function"
    },
    {
      "constant": true,
      "inputs": [
        {
          "internalType": "address",
          "name": "account",
          "type": "address"
        }
      ],
      "name": "getCurrentVotes",
      "outputs": [
        {
          "internalType": "uint96",
          "name": "",
          "type": "uint96"
        }
      ],
      "payable": false,
      "stateMutability": "view",
      "type": "function"
    },
    {
      "constant": true,
      "inputs": [
        {
          "internalType": "address",
          "name": "account",
          "type": "address"
        },
        {
          "internalType": "uint256",
          "name": "blockNumber",
          "type": "uint256"
        }
      ],
      "name": "getPriorVotes",
      "outputs": [
        {
          "internalType": "uint96",
          "name": "",
          "type": "uint96"
        }
      ],
      "payable": false,
      "stateMutability": "view",
      "type": "function"
    }
  ],
  "bytecode": "0x60806040526b033b2e3c9fd0803ce80000006000553480156200002157600080fd5b506040516200458638038062004586833981810160405262000047919081019062000244565b428110156200008d576040517f08c379a0000000000000000000000000000000000000000000000000000000008152600401620000849062000362565b60405180910390fd5b600054600460008573ffffffffffffffffffffffffffffffffffffffff1673ffffffffffffffffffffffffffffffffffffffff16815260200190815260200160002060006101000a8154816bffffffffffffffffffffffff02191690836bffffffffffffffffffffffff1602179055508273ffffffffffffffffffffffffffffffffffffffff16600073ffffffffffffffffffffffffffffffffffffffff167fddf252ad1be2c89b69c2b068fc378daa952ba7f163c4a11628f55a4df523b3ef6000546040516200015f919062000384565b60405180910390a381600160006101000a81548173ffffffffffffffffffffffffffffffffffffffff021916908373ffffffffffffffffffffffffffffffffffffffff1602179055507f3b0007eb941cf645526cbb3a4fdaecda9d28ce4843167d9263b536a1f1edc0f66000600160009054906101000a900473ffffffffffffffffffffffffffffffffffffffff16604051620001fe92919062000335565b60405180910390a18060028190555050505062000460565b60008151905062000227816200042c565b92915050565b6000815190506200023e8162000446565b92915050565b6000806000606084860312156200025a57600080fd5b60006200026a8682870162000216565b93505060206200027d8682870162000216565b925050604062000290868287016200022d565b9150509250925092565b620002a581620003f0565b82525050565b620002b681620003b2565b82525050565b6000620002cb603a83620003a1565b91507f566970653a3a636f6e7374727563746f723a206d696e74696e672063616e206f60008301527f6e6c7920626567696e206166746572206465706c6f796d656e740000000000006020830152604082019050919050565b6200032f81620003e6565b82525050565b60006040820190506200034c60008301856200029a565b6200035b6020830184620002ab565b9392505050565b600060208201905081810360008301526200037d81620002bc565b9050919050565b60006020820190506200039b600083018462000324565b92915050565b600082825260208201905092915050565b6000620003bf82620003c6565b9050919050565b600073ffffffffffffffffffffffffffffffffffffffff82169050919050565b6000819050919050565b6000620003fd8262000404565b9050919050565b6000620004118262000418565b9050919050565b60006200042582620003c6565b9050919050565b6200043781620003b2565b81146200044357600080fd5b50565b6200045181620003e6565b81146200045d57600080fd5b50565b61411680620004706000396000f3fe608060405234801561001057600080fd5b50600436106101a95760003560e01c80636fcfff45116100f9578063b4b5ea5711610097578063dd62ed3e11610071578063dd62ed3e146104fa578063e7a324dc1461052a578063f1127ed814610548578063fca3b5aa14610579576101a9565b8063b4b5ea5714610492578063c3cda520146104c2578063d505accf146104de576101a9565b8063782d6fe1116100d3578063782d6fe1146103e45780637ecebe001461041457806395d89b4114610444578063a9059cbb14610462576101a9565b80636fcfff451461036657806370a082311461039657806376c71ca1146103c6576101a9565b806330adf81f1161016657806340c10f191161014057806340c10f19146102e0578063587cde1e146102fc5780635c11d62f1461032c5780635c19a95c1461034a576101a9565b806330adf81f1461028657806330b36cef146102a4578063313ce567146102c2576101a9565b806306fdde03146101ae57806307546172146101cc578063095ea7b3146101ea57806318160ddd1461021a57806320606b701461023857806323b872dd14610256575b600080fd5b6101b6610595565b6040516101c39190613a07565b60405180910390f35b6101d46105ce565b6040516101e1919061385d565b60405180910390f35b61020460048036036101ff9190810190612e45565b6105f4565b60405161021191906138a1565b60405180910390f35b610222610787565b60405161022f9190613c6b565b60405180910390f35b61024061078d565b60405161024d91906138bc565b60405180910390f35b610270600480360361026b9190810190612d58565b6107a4565b60405161027d91906138a1565b60405180910390f35b61028e610a38565b60405161029b91906138bc565b60405180910390f35b6102ac610a4f565b6040516102b99190613c6b565b60405180910390f35b6102ca610a55565b6040516102d79190613cca565b60405180910390f35b6102fa60048036036102f59190810190612e45565b610a5a565b005b61031660048036036103119190810190612cf3565b610e55565b604051610323919061385d565b60405180910390f35b610334610e88565b6040516103419190613c86565b60405180910390f35b610364600480360361035f9190810190612cf3565b610e90565b005b610380600480360361037b9190810190612cf3565b610e9d565b60405161038d9190613c86565b60405180910390f35b6103b060048036036103ab9190810190612cf3565b610ec0565b6040516103bd9190613c6b565b60405180910390f35b6103ce610f2f565b6040516103db9190613cca565b60405180910390f35b6103fe60048036036103f99190810190612e45565b610f34565b60405161040b9190613d00565b60405180910390f35b61042e60048036036104299190810190612cf3565b611347565b60405161043b9190613c6b565b60405180910390f35b61044c61135f565b6040516104599190613a07565b60405180910390f35b61047c60048036036104779190810190612e45565b611398565b60405161048991906138a1565b60405180910390f35b6104ac60048036036104a79190810190612cf3565b6113d5565b6040516104b99190613d00565b60405180910390f35b6104dc60048036036104d79190810190612e81565b6114c3565b005b6104f860048036036104f39190810190612da7565b611766565b005b610514600480360361050f9190810190612d1c565b611bb8565b6040516105219190613c6b565b60405180910390f35b610532611c65565b60405161053f91906138bc565b60405180910390f35b610562600480360361055d9190810190612f0a565b611c7c565b604051610570929190613ca1565b60405180910390f35b610593600480360361058e9190810190612cf3565b611cd5565b005b6040518060400160405280600981526020017f566970657273776170000000000000000000000000000000000000000000000081525081565b600160009054906101000a900473ffffffffffffffffffffffffffffffffffffffff1681565b6000807fffffffffffffffffffffffffffffffffffffffffffffffffffffffffffffffff831415610647577fffffffffffffffffffffffffffffffffffffffffffffffffffffffffffffffff905061066c565b6106698360405180606001604052806025815260200161406860259139611e04565b90505b80600360003373ffffffffffffffffffffffffffffffffffffffff1673ffffffffffffffffffffffffffffffffffffffff16815260200190815260200160002060008673ffffffffffffffffffffffffffffffffffffffff1673ffffffffffffffffffffffffffffffffffffffff16815260200190815260200160002060006101000a8154816bffffffffffffffffffffffff02191690836bffffffffffffffffffffffff1602179055508373ffffffffffffffffffffffffffffffffffffffff163373ffffffffffffffffffffffffffffffffffffffff167f8c5be1e5ebec7d5bd14f71427d1e84f3dd0314c0f7b2291e5b200ac8c7c3b925836040516107749190613ce5565b60405180910390a3600191505092915050565b60005481565b60405161079990613833565b604051809103902081565b6000803390506000600360008773ffffffffffffffffffffffffffffffffffffffff1673ffffffffffffffffffffffffffffffffffffffff16815260200190815260200160002060008373ffffffffffffffffffffffffffffffffffffffff1673ffffffffffffffffffffffffffffffffffffffff16815260200190815260200160002060009054906101000a90046bffffffffffffffffffffffff16905060006108678560405180606001604052806025815260200161406860259139611e04565b90508673ffffffffffffffffffffffffffffffffffffffff168373ffffffffffffffffffffffffffffffffffffffff16141580156108e157507fffffffffffffffffffffffffffffffffffffffffffffffffffffffffffffffff6bffffffffffffffffffffffff16826bffffffffffffffffffffffff1614155b15610a1f57600061090b83836040518060600160405280603d8152602001613f2d603d9139611e62565b905080600360008a73ffffffffffffffffffffffffffffffffffffffff1673ffffffffffffffffffffffffffffffffffffffff16815260200190815260200160002060008673ffffffffffffffffffffffffffffffffffffffff1673ffffffffffffffffffffffffffffffffffffffff16815260200190815260200160002060006101000a8154816bffffffffffffffffffffffff02191690836bffffffffffffffffffffffff1602179055508373ffffffffffffffffffffffffffffffffffffffff168873ffffffffffffffffffffffffffffffffffffffff167f8c5be1e5ebec7d5bd14f71427d1e84f3dd0314c0f7b2291e5b200ac8c7c3b92583604051610a159190613ce5565b60405180910390a3505b610a2a878783611ed3565b600193505050509392505050565b604051610a449061381e565b604051809103902081565b60025481565b601281565b600160009054906101000a900473ffffffffffffffffffffffffffffffffffffffff1673ffffffffffffffffffffffffffffffffffffffff163373ffffffffffffffffffffffffffffffffffffffff1614610aea576040517f08c379a0000000000000000000000000000000000000000000000000000000008152600401610ae190613a4b565b60405180910390fd5b600254421015610b2f576040517f08c379a0000000000000000000000000000000000000000000000000000000008152600401610b2690613b6b565b60405180910390fd5b600073ffffffffffffffffffffffffffffffffffffffff168273ffffffffffffffffffffffffffffffffffffffff161415610b9f576040517f08c379a0000000000000000000000000000000000000000000000000000000008152600401610b9690613b4b565b60405180910390fd5b610bb3426301e1338063ffffffff166122b4565b6002819055506000610bdd826040518060600160405280602281526020016140b260229139611e04565b9050610bf9610bf2600054600260ff16612309565b6064612379565b816bffffffffffffffffffffffff161115610c49576040517f08c379a0000000000000000000000000000000000000000000000000000000008152600401610c4090613a6b565b60405180910390fd5b610c84610c66600054836bffffffffffffffffffffffff166122b4565b604051806060016040528060278152602001613fe660279139611e04565b6bffffffffffffffffffffffff16600081905550610d12600460008573ffffffffffffffffffffffffffffffffffffffff1673ffffffffffffffffffffffffffffffffffffffff16815260200190815260200160002060009054906101000a90046bffffffffffffffffffffffff168260405180606001604052806025815260200161408d602591396123d5565b600460008573ffffffffffffffffffffffffffffffffffffffff1673ffffffffffffffffffffffffffffffffffffffff16815260200190815260200160002060006101000a8154816bffffffffffffffffffffffff02191690836bffffffffffffffffffffffff1602179055508273ffffffffffffffffffffffffffffffffffffffff16600073ffffffffffffffffffffffffffffffffffffffff167fddf252ad1be2c89b69c2b068fc378daa952ba7f163c4a11628f55a4df523b3ef83604051610ddd9190613ce5565b60405180910390a3610e506000600560008673ffffffffffffffffffffffffffffffffffffffff1673ffffffffffffffffffffffffffffffffffffffff16815260200190815260200160002060009054906101000a900473ffffffffffffffffffffffffffffffffffffffff168361244b565b505050565b60056020528060005260406000206000915054906101000a900473ffffffffffffffffffffffffffffffffffffffff1681565b6301e1338081565b610e9a3382612746565b50565b60076020528060005260406000206000915054906101000a900463ffffffff1681565b6000600460008373ffffffffffffffffffffffffffffffffffffffff1673ffffffffffffffffffffffffffffffffffffffff16815260200190815260200160002060009054906101000a90046bffffffffffffffffffffffff166bffffffffffffffffffffffff169050919050565b600281565b6000438210610f78576040517f08c379a0000000000000000000000000000000000000000000000000000000008152600401610f6f90613aeb565b60405180910390fd5b6000600760008573ffffffffffffffffffffffffffffffffffffffff1673ffffffffffffffffffffffffffffffffffffffff16815260200190815260200160002060009054906101000a900463ffffffff16905060008163ffffffff161415610fe5576000915050611341565b82600660008673ffffffffffffffffffffffffffffffffffffffff1673ffffffffffffffffffffffffffffffffffffffff16815260200190815260200160002060006001840363ffffffff1663ffffffff16815260200190815260200160002060000160009054906101000a900463ffffffff1663ffffffff16116110e757600660008573ffffffffffffffffffffffffffffffffffffffff1673ffffffffffffffffffffffffffffffffffffffff16815260200190815260200160002060006001830363ffffffff1663ffffffff16815260200190815260200160002060000160049054906101000a90046bffffffffffffffffffffffff16915050611341565b82600660008673ffffffffffffffffffffffffffffffffffffffff1673ffffffffffffffffffffffffffffffffffffffff16815260200190815260200160002060008063ffffffff16815260200190815260200160002060000160009054906101000a900463ffffffff1663ffffffff161115611168576000915050611341565b600080905060006001830390505b8163ffffffff168163ffffffff1611156112c3576000600283830363ffffffff168161119e57fe5b04820390506111ab612c5c565b600660008973ffffffffffffffffffffffffffffffffffffffff1673ffffffffffffffffffffffffffffffffffffffff16815260200190815260200160002060008363ffffffff1663ffffffff1681526020019081526020016000206040518060400160405290816000820160009054906101000a900463ffffffff1663ffffffff1663ffffffff1681526020016000820160049054906101000a90046bffffffffffffffffffffffff166bffffffffffffffffffffffff166bffffffffffffffffffffffff1681525050905086816000015163ffffffff16141561129b57806020015195505050505050611341565b86816000015163ffffffff1610156112b5578193506112bc565b6001820392505b5050611176565b600660008773ffffffffffffffffffffffffffffffffffffffff1673ffffffffffffffffffffffffffffffffffffffff16815260200190815260200160002060008363ffffffff1663ffffffff16815260200190815260200160002060000160049054906101000a90046bffffffffffffffffffffffff1693505050505b92915050565b60086020528060005260406000206000915090505481565b6040518060400160405280600481526020017f564950450000000000000000000000000000000000000000000000000000000081525081565b6000806113bd83604051806060016040528060268152602001613f0760269139611e04565b90506113ca338583611ed3565b600191505092915050565b600080600760008473ffffffffffffffffffffffffffffffffffffffff1673ffffffffffffffffffffffffffffffffffffffff16815260200190815260200160002060009054906101000a900463ffffffff16905060008163ffffffff161161143f5760006114bb565b600660008473ffffffffffffffffffffffffffffffffffffffff1673ffffffffffffffffffffffffffffffffffffffff16815260200190815260200160002060006001830363ffffffff1663ffffffff16815260200190815260200160002060000160049054906101000a90046bffffffffffffffffffffffff165b915050919050565b60006040516114d190613833565b60405180910390206040518060400160405280600981526020017f56697065727377617000000000000000000000000000000000000000000000008152508051906020012061151e612906565b30604051602001611532949392919061397d565b604051602081830303815290604052805190602001209050600060405161155890613848565b60405180910390208888886040516020016115769493929190613938565b604051602081830303815290604052805190602001209050600082826040516020016115a39291906137e7565b6040516020818303038152906040528051906020012090506000600182888888604051600081526020016040526040516115e094939291906139c2565b6020604051602081039080840390855afa158015611602573d6000803e3d6000fd5b505050602060405103519050600073ffffffffffffffffffffffffffffffffffffffff168173ffffffffffffffffffffffffffffffffffffffff16141561167e576040517f08c379a000000000000000000000000000000000000000000000000000000000815260040161167590613bcb565b60405180910390fd5b600860008273ffffffffffffffffffffffffffffffffffffffff1673ffffffffffffffffffffffffffffffffffffffff168152602001908152602001600020600081548092919060010191905055891461170d576040517f08c379a000000000000000000000000000000000000000000000000000000000815260040161170490613b8b565b60405180910390fd5b87421115611750576040517f08c379a000000000000000000000000000000000000000000000000000000000815260040161174790613a8b565b60405180910390fd5b61175a818b612746565b50505050505050505050565b60007fffffffffffffffffffffffffffffffffffffffffffffffffffffffffffffffff8614156117b8577fffffffffffffffffffffffffffffffffffffffffffffffffffffffffffffffff90506117dd565b6117da86604051806060016040528060248152602001613fc260249139611e04565b90505b60006040516117eb90613833565b60405180910390206040518060400160405280600981526020017f566970657273776170000000000000000000000000000000000000000000000081525080519060200120611838612906565b3060405160200161184c949392919061397d565b60405160208183030381529060405280519060200120905060006040516118729061381e565b60405180910390208a8a8a600860008f73ffffffffffffffffffffffffffffffffffffffff1673ffffffffffffffffffffffffffffffffffffffff1681526020019081526020016000206000815480929190600101919050558b6040516020016118e1969594939291906138d7565b6040516020818303038152906040528051906020012090506000828260405160200161190e9291906137e7565b60405160208183030381529060405280519060200120905060006001828989896040516000815260200160405260405161194b94939291906139c2565b6020604051602081039080840390855afa15801561196d573d6000803e3d6000fd5b505050602060405103519050600073ffffffffffffffffffffffffffffffffffffffff168173ffffffffffffffffffffffffffffffffffffffff1614156119e9576040517f08c379a00000000000000000000000000000000000000000000000000000000081526004016119e090613c4b565b60405180910390fd5b8b73ffffffffffffffffffffffffffffffffffffffff168173ffffffffffffffffffffffffffffffffffffffff1614611a57576040517f08c379a0000000000000000000000000000000000000000000000000000000008152600401611a4e90613beb565b60405180910390fd5b88421115611a9a576040517f08c379a0000000000000000000000000000000000000000000000000000000008152600401611a9190613c2b565b60405180910390fd5b84600360008e73ffffffffffffffffffffffffffffffffffffffff1673ffffffffffffffffffffffffffffffffffffffff16815260200190815260200160002060008d73ffffffffffffffffffffffffffffffffffffffff1673ffffffffffffffffffffffffffffffffffffffff16815260200190815260200160002060006101000a8154816bffffffffffffffffffffffff02191690836bffffffffffffffffffffffff1602179055508a73ffffffffffffffffffffffffffffffffffffffff168c73ffffffffffffffffffffffffffffffffffffffff167f8c5be1e5ebec7d5bd14f71427d1e84f3dd0314c0f7b2291e5b200ac8c7c3b92587604051611ba29190613ce5565b60405180910390a3505050505050505050505050565b6000600360008473ffffffffffffffffffffffffffffffffffffffff1673ffffffffffffffffffffffffffffffffffffffff16815260200190815260200160002060008373ffffffffffffffffffffffffffffffffffffffff1673ffffffffffffffffffffffffffffffffffffffff16815260200190815260200160002060009054906101000a90046bffffffffffffffffffffffff166bffffffffffffffffffffffff16905092915050565b604051611c7190613848565b604051809103902081565b6006602052816000526040600020602052806000526040600020600091509150508060000160009054906101000a900463ffffffff16908060000160049054906101000a90046bffffffffffffffffffffffff16905082565b600160009054906101000a900473ffffffffffffffffffffffffffffffffffffffff1673ffffffffffffffffffffffffffffffffffffffff163373ffffffffffffffffffffffffffffffffffffffff1614611d65576040517f08c379a0000000000000000000000000000000000000000000000000000000008152600401611d5c90613b2b565b60405180910390fd5b7f3b0007eb941cf645526cbb3a4fdaecda9d28ce4843167d9263b536a1f1edc0f6600160009054906101000a900473ffffffffffffffffffffffffffffffffffffffff1682604051611db8929190613878565b60405180910390a180600160006101000a81548173ffffffffffffffffffffffffffffffffffffffff021916908373ffffffffffffffffffffffffffffffffffffffff16021790555050565b60006c0100000000000000000000000083108290611e58576040517f08c379a0000000000000000000000000000000000000000000000000000000008152600401611e4f9190613a29565b60405180910390fd5b5082905092915050565b6000836bffffffffffffffffffffffff16836bffffffffffffffffffffffff1611158290611ec6576040517f08c379a0000000000000000000000000000000000000000000000000000000008152600401611ebd9190613a29565b60405180910390fd5b5082840390509392505050565b600073ffffffffffffffffffffffffffffffffffffffff168373ffffffffffffffffffffffffffffffffffffffff161415611f43576040517f08c379a0000000000000000000000000000000000000000000000000000000008152600401611f3a90613acb565b60405180910390fd5b600073ffffffffffffffffffffffffffffffffffffffff168273ffffffffffffffffffffffffffffffffffffffff161415611fb3576040517f08c379a0000000000000000000000000000000000000000000000000000000008152600401611faa90613c0b565b60405180910390fd5b61202d600460008573ffffffffffffffffffffffffffffffffffffffff1673ffffffffffffffffffffffffffffffffffffffff16815260200190815260200160002060009054906101000a90046bffffffffffffffffffffffff1682604051806060016040528060368152602001613ed160369139611e62565b600460008573ffffffffffffffffffffffffffffffffffffffff1673ffffffffffffffffffffffffffffffffffffffff16815260200190815260200160002060006101000a8154816bffffffffffffffffffffffff02191690836bffffffffffffffffffffffff160217905550612114600460008473ffffffffffffffffffffffffffffffffffffffff1673ffffffffffffffffffffffffffffffffffffffff16815260200190815260200160002060009054906101000a90046bffffffffffffffffffffffff1682604051806060016040528060308152602001613f6a603091396123d5565b600460008473ffffffffffffffffffffffffffffffffffffffff1673ffffffffffffffffffffffffffffffffffffffff16815260200190815260200160002060006101000a8154816bffffffffffffffffffffffff02191690836bffffffffffffffffffffffff1602179055508173ffffffffffffffffffffffffffffffffffffffff168373ffffffffffffffffffffffffffffffffffffffff167fddf252ad1be2c89b69c2b068fc378daa952ba7f163c4a11628f55a4df523b3ef836040516121de9190613ce5565b60405180910390a36122af600560008573ffffffffffffffffffffffffffffffffffffffff1673ffffffffffffffffffffffffffffffffffffffff16815260200190815260200160002060009054906101000a900473ffffffffffffffffffffffffffffffffffffffff16600560008573ffffffffffffffffffffffffffffffffffffffff1673ffffffffffffffffffffffffffffffffffffffff16815260200190815260200160002060009054906101000a900473ffffffffffffffffffffffffffffffffffffffff168361244b565b505050565b6000808284019050838110156122ff576040517f08c379a00000000000000000000000000000000000000000000000000000000081526004016122f690613aab565b60405180910390fd5b8091505092915050565b60008083141561231c5760009050612373565b600082840290508284828161232d57fe5b041461236e576040517f08c379a000000000000000000000000000000000000000000000000000000000815260040161236590613bab565b60405180910390fd5b809150505b92915050565b60008082116123bd576040517f08c379a00000000000000000000000000000000000000000000000000000000081526004016123b490613b0b565b60405180910390fd5b60008284816123c857fe5b0490508091505092915050565b6000808385019050846bffffffffffffffffffffffff16816bffffffffffffffffffffffff161015839061243f576040517f08c379a00000000000000000000000000000000000000000000000000000000081526004016124369190613a29565b60405180910390fd5b50809150509392505050565b8173ffffffffffffffffffffffffffffffffffffffff168373ffffffffffffffffffffffffffffffffffffffff161415801561249557506000816bffffffffffffffffffffffff16115b1561274157600073ffffffffffffffffffffffffffffffffffffffff168373ffffffffffffffffffffffffffffffffffffffff16146125ed576000600760008573ffffffffffffffffffffffffffffffffffffffff1673ffffffffffffffffffffffffffffffffffffffff16815260200190815260200160002060009054906101000a900463ffffffff1690506000808263ffffffff16116125385760006125b4565b600660008673ffffffffffffffffffffffffffffffffffffffff1673ffffffffffffffffffffffffffffffffffffffff16815260200190815260200160002060006001840363ffffffff1663ffffffff16815260200190815260200160002060000160049054906101000a90046bffffffffffffffffffffffff165b905060006125db8285604051806060016040528060288152602001613f9a60289139611e62565b90506125e986848484612913565b5050505b600073ffffffffffffffffffffffffffffffffffffffff168273ffffffffffffffffffffffffffffffffffffffff1614612740576000600760008473ffffffffffffffffffffffffffffffffffffffff1673ffffffffffffffffffffffffffffffffffffffff16815260200190815260200160002060009054906101000a900463ffffffff1690506000808263ffffffff161161268b576000612707565b600660008573ffffffffffffffffffffffffffffffffffffffff1673ffffffffffffffffffffffffffffffffffffffff16815260200190815260200160002060006001840363ffffffff1663ffffffff16815260200190815260200160002060000160049054906101000a90046bffffffffffffffffffffffff165b9050600061272e828560405180606001604052806027815260200161400d602791396123d5565b905061273c85848484612913565b5050505b5b505050565b6000600560008473ffffffffffffffffffffffffffffffffffffffff1673ffffffffffffffffffffffffffffffffffffffff16815260200190815260200160002060009054906101000a900473ffffffffffffffffffffffffffffffffffffffff1690506000600460008573ffffffffffffffffffffffffffffffffffffffff1673ffffffffffffffffffffffffffffffffffffffff16815260200190815260200160002060009054906101000a90046bffffffffffffffffffffffff16905082600560008673ffffffffffffffffffffffffffffffffffffffff1673ffffffffffffffffffffffffffffffffffffffff16815260200190815260200160002060006101000a81548173ffffffffffffffffffffffffffffffffffffffff021916908373ffffffffffffffffffffffffffffffffffffffff1602179055508273ffffffffffffffffffffffffffffffffffffffff168273ffffffffffffffffffffffffffffffffffffffff168573ffffffffffffffffffffffffffffffffffffffff167f3134e8a2e6d97e929a7e54011ea5485d7d196dd5f0ba4d4ef95803e8e3fc257f60405160405180910390a461290082848361244b565b50505050565b6000804690508091505090565b60006129374360405180606001604052806034815260200161403460349139612c06565b905060008463ffffffff161180156129cc57508063ffffffff16600660008773ffffffffffffffffffffffffffffffffffffffff1673ffffffffffffffffffffffffffffffffffffffff16815260200190815260200160002060006001870363ffffffff1663ffffffff16815260200190815260200160002060000160009054906101000a900463ffffffff1663ffffffff16145b15612a675781600660008773ffffffffffffffffffffffffffffffffffffffff1673ffffffffffffffffffffffffffffffffffffffff16815260200190815260200160002060006001870363ffffffff1663ffffffff16815260200190815260200160002060000160046101000a8154816bffffffffffffffffffffffff02191690836bffffffffffffffffffffffff160217905550612baf565b60405180604001604052808263ffffffff168152602001836bffffffffffffffffffffffff16815250600660008773ffffffffffffffffffffffffffffffffffffffff1673ffffffffffffffffffffffffffffffffffffffff16815260200190815260200160002060008663ffffffff1663ffffffff16815260200190815260200160002060008201518160000160006101000a81548163ffffffff021916908363ffffffff16021790555060208201518160000160046101000a8154816bffffffffffffffffffffffff02191690836bffffffffffffffffffffffff16021790555090505060018401600760008773ffffffffffffffffffffffffffffffffffffffff1673ffffffffffffffffffffffffffffffffffffffff16815260200190815260200160002060006101000a81548163ffffffff021916908363ffffffff1602179055505b8473ffffffffffffffffffffffffffffffffffffffff167fdec2bacdd2f05b59de34da9b523dff8be42e5e38e818c82fdb0bae774387a7248484604051612bf7929190613d1b565b60405180910390a25050505050565b600064010000000083108290612c52576040517f08c379a0000000000000000000000000000000000000000000000000000000008152600401612c499190613a29565b60405180910390fd5b5082905092915050565b6040518060400160405280600063ffffffff16815260200160006bffffffffffffffffffffffff1681525090565b600081359050612c9981613e5d565b92915050565b600081359050612cae81613e74565b92915050565b600081359050612cc381613e8b565b92915050565b600081359050612cd881613ea2565b92915050565b600081359050612ced81613eb9565b92915050565b600060208284031215612d0557600080fd5b6000612d1384828501612c8a565b91505092915050565b60008060408385031215612d2f57600080fd5b6000612d3d85828601612c8a565b9250506020612d4e85828601612c8a565b9150509250929050565b600080600060608486031215612d6d57600080fd5b6000612d7b86828701612c8a565b9350506020612d8c86828701612c8a565b9250506040612d9d86828701612cb4565b9150509250925092565b600080600080600080600060e0888a031215612dc257600080fd5b6000612dd08a828b01612c8a565b9750506020612de18a828b01612c8a565b9650506040612df28a828b01612cb4565b9550506060612e038a828b01612cb4565b9450506080612e148a828b01612cde565b93505060a0612e258a828b01612c9f565b92505060c0612e368a828b01612c9f565b91505092959891949750929550565b60008060408385031215612e5857600080fd5b6000612e6685828601612c8a565b9250506020612e7785828601612cb4565b9150509250929050565b60008060008060008060c08789031215612e9a57600080fd5b6000612ea889828a01612c8a565b9650506020612eb989828a01612cb4565b9550506040612eca89828a01612cb4565b9450506060612edb89828a01612cde565b9350506080612eec89828a01612c9f565b92505060a0612efd89828a01612c9f565b9150509295509295509295565b60008060408385031215612f1d57600080fd5b6000612f2b85828601612c8a565b9250506020612f3c85828601612cc9565b9150509250929050565b612f4f81613d76565b82525050565b612f5e81613d88565b82525050565b612f6d81613d94565b82525050565b612f84612f7f82613d94565b613e42565b82525050565b6000612f9582613d4f565b612f9f8185613d5a565b9350612faf818560208601613e0f565b612fb881613e4c565b840191505092915050565b6000612fce82613d44565b612fd88185613d5a565b9350612fe8818560208601613e0f565b612ff181613e4c565b840191505092915050565b6000613009602483613d5a565b91507f566970653a3a6d696e743a206f6e6c7920746865206d696e7465722063616e2060008301527f6d696e74000000000000000000000000000000000000000000000000000000006020830152604082019050919050565b600061306f601d83613d5a565b91507f566970653a3a6d696e743a206578636565646564206d696e74206361700000006000830152602082019050919050565b60006130af602683613d5a565b91507f566970653a3a64656c656761746542795369673a207369676e6174757265206560008301527f78706972656400000000000000000000000000000000000000000000000000006020830152604082019050919050565b6000613115600283613d6b565b91507f19010000000000000000000000000000000000000000000000000000000000006000830152600282019050919050565b6000613155601b83613d5a565b91507f536166654d6174683a206164646974696f6e206f766572666c6f7700000000006000830152602082019050919050565b6000613195603c83613d5a565b91507f566970653a3a5f7472616e73666572546f6b656e733a2063616e6e6f7420747260008301527f616e736665722066726f6d20746865207a65726f2061646472657373000000006020830152604082019050919050565b60006131fb602783613d5a565b91507f566970653a3a6765745072696f72566f7465733a206e6f74207965742064657460008301527f65726d696e6564000000000000000000000000000000000000000000000000006020830152604082019050919050565b6000613261601a83613d5a565b91507f536166654d6174683a206469766973696f6e206279207a65726f0000000000006000830152602082019050919050565b60006132a1605283613d6b565b91507f5065726d69742861646472657373206f776e65722c616464726573732073706560008301527f6e6465722c75696e743235362076616c75652c75696e74323536206e6f6e636560208301527f2c75696e7432353620646561646c696e652900000000000000000000000000006040830152605282019050919050565b600061332d603e83613d5a565b91507f566970653a3a7365744d696e7465723a206f6e6c7920746865206d696e74657260008301527f2063616e206368616e676520746865206d696e746572206164647265737300006020830152604082019050919050565b6000613393602f83613d5a565b91507f566970653a3a6d696e743a2063616e6e6f74207472616e7366657220746f207460008301527f6865207a65726f206164647265737300000000000000000000000000000000006020830152604082019050919050565b60006133f9604383613d6b565b91507f454950373132446f6d61696e28737472696e67206e616d652c75696e7432353660008301527f20636861696e49642c6164647265737320766572696679696e67436f6e74726160208301527f63742900000000000000000000000000000000000000000000000000000000006040830152604382019050919050565b6000613485602383613d5a565b91507f566970653a3a6d696e743a206d696e74696e67206e6f7420616c6c6f7765642060008301527f79657400000000000000000000000000000000000000000000000000000000006020830152604082019050919050565b60006134eb602283613d5a565b91507f566970653a3a64656c656761746542795369673a20696e76616c6964206e6f6e60008301527f63650000000000000000000000000000000000000000000000000000000000006020830152604082019050919050565b6000613551602183613d5a565b91507f536166654d6174683a206d756c7469706c69636174696f6e206f766572666c6f60008301527f77000000000000000000000000000000000000000000000000000000000000006020830152604082019050919050565b60006135b7602683613d5a565b91507f566970653a3a64656c656761746542795369673a20696e76616c69642073696760008301527f6e617475726500000000000000000000000000000000000000000000000000006020830152604082019050919050565b600061361d601a83613d5a565b91507f566970653a3a7065726d69743a20756e617574686f72697a65640000000000006000830152602082019050919050565b600061365d603a83613d5a565b91507f566970653a3a5f7472616e73666572546f6b656e733a2063616e6e6f7420747260008301527f616e7366657220746f20746865207a65726f20616464726573730000000000006020830152604082019050919050565b60006136c3601f83613d5a565b91507f566970653a3a7065726d69743a207369676e61747572652065787069726564006000830152602082019050919050565b6000613703603a83613d6b565b91507f44656c65676174696f6e28616464726573732064656c6567617465652c75696e60008301527f74323536206e6f6e63652c75696e7432353620657870697279290000000000006020830152603a82019050919050565b6000613769601f83613d5a565b91507f566970653a3a7065726d69743a20696e76616c6964207369676e6174757265006000830152602082019050919050565b6137a581613dbe565b82525050565b6137b481613dc8565b82525050565b6137c381613dd8565b82525050565b6137d281613dfd565b82525050565b6137e181613de5565b82525050565b60006137f282613108565b91506137fe8285612f73565b60208201915061380e8284612f73565b6020820191508190509392505050565b600061382982613294565b9150819050919050565b600061383e826133ec565b9150819050919050565b6000613853826136f6565b9150819050919050565b60006020820190506138726000830184612f46565b92915050565b600060408201905061388d6000830185612f46565b61389a6020830184612f46565b9392505050565b60006020820190506138b66000830184612f55565b92915050565b60006020820190506138d16000830184612f64565b92915050565b600060c0820190506138ec6000830189612f64565b6138f96020830188612f46565b6139066040830187612f46565b613913606083018661379c565b613920608083018561379c565b61392d60a083018461379c565b979650505050505050565b600060808201905061394d6000830187612f64565b61395a6020830186612f46565b613967604083018561379c565b613974606083018461379c565b95945050505050565b60006080820190506139926000830187612f64565b61399f6020830186612f64565b6139ac604083018561379c565b6139b96060830184612f46565b95945050505050565b60006080820190506139d76000830187612f64565b6139e460208301866137ba565b6139f16040830185612f64565b6139fe6060830184612f64565b95945050505050565b60006020820190508181036000830152613a218184612fc3565b905092915050565b60006020820190508181036000830152613a438184612f8a565b905092915050565b60006020820190508181036000830152613a6481612ffc565b9050919050565b60006020820190508181036000830152613a8481613062565b9050919050565b60006020820190508181036000830152613aa4816130a2565b9050919050565b60006020820190508181036000830152613ac481613148565b9050919050565b60006020820190508181036000830152613ae481613188565b9050919050565b60006020820190508181036000830152613b04816131ee565b9050919050565b60006020820190508181036000830152613b2481613254565b9050919050565b60006020820190508181036000830152613b4481613320565b9050919050565b60006020820190508181036000830152613b6481613386565b9050919050565b60006020820190508181036000830152613b8481613478565b9050919050565b60006020820190508181036000830152613ba4816134de565b9050919050565b60006020820190508181036000830152613bc481613544565b9050919050565b60006020820190508181036000830152613be4816135aa565b9050919050565b60006020820190508181036000830152613c0481613610565b9050919050565b60006020820190508181036000830152613c2481613650565b9050919050565b60006020820190508181036000830152613c44816136b6565b9050919050565b60006020820190508181036000830152613c648161375c565b9050919050565b6000602082019050613c80600083018461379c565b92915050565b6000602082019050613c9b60008301846137ab565b92915050565b6000604082019050613cb660008301856137ab565b613cc360208301846137d8565b9392505050565b6000602082019050613cdf60008301846137ba565b92915050565b6000602082019050613cfa60008301846137c9565b92915050565b6000602082019050613d1560008301846137d8565b92915050565b6000604082019050613d3060008301856137c9565b613d3d60208301846137c9565b9392505050565b600081519050919050565b600081519050919050565b600082825260208201905092915050565b600081905092915050565b6000613d8182613d9e565b9050919050565b60008115159050919050565b6000819050919050565b600073ffffffffffffffffffffffffffffffffffffffff82169050919050565b6000819050919050565b600063ffffffff82169050919050565b600060ff82169050919050565b60006bffffffffffffffffffffffff82169050919050565b6000613e0882613de5565b9050919050565b60005b83811015613e2d578082015181840152602081019050613e12565b83811115613e3c576000848401525b50505050565b6000819050919050565b6000601f19601f8301169050919050565b613e6681613d76565b8114613e7157600080fd5b50565b613e7d81613d94565b8114613e8857600080fd5b50565b613e9481613dbe565b8114613e9f57600080fd5b50565b613eab81613dc8565b8114613eb657600080fd5b50565b613ec281613dd8565b8114613ecd57600080fd5b5056fe566970653a3a5f7472616e73666572546f6b656e733a207472616e7366657220616d6f756e7420657863656564732062616c616e6365566970653a3a7472616e736665723a20616d6f756e7420657863656564732039362062697473566970653a3a7472616e7366657246726f6d3a207472616e7366657220616d6f756e742065786365656473207370656e64657220616c6c6f77616e6365566970653a3a5f7472616e73666572546f6b656e733a207472616e7366657220616d6f756e74206f766572666c6f7773566970653a3a5f6d6f7665566f7465733a20766f746520616d6f756e7420756e646572666c6f7773566970653a3a7065726d69743a20616d6f756e7420657863656564732039362062697473566970653a3a6d696e743a20746f74616c537570706c7920657863656564732039362062697473566970653a3a5f6d6f7665566f7465733a20766f746520616d6f756e74206f766572666c6f7773566970653a3a5f7772697465436865636b706f696e743a20626c6f636b206e756d62657220657863656564732033322062697473566970653a3a617070726f76653a20616d6f756e7420657863656564732039362062697473566970653a3a6d696e743a207472616e7366657220616d6f756e74206f766572666c6f7773566970653a3a6d696e743a20616d6f756e7420657863656564732039362062697473a365627a7a72315820b0e0020e6a2b9721090373416a8b6412cd5e9a10770818c22e3bd63973698e276c6578706572696d656e74616cf564736f6c63430005110040",
  "source": "pragma solidity ^0.5.16;\npragma experimental ABIEncoderV2;\n\nimport \"./libraries/SafeMath.sol\";\n\ncontract Viper {\n    /// @notice EIP-20 token name for this token\n    string public constant name = \"Viperswap\";\n\n    /// @notice EIP-20 token symbol for this token\n    string public constant symbol = \"VIPE\";\n\n    /// @notice EIP-20 token decimals for this token\n    uint8 public constant decimals = 18;\n\n    /// @notice Total number of tokens in circulation\n    uint public totalSupply = 1_000_000_000e18; // 1 billion Vipe\n\n    /// @notice Address which may mint new tokens\n    address public minter;\n\n    /// @notice The timestamp after which minting may occur\n    uint public mintingAllowedAfter;\n\n    /// @notice Minimum time between mints\n    uint32 public constant minimumTimeBetweenMints = 1 days * 365;\n\n    /// @notice Cap on the percentage of totalSupply that can be minted at each mint\n    uint8 public constant mintCap = 2;\n\n    /// @notice Allowance amounts on behalf of others\n    mapping (address => mapping (address => uint96)) internal allowances;\n\n    /// @notice Official record of token balances for each account\n    mapping (address => uint96) internal balances;\n\n    /// @notice A record of each accounts delegate\n    mapping (address => address) public delegates;\n\n    /// @notice A checkpoint for marking number of votes from a given block\n    struct Checkpoint {\n        uint32 fromBlock;\n        uint96 votes;\n    }\n\n    /// @notice A record of votes checkpoints for each account, by index\n    mapping (address => mapping (uint32 => Checkpoint)) public checkpoints;\n\n    /// @notice The number of checkpoints for each account\n    mapping (address => uint32) public numCheckpoints;\n\n    /// @notice The EIP-712 typehash for the contract's domain\n    bytes32 public constant DOMAIN_TYPEHASH = keccak256(\"EIP712Domain(string name,uint256 chainId,address verifyingContract)\");\n\n    /// @notice The EIP-712 typehash for the delegation struct used by the contract\n    bytes32 public constant DELEGATION_TYPEHASH = keccak256(\"Delegation(address delegatee,uint256 nonce,uint256 expiry)\");\n\n    /// @notice The EIP-712 typehash for the permit struct used by the contract\n    bytes32 public constant PERMIT_TYPEHASH = keccak256(\"Permit(address owner,address spender,uint256 value,uint256 nonce,uint256 deadline)\");\n\n    /// @notice A record of states for signing / validating signatures\n    mapping (address => uint) public nonces;\n\n    /// @notice An event thats emitted when the minter address is changed\n    event MinterChanged(address minter, address newMinter);\n\n    /// @notice An event thats emitted when an account changes its delegate\n    event DelegateChanged(address indexed delegator, address indexed fromDelegate, address indexed toDelegate);\n\n    /// @notice An event thats emitted when a delegate account's vote balance changes\n    event DelegateVotesChanged(address indexed delegate, uint previousBalance, uint newBalance);\n\n    /// @notice The standard EIP-20 transfer event\n    event Transfer(address indexed from, address indexed to, uint256 amount);\n\n    /// @notice The standard EIP-20 approval event\n    event Approval(address indexed owner, address indexed spender, uint256 amount);\n\n    /**\n     * @notice Construct a new Vipe token\n     * @param account The initial account to grant all the tokens\n     * @param minter_ The account with minting ability\n     * @param mintingAllowedAfter_ The timestamp after which minting may occur\n     */\n    constructor(address account, address minter_, uint mintingAllowedAfter_) public {\n        require(mintingAllowedAfter_ >= block.timestamp, \"Vipe::constructor: minting can only begin after deployment\");\n\n        balances[account] = uint96(totalSupply);\n        emit Transfer(address(0), account, totalSupply);\n        minter = minter_;\n        emit MinterChanged(address(0), minter);\n        mintingAllowedAfter = mintingAllowedAfter_;\n    }\n\n    /**\n     * @notice Change the minter address\n     * @param minter_ The address of the new minter\n     */\n    function setMinter(address minter_) external {\n        require(msg.sender == minter, \"Vipe::setMinter: only the minter can change the minter address\");\n        emit MinterChanged(minter, minter_);\n        minter = minter_;\n    }\n\n    /**\n     * @notice Mint new tokens\n     * @param dst The address of the destination account\n     * @param rawAmount The number of tokens to be minted\n     */\n    function mint(address dst, uint rawAmount) external {\n        require(msg.sender == minter, \"Vipe::mint: only the minter can mint\");\n        require(block.timestamp >= mintingAllowedAfter, \"Vipe::mint: minting not allowed yet\");\n        require(dst != address(0), \"Vipe::mint: cannot transfer to the zero address\");\n\n        // record the mint\n        mintingAllowedAfter = SafeMath.add(block.timestamp, minimumTimeBetweenMints);\n\n        // mint the amount\n        uint96 amount = safe96(rawAmount, \"Vipe::mint: amount exceeds 96 bits\");\n        require(amount <= SafeMath.div(SafeMath.mul(totalSupply, mintCap), 100), \"Vipe::mint: exceeded mint cap\");\n        totalSupply = safe96(SafeMath.add(totalSupply, amount), \"Vipe::mint: totalSupply exceeds 96 bits\");\n\n        // transfer the amount to the recipient\n        balances[dst] = add96(balances[dst], amount, \"Vipe::mint: transfer amount overflows\");\n        emit Transfer(address(0), dst, amount);\n\n        // move delegates\n        _moveDelegates(address(0), delegates[dst], amount);\n    }\n\n    /**\n     * @notice Get the number of tokens `spender` is approved to spend on behalf of `account`\n     * @param account The address of the account holding the funds\n     * @param spender The address of the account spending the funds\n     * @return The number of tokens approved\n     */\n    function allowance(address account, address spender) external view returns (uint) {\n        return allowances[account][spender];\n    }\n\n    /**\n     * @notice Approve `spender` to transfer up to `amount` from `src`\n     * @dev This will overwrite the approval amount for `spender`\n     *  and is subject to issues noted [here](https://eips.ethereum.org/EIPS/eip-20#approve)\n     * @param spender The address of the account which may transfer tokens\n     * @param rawAmount The number of tokens that are approved (2^256-1 means infinite)\n     * @return Whether or not the approval succeeded\n     */\n    function approve(address spender, uint rawAmount) external returns (bool) {\n        uint96 amount;\n        if (rawAmount == uint(-1)) {\n            amount = uint96(-1);\n        } else {\n            amount = safe96(rawAmount, \"Vipe::approve: amount exceeds 96 bits\");\n        }\n\n        allowances[msg.sender][spender] = amount;\n\n        emit Approval(msg.sender, spender, amount);\n        return true;\n    }\n\n    /**\n     * @notice Triggers an approval from owner to spends\n     * @param owner The address to approve from\n     * @param spender The address to be approved\n     * @param rawAmount The number of tokens that are approved (2^256-1 means infinite)\n     * @param deadline The time at which to expire the signature\n     * @param v The recovery byte of the signature\n     * @param r Half of the ECDSA signature pair\n     * @param s Half of the ECDSA signature pair\n     */\n    function permit(address owner, address spender, uint rawAmount, uint deadline, uint8 v, bytes32 r, bytes32 s) external {\n        uint96 amount;\n        if (rawAmount == uint(-1)) {\n            amount = uint96(-1);\n        } else {\n            amount = safe96(rawAmount, \"Vipe::permit: amount exceeds 96 bits\");\n        }\n\n        bytes32 domainSeparator = keccak256(abi.encode(DOMAIN_TYPEHASH, keccak256(bytes(name)), getChainId(), address(this)));\n        bytes32 structHash = keccak256(abi.encode(PERMIT_TYPEHASH, owner, spender, rawAmount, nonces[owner]++, deadline));\n        bytes32 digest = keccak256(abi.encodePacked(\"\\x19\\x01\", domainSeparator, structHash));\n        address signatory = ecrecover(digest, v, r, s);\n        require(signatory != address(0), \"Vipe::permit: invalid signature\");\n        require(signatory == owner, \"Vipe::permit: unauthorized\");\n        require(now <= deadline, \"Vipe::permit: signature expired\");\n\n        allowances[owner][spender] = amount;\n\n        emit Approval(owner, spender, amount);\n    }\n\n    /**\n     * @notice Get the number of tokens held by the `account`\n     * @param account The address of the account to get the balance of\n     * @return The number of tokens held\n     */\n    function balanceOf(address account) external view returns (uint) {\n        return balances[account];\n    }\n\n    /**\n     * @notice Transfer `amount` tokens from `msg.sender` to `dst`\n     * @param dst The address of the destination account\n     * @param rawAmount The number of tokens to transfer\n     * @return Whether or not the transfer succeeded\n     */\n    function transfer(address dst, uint rawAmount) external returns (bool) {\n        uint96 amount = safe96(rawAmount, \"Vipe::transfer: amount exceeds 96 bits\");\n        _transferTokens(msg.sender, dst, amount);\n        return true;\n    }\n\n    /**\n     * @notice Transfer `amount` tokens from `src` to `dst`\n     * @param src The address of the source account\n     * @param dst The address of the destination account\n     * @param rawAmount The number of tokens to transfer\n     * @return Whether or not the transfer succeeded\n     */\n    function transferFrom(address src, address dst, uint rawAmount) external returns (bool) {\n        address spender = msg.sender;\n        uint96 spenderAllowance = allowances[src][spender];\n        uint96 amount = safe96(rawAmount, \"Vipe::approve: amount exceeds 96 bits\");\n\n        if (spender != src && spenderAllowance != uint96(-1)) {\n            uint96 newAllowance = sub96(spenderAllowance, amount, \"Vipe::transferFrom: transfer amount exceeds spender allowance\");\n            allowances[src][spender] = newAllowance;\n\n            emit Approval(src, spender, newAllowance);\n        }\n\n        _transferTokens(src, dst, amount);\n        return true;\n    }\n\n    /**\n     * @notice Delegate votes from `msg.sender` to `delegatee`\n     * @param delegatee The address to delegate votes to\n     */\n    function delegate(address delegatee) public {\n        return _delegate(msg.sender, delegatee);\n    }\n\n    /**\n     * @notice Delegates votes from signatory to `delegatee`\n     * @param delegatee The address to delegate votes to\n     * @param nonce The contract state required to match the signature\n     * @param expiry The time at which to expire the signature\n     * @param v The recovery byte of the signature\n     * @param r Half of the ECDSA signature pair\n     * @param s Half of the ECDSA signature pair\n     */\n    function delegateBySig(address delegatee, uint nonce, uint expiry, uint8 v, bytes32 r, bytes32 s) public {\n        bytes32 domainSeparator = keccak256(abi.encode(DOMAIN_TYPEHASH, keccak256(bytes(name)), getChainId(), address(this)));\n        bytes32 structHash = keccak256(abi.encode(DELEGATION_TYPEHASH, delegatee, nonce, expiry));\n        bytes32 digest = keccak256(abi.encodePacked(\"\\x19\\x01\", domainSeparator, structHash));\n        address signatory = ecrecover(digest, v, r, s);\n        require(signatory != address(0), \"Vipe::delegateBySig: invalid signature\");\n        require(nonce == nonces[signatory]++, \"Vipe::delegateBySig: invalid nonce\");\n        require(now <= expiry, \"Vipe::delegateBySig: signature expired\");\n        return _delegate(signatory, delegatee);\n    }\n\n    /**\n     * @notice Gets the current votes balance for `account`\n     * @param account The address to get votes balance\n     * @return The number of current votes for `account`\n     */\n    function getCurrentVotes(address account) external view returns (uint96) {\n        uint32 nCheckpoints = numCheckpoints[account];\n        return nCheckpoints > 0 ? checkpoints[account][nCheckpoints - 1].votes : 0;\n    }\n\n    /**\n     * @notice Determine the prior number of votes for an account as of a block number\n     * @dev Block number must be a finalized block or else this function will revert to prevent misinformation.\n     * @param account The address of the account to check\n     * @param blockNumber The block number to get the vote balance at\n     * @return The number of votes the account had as of the given block\n     */\n    function getPriorVotes(address account, uint blockNumber) public view returns (uint96) {\n        require(blockNumber < block.number, \"Vipe::getPriorVotes: not yet determined\");\n\n        uint32 nCheckpoints = numCheckpoints[account];\n        if (nCheckpoints == 0) {\n            return 0;\n        }\n\n        // First check most recent balance\n        if (checkpoints[account][nCheckpoints - 1].fromBlock <= blockNumber) {\n            return checkpoints[account][nCheckpoints - 1].votes;\n        }\n\n        // Next check implicit zero balance\n        if (checkpoints[account][0].fromBlock > blockNumber) {\n            return 0;\n        }\n\n        uint32 lower = 0;\n        uint32 upper = nCheckpoints - 1;\n        while (upper > lower) {\n            uint32 center = upper - (upper - lower) / 2; // ceil, avoiding overflow\n            Checkpoint memory cp = checkpoints[account][center];\n            if (cp.fromBlock == blockNumber) {\n                return cp.votes;\n            } else if (cp.fromBlock < blockNumber) {\n                lower = center;\n            } else {\n                upper = center - 1;\n            }\n        }\n        return checkpoints[account][lower].votes;\n    }\n\n    function _delegate(address delegator, address delegatee) internal {\n        address currentDelegate = delegates[delegator];\n        uint96 delegatorBalance = balances[delegator];\n        delegates[delegator] = delegatee;\n\n        emit DelegateChanged(delegator, currentDelegate, delegatee);\n\n        _moveDelegates(currentDelegate, delegatee, delegatorBalance);\n    }\n\n    function _transferTokens(address src, address dst, uint96 amount) internal {\n        require(src != address(0), \"Vipe::_transferTokens: cannot transfer from the zero address\");\n        require(dst != address(0), \"Vipe::_transferTokens: cannot transfer to the zero address\");\n\n        balances[src] = sub96(balances[src], amount, \"Vipe::_transferTokens: transfer amount exceeds balance\");\n        balances[dst] = add96(balances[dst], amount, \"Vipe::_transferTokens: transfer amount overflows\");\n        emit Transfer(src, dst, amount);\n\n        _moveDelegates(delegates[src], delegates[dst], amount);\n    }\n\n    function _moveDelegates(address srcRep, address dstRep, uint96 amount) internal {\n        if (srcRep != dstRep && amount > 0) {\n            if (srcRep != address(0)) {\n                uint32 srcRepNum = numCheckpoints[srcRep];\n                uint96 srcRepOld = srcRepNum > 0 ? checkpoints[srcRep][srcRepNum - 1].votes : 0;\n                uint96 srcRepNew = sub96(srcRepOld, amount, \"Vipe::_moveVotes: vote amount underflows\");\n                _writeCheckpoint(srcRep, srcRepNum, srcRepOld, srcRepNew);\n            }\n\n            if (dstRep != address(0)) {\n                uint32 dstRepNum = numCheckpoints[dstRep];\n                uint96 dstRepOld = dstRepNum > 0 ? checkpoints[dstRep][dstRepNum - 1].votes : 0;\n                uint96 dstRepNew = add96(dstRepOld, amount, \"Vipe::_moveVotes: vote amount overflows\");\n                _writeCheckpoint(dstRep, dstRepNum, dstRepOld, dstRepNew);\n            }\n        }\n    }\n\n    function _writeCheckpoint(address delegatee, uint32 nCheckpoints, uint96 oldVotes, uint96 newVotes) internal {\n      uint32 blockNumber = safe32(block.number, \"Vipe::_writeCheckpoint: block number exceeds 32 bits\");\n\n      if (nCheckpoints > 0 && checkpoints[delegatee][nCheckpoints - 1].fromBlock == blockNumber) {\n          checkpoints[delegatee][nCheckpoints - 1].votes = newVotes;\n      } else {\n          checkpoints[delegatee][nCheckpoints] = Checkpoint(blockNumber, newVotes);\n          numCheckpoints[delegatee] = nCheckpoints + 1;\n      }\n\n      emit DelegateVotesChanged(delegatee, oldVotes, newVotes);\n    }\n\n    function safe32(uint n, string memory errorMessage) internal pure returns (uint32) {\n        require(n < 2**32, errorMessage);\n        return uint32(n);\n    }\n\n    function safe96(uint n, string memory errorMessage) internal pure returns (uint96) {\n        require(n < 2**96, errorMessage);\n        return uint96(n);\n    }\n\n    function add96(uint96 a, uint96 b, string memory errorMessage) internal pure returns (uint96) {\n        uint96 c = a + b;\n        require(c >= a, errorMessage);\n        return c;\n    }\n\n    function sub96(uint96 a, uint96 b, string memory errorMessage) internal pure returns (uint96) {\n        require(b <= a, errorMessage);\n        return a - b;\n    }\n\n    function getChainId() internal pure returns (uint) {\n        uint256 chainId;\n        assembly { chainId := chainid() }\n        return chainId;\n    }\n}",
  "sourcePath": "/Users/mingcai/Documents/GitHub/ViperSwap/contracts/Viper.sol",
  "compiler": {
    "name": "solc",
    "version": "0.5.17+commit.d19bba13.Emscripten.clang"
  },
  "schemaVersion": "3.0.18",
  "updatedAt": "2021-11-15T04:37:29.246Z",
  "devdoc": {
    "methods": {
      "allowance(address,address)": {
        "params": {
          "account": "The address of the account holding the funds",
          "spender": "The address of the account spending the funds"
        },
        "return": "The number of tokens approved"
      },
      "approve(address,uint256)": {
        "details": "This will overwrite the approval amount for `spender` and is subject to issues noted [here](https://eips.ethereum.org/EIPS/eip-20#approve)",
        "params": {
          "rawAmount": "The number of tokens that are approved (2^256-1 means infinite)",
          "spender": "The address of the account which may transfer tokens"
        },
        "return": "Whether or not the approval succeeded"
      },
      "balanceOf(address)": {
        "params": {
          "account": "The address of the account to get the balance of"
        },
        "return": "The number of tokens held"
      },
      "constructor": {
        "params": {
          "account": "The initial account to grant all the tokens",
          "minter_": "The account with minting ability",
          "mintingAllowedAfter_": "The timestamp after which minting may occur"
        }
      },
      "delegate(address)": {
        "params": {
          "delegatee": "The address to delegate votes to"
        }
      },
      "delegateBySig(address,uint256,uint256,uint8,bytes32,bytes32)": {
        "params": {
          "delegatee": "The address to delegate votes to",
          "expiry": "The time at which to expire the signature",
          "nonce": "The contract state required to match the signature",
          "r": "Half of the ECDSA signature pair",
          "s": "Half of the ECDSA signature pair",
          "v": "The recovery byte of the signature"
        }
      },
      "getCurrentVotes(address)": {
        "params": {
          "account": "The address to get votes balance"
        },
        "return": "The number of current votes for `account`"
      },
      "getPriorVotes(address,uint256)": {
        "details": "Block number must be a finalized block or else this function will revert to prevent misinformation.",
        "params": {
          "account": "The address of the account to check",
          "blockNumber": "The block number to get the vote balance at"
        },
        "return": "The number of votes the account had as of the given block"
      },
      "mint(address,uint256)": {
        "params": {
          "dst": "The address of the destination account",
          "rawAmount": "The number of tokens to be minted"
        }
      },
      "permit(address,address,uint256,uint256,uint8,bytes32,bytes32)": {
        "params": {
          "deadline": "The time at which to expire the signature",
          "owner": "The address to approve from",
          "r": "Half of the ECDSA signature pair",
          "rawAmount": "The number of tokens that are approved (2^256-1 means infinite)",
          "s": "Half of the ECDSA signature pair",
          "spender": "The address to be approved",
          "v": "The recovery byte of the signature"
        }
      },
      "setMinter(address)": {
        "params": {
          "minter_": "The address of the new minter"
        }
      },
      "transfer(address,uint256)": {
        "params": {
          "dst": "The address of the destination account",
          "rawAmount": "The number of tokens to transfer"
        },
        "return": "Whether or not the transfer succeeded"
      },
      "transferFrom(address,address,uint256)": {
        "params": {
          "dst": "The address of the destination account",
          "rawAmount": "The number of tokens to transfer",
          "src": "The address of the source account"
        },
        "return": "Whether or not the transfer succeeded"
      }
    }
  },
  "userdoc": {
    "methods": {
      "allowance(address,address)": {
        "notice": "Get the number of tokens `spender` is approved to spend on behalf of `account`"
      },
      "approve(address,uint256)": {
        "notice": "Approve `spender` to transfer up to `amount` from `src`"
      },
      "balanceOf(address)": {
        "notice": "Get the number of tokens held by the `account`"
      },
      "constructor": "Construct a new Vipe token",
      "delegate(address)": {
        "notice": "Delegate votes from `msg.sender` to `delegatee`"
      },
      "delegateBySig(address,uint256,uint256,uint8,bytes32,bytes32)": {
        "notice": "Delegates votes from signatory to `delegatee`"
      },
      "getCurrentVotes(address)": {
        "notice": "Gets the current votes balance for `account`"
      },
      "getPriorVotes(address,uint256)": {
        "notice": "Determine the prior number of votes for an account as of a block number"
      },
      "mint(address,uint256)": {
        "notice": "Mint new tokens"
      },
      "permit(address,address,uint256,uint256,uint8,bytes32,bytes32)": {
        "notice": "Triggers an approval from owner to spends"
      },
      "setMinter(address)": {
        "notice": "Change the minter address"
      },
      "transfer(address,uint256)": {
        "notice": "Transfer `amount` tokens from `msg.sender` to `dst`"
      },
      "transferFrom(address,address,uint256)": {
        "notice": "Transfer `amount` tokens from `src` to `dst`"
      }
    }
  }
}