{
  "contractName": "ViperFactory",
  "abi": [
    {
      "inputs": [
        {
          "internalType": "address",
          "name": "_feeToSetter",
          "type": "address"
        }
      ],
      "payable": false,
      "stateMutability": "nonpayable",
      "type": "constructor"
    },
    {
      "anonymous": false,
      "inputs": [
        {
          "indexed": true,
          "internalType": "address",
          "name": "token0",
          "type": "address"
        },
        {
          "indexed": true,
          "internalType": "address",
          "name": "token1",
          "type": "address"
        },
        {
          "indexed": false,
          "internalType": "address",
          "name": "pair",
          "type": "address"
        },
        {
          "indexed": false,
          "internalType": "uint256",
          "name": "",
          "type": "uint256"
        }
      ],
      "name": "PairCreated",
      "type": "event"
    },
    {
      "constant": true,
      "inputs": [],
      "name": "INIT_CODE_PAIR_HASH",
      "outputs": [
        {
          "internalType": "bytes32",
          "name": "",
          "type": "bytes32"
        }
      ],
      "payable": false,
      "stateMutability": "view",
      "type": "function"
    },
    {
      "constant": true,
      "inputs": [
        {
          "internalType": "uint256",
          "name": "",
          "type": "uint256"
        }
      ],
      "name": "allPairs",
      "outputs": [
        {
          "internalType": "address",
          "name": "",
          "type": "address"
        }
      ],
      "payable": false,
      "stateMutability": "view",
      "type": "function"
    },
    {
      "constant": true,
      "inputs": [],
      "name": "feeTo",
      "outputs": [
        {
          "internalType": "address",
          "name": "",
          "type": "address"
        }
      ],
      "payable": false,
      "stateMutability": "view",
      "type": "function"
    },
    {
      "constant": true,
      "inputs": [],
      "name": "feeToSetter",
      "outputs": [
        {
          "internalType": "address",
          "name": "",
          "type": "address"
        }
      ],
      "payable": false,
      "stateMutability": "view",
      "type": "function"
    },
    {
      "constant": true,
      "inputs": [
        {
          "internalType": "address",
          "name": "",
          "type": "address"
        },
        {
          "internalType": "address",
          "name": "",
          "type": "address"
        }
      ],
      "name": "getPair",
      "outputs": [
        {
          "internalType": "address",
          "name": "",
          "type": "address"
        }
      ],
      "payable": false,
      "stateMutability": "view",
      "type": "function"
    },
    {
      "constant": true,
      "inputs": [],
      "name": "allPairsLength",
      "outputs": [
        {
          "internalType": "uint256",
          "name": "",
          "type": "uint256"
        }
      ],
      "payable": false,
      "stateMutability": "view",
      "type": "function"
    },
    {
      "constant": false,
      "inputs": [
        {
          "internalType": "address",
          "name": "tokenA",
          "type": "address"
        },
        {
          "internalType": "address",
          "name": "tokenB",
          "type": "address"
        }
      ],
      "name": "createPair",
      "outputs": [
        {
          "internalType": "address",
          "name": "pair",
          "type": "address"
        }
      ],
      "payable": false,
      "stateMutability": "nonpayable",
      "type": "function"
    },
    {
      "constant": false,
      "inputs": [
        {
          "internalType": "address",
          "name": "_feeTo",
          "type": "address"
        }
      ],
      "name": "setFeeTo",
      "outputs": [],
      "payable": false,
      "stateMutability": "nonpayable",
      "type": "function"
    },
    {
      "constant": false,
      "inputs": [
        {
          "internalType": "address",
          "name": "_feeToSetter",
          "type": "address"
        }
      ],
      "name": "setFeeToSetter",
      "outputs": [],
      "payable": false,
      "stateMutability": "nonpayable",
      "type": "function"
    }
  ],
  "bytecode": "0x608060405234801561001057600080fd5b50604051614b0c380380614b0c8339818101604052602081101561003357600080fd5b810190808051906020019092919050505080600160006101000a81548173ffffffffffffffffffffffffffffffffffffffff021916908373ffffffffffffffffffffffffffffffffffffffff16021790555050614a77806100956000396000f3fe608060405234801561001057600080fd5b50600436106100935760003560e01c80635855a25a116100665780635855a25a146101b8578063a2e74af6146101d6578063c9c653961461021a578063e6a43905146102be578063f46901ed1461036257610093565b8063017e7e5814610098578063094b7415146100e25780631e3dd18b1461012c578063574f2ba31461019a575b600080fd5b6100a06103a6565b604051808273ffffffffffffffffffffffffffffffffffffffff1673ffffffffffffffffffffffffffffffffffffffff16815260200191505060405180910390f35b6100ea6103cb565b604051808273ffffffffffffffffffffffffffffffffffffffff1673ffffffffffffffffffffffffffffffffffffffff16815260200191505060405180910390f35b6101586004803603602081101561014257600080fd5b81019080803590602001909291905050506103f1565b604051808273ffffffffffffffffffffffffffffffffffffffff1673ffffffffffffffffffffffffffffffffffffffff16815260200191505060405180910390f35b6101a261042d565b6040518082815260200191505060405180910390f35b6101c061043a565b6040518082815260200191505060405180910390f35b610218600480360360208110156101ec57600080fd5b81019080803573ffffffffffffffffffffffffffffffffffffffff1690602001909291905050506104d2565b005b61027c6004803603604081101561023057600080fd5b81019080803573ffffffffffffffffffffffffffffffffffffffff169060200190929190803573ffffffffffffffffffffffffffffffffffffffff1690602001909291905050506105d9565b604051808273ffffffffffffffffffffffffffffffffffffffff1673ffffffffffffffffffffffffffffffffffffffff16815260200191505060405180910390f35b610320600480360360408110156102d457600080fd5b81019080803573ffffffffffffffffffffffffffffffffffffffff169060200190929190803573ffffffffffffffffffffffffffffffffffffffff169060200190929190505050610cb6565b604051808273ffffffffffffffffffffffffffffffffffffffff1673ffffffffffffffffffffffffffffffffffffffff16815260200191505060405180910390f35b6103a46004803603602081101561037857600080fd5b81019080803573ffffffffffffffffffffffffffffffffffffffff169060200190929190505050610cf8565b005b6000809054906101000a900473ffffffffffffffffffffffffffffffffffffffff1681565b600160009054906101000a900473ffffffffffffffffffffffffffffffffffffffff1681565b600381815481106103fe57fe5b906000526020600020016000915054906101000a900473ffffffffffffffffffffffffffffffffffffffff1681565b6000600380549050905090565b6040518060200161044a90610dfe565b6020820181038252601f19601f820116604052506040516020018082805190602001908083835b602083106104945780518252602082019150602081019050602083039250610471565b6001836020036101000a0380198251168184511680821785525050505050509050019150506040516020818303038152906040528051906020012081565b600160009054906101000a900473ffffffffffffffffffffffffffffffffffffffff1673ffffffffffffffffffffffffffffffffffffffff163373ffffffffffffffffffffffffffffffffffffffff1614610595576040517f08c379a00000000000000000000000000000000000000000000000000000000081526004018080602001828103825260108152602001807f56697065723a20464f5242494444454e0000000000000000000000000000000081525060200191505060405180910390fd5b80600160006101000a81548173ffffffffffffffffffffffffffffffffffffffff021916908373ffffffffffffffffffffffffffffffffffffffff16021790555050565b60008173ffffffffffffffffffffffffffffffffffffffff168373ffffffffffffffffffffffffffffffffffffffff16141561067d576040517f08c379a000000000000000000000000000000000000000000000000000000000815260040180806020018281038252601a8152602001807f56697065723a204944454e544943414c5f41444452455353455300000000000081525060200191505060405180910390fd5b6000808373ffffffffffffffffffffffffffffffffffffffff168573ffffffffffffffffffffffffffffffffffffffff16106106ba5783856106bd565b84845b91509150600073ffffffffffffffffffffffffffffffffffffffff168273ffffffffffffffffffffffffffffffffffffffff161415610764576040517f08c379a00000000000000000000000000000000000000000000000000000000081526004018080602001828103825260138152602001807f56697065723a205a45524f5f414444524553530000000000000000000000000081525060200191505060405180910390fd5b600073ffffffffffffffffffffffffffffffffffffffff16600260008473ffffffffffffffffffffffffffffffffffffffff1673ffffffffffffffffffffffffffffffffffffffff16815260200190815260200160002060008373ffffffffffffffffffffffffffffffffffffffff1673ffffffffffffffffffffffffffffffffffffffff16815260200190815260200160002060009054906101000a900473ffffffffffffffffffffffffffffffffffffffff1673ffffffffffffffffffffffffffffffffffffffff16146108a2576040517f08c379a00000000000000000000000000000000000000000000000000000000081526004018080602001828103825260128152602001807f56697065723a20504149525f455849535453000000000000000000000000000081525060200191505060405180910390fd5b6060604051806020016108b490610dfe565b6020820181038252601f19601f82011660405250905060008383604051602001808373ffffffffffffffffffffffffffffffffffffffff1673ffffffffffffffffffffffffffffffffffffffff1660601b81526014018273ffffffffffffffffffffffffffffffffffffffff1673ffffffffffffffffffffffffffffffffffffffff1660601b815260140192505050604051602081830303815290604052805190602001209050808251602084016000f594508473ffffffffffffffffffffffffffffffffffffffff1663485cc95585856040518363ffffffff1660e01b8152600401808373ffffffffffffffffffffffffffffffffffffffff1673ffffffffffffffffffffffffffffffffffffffff1681526020018273ffffffffffffffffffffffffffffffffffffffff1673ffffffffffffffffffffffffffffffffffffffff16815260200192505050600060405180830381600087803b158015610a1a57600080fd5b505af1158015610a2e573d6000803e3d6000fd5b5050505084600260008673ffffffffffffffffffffffffffffffffffffffff1673ffffffffffffffffffffffffffffffffffffffff16815260200190815260200160002060008573ffffffffffffffffffffffffffffffffffffffff1673ffffffffffffffffffffffffffffffffffffffff16815260200190815260200160002060006101000a81548173ffffffffffffffffffffffffffffffffffffffff021916908373ffffffffffffffffffffffffffffffffffffffff16021790555084600260008573ffffffffffffffffffffffffffffffffffffffff1673ffffffffffffffffffffffffffffffffffffffff16815260200190815260200160002060008673ffffffffffffffffffffffffffffffffffffffff1673ffffffffffffffffffffffffffffffffffffffff16815260200190815260200160002060006101000a81548173ffffffffffffffffffffffffffffffffffffffff021916908373ffffffffffffffffffffffffffffffffffffffff16021790555060038590806001815401808255809150509060018203906000526020600020016000909192909190916101000a81548173ffffffffffffffffffffffffffffffffffffffff021916908373ffffffffffffffffffffffffffffffffffffffff160217905550508273ffffffffffffffffffffffffffffffffffffffff168473ffffffffffffffffffffffffffffffffffffffff167f0d3648bd0f6ba80134a33ba9275ac585d9d315f0ad8355cddefde31afa28d0e987600380549050604051808373ffffffffffffffffffffffffffffffffffffffff1673ffffffffffffffffffffffffffffffffffffffff1681526020018281526020019250505060405180910390a35050505092915050565b60026020528160005260406000206020528060005260406000206000915091509054906101000a900473ffffffffffffffffffffffffffffffffffffffff1681565b600160009054906101000a900473ffffffffffffffffffffffffffffffffffffffff1673ffffffffffffffffffffffffffffffffffffffff163373ffffffffffffffffffffffffffffffffffffffff1614610dbb576040517f08c379a00000000000000000000000000000000000000000000000000000000081526004018080602001828103825260108152602001807f56697065723a20464f5242494444454e0000000000000000000000000000000081525060200191505060405180910390fd5b806000806101000a81548173ffffffffffffffffffffffffffffffffffffffff021916908373ffffffffffffffffffffffffffffffffffffffff16021790555050565b613c3780610e0c8339019056fe60806040526001600c5534801561001557600080fd5b5060004690506040518080613be560529139605201905060405180910390206040518060400160405280600981526020017f5669706572204c50730000000000000000000000000000000000000000000000815250805190602001206040518060400160405280600181526020017f3100000000000000000000000000000000000000000000000000000000000000815250805190602001208330604051602001808681526020018581526020018481526020018381526020018273ffffffffffffffffffffffffffffffffffffffff1673ffffffffffffffffffffffffffffffffffffffff16815260200195505050505050604051602081830303815290604052805190602001206003819055505033600560006101000a81548173ffffffffffffffffffffffffffffffffffffffff021916908373ffffffffffffffffffffffffffffffffffffffff160217905550613a70806101756000396000f3fe608060405234801561001057600080fd5b50600436106101a95760003560e01c80636a627842116100f9578063ba9a7a5611610097578063d21220a711610071578063d21220a7146108c4578063d505accf1461090e578063dd62ed3e146109a7578063fff6cae914610a1f576101a9565b8063ba9a7a5614610818578063bc25cf7714610836578063c45a01551461087a576101a9565b80637ecebe00116100d35780637ecebe001461067857806389afcb44146106d057806395d89b411461072f578063a9059cbb146107b2576101a9565b80636a627842146105aa57806370a08231146106025780637464fc3d1461065a576101a9565b806323b872dd116101665780633644e515116101405780633644e515146104ec578063485cc9551461050a5780635909c0d51461056e5780635a3d54931461058c576101a9565b806323b872dd1461042457806330adf81f146104aa578063313ce567146104c8576101a9565b8063022c0d9f146101ae57806306fdde031461025b5780630902f1ac146102de578063095ea7b3146103565780630dfe1681146103bc57806318160ddd14610406575b600080fd5b610259600480360360808110156101c457600080fd5b810190808035906020019092919080359060200190929190803573ffffffffffffffffffffffffffffffffffffffff1690602001909291908035906020019064010000000081111561021557600080fd5b82018360208201111561022757600080fd5b8035906020019184600183028401116401000000008311171561024957600080fd5b9091929391929390505050610a29565b005b610263611250565b6040518080602001828103825283818151815260200191508051906020019080838360005b838110156102a3578082015181840152602081019050610288565b50505050905090810190601f1680156102d05780820380516001836020036101000a031916815260200191505b509250505060405180910390f35b6102e6611289565b60405180846dffffffffffffffffffffffffffff166dffffffffffffffffffffffffffff168152602001836dffffffffffffffffffffffffffff166dffffffffffffffffffffffffffff1681526020018263ffffffff1663ffffffff168152602001935050505060405180910390f35b6103a26004803603604081101561036c57600080fd5b81019080803573ffffffffffffffffffffffffffffffffffffffff169060200190929190803590602001909291905050506112e6565b604051808215151515815260200191505060405180910390f35b6103c46112fd565b604051808273ffffffffffffffffffffffffffffffffffffffff1673ffffffffffffffffffffffffffffffffffffffff16815260200191505060405180910390f35b61040e611323565b6040518082815260200191505060405180910390f35b6104906004803603606081101561043a57600080fd5b81019080803573ffffffffffffffffffffffffffffffffffffffff169060200190929190803573ffffffffffffffffffffffffffffffffffffffff16906020019092919080359060200190929190505050611329565b604051808215151515815260200191505060405180910390f35b6104b26114f4565b6040518082815260200191505060405180910390f35b6104d061151b565b604051808260ff1660ff16815260200191505060405180910390f35b6104f4611520565b6040518082815260200191505060405180910390f35b61056c6004803603604081101561052057600080fd5b81019080803573ffffffffffffffffffffffffffffffffffffffff169060200190929190803573ffffffffffffffffffffffffffffffffffffffff169060200190929190505050611526565b005b61057661166f565b6040518082815260200191505060405180910390f35b610594611675565b6040518082815260200191505060405180910390f35b6105ec600480360360208110156105c057600080fd5b81019080803573ffffffffffffffffffffffffffffffffffffffff16906020019092919050505061167b565b6040518082815260200191505060405180910390f35b6106446004803603602081101561061857600080fd5b81019080803573ffffffffffffffffffffffffffffffffffffffff169060200190929190505050611b2c565b6040518082815260200191505060405180910390f35b610662611b44565b6040518082815260200191505060405180910390f35b6106ba6004803603602081101561068e57600080fd5b81019080803573ffffffffffffffffffffffffffffffffffffffff169060200190929190505050611b4a565b6040518082815260200191505060405180910390f35b610712600480360360208110156106e657600080fd5b81019080803573ffffffffffffffffffffffffffffffffffffffff169060200190929190505050611b62565b604051808381526020018281526020019250505060405180910390f35b61073761214f565b6040518080602001828103825283818151815260200191508051906020019080838360005b8381101561077757808201518184015260208101905061075c565b50505050905090810190601f1680156107a45780820380516001836020036101000a031916815260200191505b509250505060405180910390f35b6107fe600480360360408110156107c857600080fd5b81019080803573ffffffffffffffffffffffffffffffffffffffff16906020019092919080359060200190929190505050612188565b604051808215151515815260200191505060405180910390f35b61082061219f565b6040518082815260200191505060405180910390f35b6108786004803603602081101561084c57600080fd5b81019080803573ffffffffffffffffffffffffffffffffffffffff1690602001909291905050506121a5565b005b610882612480565b604051808273ffffffffffffffffffffffffffffffffffffffff1673ffffffffffffffffffffffffffffffffffffffff16815260200191505060405180910390f35b6108cc6124a6565b604051808273ffffffffffffffffffffffffffffffffffffffff1673ffffffffffffffffffffffffffffffffffffffff16815260200191505060405180910390f35b6109a5600480360360e081101561092457600080fd5b81019080803573ffffffffffffffffffffffffffffffffffffffff169060200190929190803573ffffffffffffffffffffffffffffffffffffffff1690602001909291908035906020019092919080359060200190929190803560ff16906020019092919080359060200190929190803590602001909291905050506124cc565b005b610a09600480360360408110156109bd57600080fd5b81019080803573ffffffffffffffffffffffffffffffffffffffff169060200190929190803573ffffffffffffffffffffffffffffffffffffffff169060200190929190505050612810565b6040518082815260200191505060405180910390f35b610a27612835565b005b6001600c5414610aa1576040517f08c379a000000000000000000000000000000000000000000000000000000000815260040180806020018281038252600d8152602001807f56697065723a204c4f434b45440000000000000000000000000000000000000081525060200191505060405180910390fd5b6000600c819055506000851180610ab85750600084115b610b0d576040517f08c379a00000000000000000000000000000000000000000000000000000000081526004018080602001828103825260218152602001806139b26021913960400191505060405180910390fd5b600080610b18611289565b5091509150816dffffffffffffffffffffffffffff1687108015610b4b5750806dffffffffffffffffffffffffffff1686105b610bbd576040517f08c379a000000000000000000000000000000000000000000000000000000000815260040180806020018281038252601d8152602001807f56697065723a20494e53554646494349454e545f4c495155494449545900000081525060200191505060405180910390fd5b6000806000600660009054906101000a900473ffffffffffffffffffffffffffffffffffffffff1690506000600760009054906101000a900473ffffffffffffffffffffffffffffffffffffffff1690508173ffffffffffffffffffffffffffffffffffffffff168973ffffffffffffffffffffffffffffffffffffffff1614158015610c7657508073ffffffffffffffffffffffffffffffffffffffff168973ffffffffffffffffffffffffffffffffffffffff1614155b610ce8576040517f08c379a00000000000000000000000000000000000000000000000000000000081526004018080602001828103825260118152602001807f56697065723a20494e56414c49445f544f00000000000000000000000000000081525060200191505060405180910390fd5b60008b1115610cfd57610cfc828a8d612ab5565b5b60008a1115610d1257610d11818a8c612ab5565b5b6000888890501115610dfa578873ffffffffffffffffffffffffffffffffffffffff1663ce12c71b338d8d8c8c6040518663ffffffff1660e01b8152600401808673ffffffffffffffffffffffffffffffffffffffff1673ffffffffffffffffffffffffffffffffffffffff168152602001858152602001848152602001806020018281038252848482818152602001925080828437600081840152601f19601f8201169050808301925050509650505050505050600060405180830381600087803b158015610de157600080fd5b505af1158015610df5573d6000803e3d6000fd5b505050505b8173ffffffffffffffffffffffffffffffffffffffff166370a08231306040518263ffffffff1660e01b8152600401808273ffffffffffffffffffffffffffffffffffffffff1673ffffffffffffffffffffffffffffffffffffffff16815260200191505060206040518083038186803b158015610e7757600080fd5b505afa158015610e8b573d6000803e3d6000fd5b505050506040513d6020811015610ea157600080fd5b810190808051906020019092919050505093508073ffffffffffffffffffffffffffffffffffffffff166370a08231306040518263ffffffff1660e01b8152600401808273ffffffffffffffffffffffffffffffffffffffff1673ffffffffffffffffffffffffffffffffffffffff16815260200191505060206040518083038186803b158015610f3157600080fd5b505afa158015610f45573d6000803e3d6000fd5b505050506040513d6020811015610f5b57600080fd5b810190808051906020019092919050505092505050600089856dffffffffffffffffffffffffffff16038311610f92576000610fa8565b89856dffffffffffffffffffffffffffff160383035b9050600089856dffffffffffffffffffffffffffff16038311610fcc576000610fe2565b89856dffffffffffffffffffffffffffff160383035b90506000821180610ff35750600081115b611065576040517f08c379a00000000000000000000000000000000000000000000000000000000081526004018080602001828103825260208152602001807f56697065723a20494e53554646494349454e545f494e5055545f414d4f554e5481525060200191505060405180910390fd5b60006110a161107e600285612d0290919063ffffffff16565b6110936103e888612d0290919063ffffffff16565b612d8890919063ffffffff16565b905060006110df6110bc600285612d0290919063ffffffff16565b6110d16103e888612d0290919063ffffffff16565b612d8890919063ffffffff16565b9050611129620f424061111b896dffffffffffffffffffffffffffff168b6dffffffffffffffffffffffffffff16612d0290919063ffffffff16565b612d0290919063ffffffff16565b61113c8284612d0290919063ffffffff16565b10156111b0576040517f08c379a00000000000000000000000000000000000000000000000000000000081526004018080602001828103825260088152602001807f56697065723a204b00000000000000000000000000000000000000000000000081525060200191505060405180910390fd5b50506111be84848888612e11565b8873ffffffffffffffffffffffffffffffffffffffff163373ffffffffffffffffffffffffffffffffffffffff167fd78ad95fa46c994b6551d0da85fc275fe613ce37657fb8d5e3d130840159d82284848f8f6040518085815260200184815260200183815260200182815260200194505050505060405180910390a35050505050506001600c819055505050505050565b6040518060400160405280600981526020017f5669706572204c5073000000000000000000000000000000000000000000000081525081565b6000806000600860009054906101000a90046dffffffffffffffffffffffffffff1692506008600e9054906101000a90046dffffffffffffffffffffffffffff1691506008601c9054906101000a900463ffffffff169050909192565b60006112f333848461318f565b6001905092915050565b600660009054906101000a900473ffffffffffffffffffffffffffffffffffffffff1681565b60005481565b60007fffffffffffffffffffffffffffffffffffffffffffffffffffffffffffffffff600260008673ffffffffffffffffffffffffffffffffffffffff1673ffffffffffffffffffffffffffffffffffffffff16815260200190815260200160002060003373ffffffffffffffffffffffffffffffffffffffff1673ffffffffffffffffffffffffffffffffffffffff16815260200190815260200160002054146114de5761145d82600260008773ffffffffffffffffffffffffffffffffffffffff1673ffffffffffffffffffffffffffffffffffffffff16815260200190815260200160002060003373ffffffffffffffffffffffffffffffffffffffff1673ffffffffffffffffffffffffffffffffffffffff16815260200190815260200160002054612d8890919063ffffffff16565b600260008673ffffffffffffffffffffffffffffffffffffffff1673ffffffffffffffffffffffffffffffffffffffff16815260200190815260200160002060003373ffffffffffffffffffffffffffffffffffffffff1673ffffffffffffffffffffffffffffffffffffffff168152602001908152602001600020819055505b6114e984848461327a565b600190509392505050565b7f6e71edae12b1b97f4d1f60370fef10105fa2faae0126114a169c64845d6126c960001b81565b601281565b60035481565b600560009054906101000a900473ffffffffffffffffffffffffffffffffffffffff1673ffffffffffffffffffffffffffffffffffffffff163373ffffffffffffffffffffffffffffffffffffffff16146115e9576040517f08c379a00000000000000000000000000000000000000000000000000000000081526004018080602001828103825260108152602001807f56697065723a20464f5242494444454e0000000000000000000000000000000081525060200191505060405180910390fd5b81600660006101000a81548173ffffffffffffffffffffffffffffffffffffffff021916908373ffffffffffffffffffffffffffffffffffffffff16021790555080600760006101000a81548173ffffffffffffffffffffffffffffffffffffffff021916908373ffffffffffffffffffffffffffffffffffffffff1602179055505050565b60095481565b600a5481565b60006001600c54146116f5576040517f08c379a000000000000000000000000000000000000000000000000000000000815260040180806020018281038252600d8152602001807f56697065723a204c4f434b45440000000000000000000000000000000000000081525060200191505060405180910390fd5b6000600c81905550600080611708611289565b50915091506000600660009054906101000a900473ffffffffffffffffffffffffffffffffffffffff1673ffffffffffffffffffffffffffffffffffffffff166370a08231306040518263ffffffff1660e01b8152600401808273ffffffffffffffffffffffffffffffffffffffff1673ffffffffffffffffffffffffffffffffffffffff16815260200191505060206040518083038186803b1580156117ae57600080fd5b505afa1580156117c2573d6000803e3d6000fd5b505050506040513d60208110156117d857600080fd5b810190808051906020019092919050505090506000600760009054906101000a900473ffffffffffffffffffffffffffffffffffffffff1673ffffffffffffffffffffffffffffffffffffffff166370a08231306040518263ffffffff1660e01b8152600401808273ffffffffffffffffffffffffffffffffffffffff1673ffffffffffffffffffffffffffffffffffffffff16815260200191505060206040518083038186803b15801561188c57600080fd5b505afa1580156118a0573d6000803e3d6000fd5b505050506040513d60208110156118b657600080fd5b8101908080519060200190929190505050905060006118ee856dffffffffffffffffffffffffffff1684612d8890919063ffffffff16565b90506000611915856dffffffffffffffffffffffffffff1684612d8890919063ffffffff16565b90506000611923878761340e565b90506000805490506000811415611977576119636103e86119556119508688612d0290919063ffffffff16565b6135ef565b612d8890919063ffffffff16565b985061197260006103e8613651565b6119da565b6119d7886dffffffffffffffffffffffffffff1661199e8387612d0290919063ffffffff16565b816119a557fe5b04886dffffffffffffffffffffffffffff166119ca8487612d0290919063ffffffff16565b816119d157fe5b0461376b565b98505b60008911611a33576040517f08c379a00000000000000000000000000000000000000000000000000000000081526004018080602001828103825260248152602001806139d36024913960400191505060405180910390fd5b611a3d8a8a613651565b611a4986868a8a612e11565b8115611ac157611aba6008600e9054906101000a90046dffffffffffffffffffffffffffff166dffffffffffffffffffffffffffff16600860009054906101000a90046dffffffffffffffffffffffffffff166dffffffffffffffffffffffffffff16612d0290919063ffffffff16565b600b819055505b3373ffffffffffffffffffffffffffffffffffffffff167f4c209b5fc8ad50758f13e2e1088ba56a560dff690a1c6fef26394f4c03821c4f8585604051808381526020018281526020019250505060405180910390a250505050505050506001600c81905550919050565b60016020528060005260406000206000915090505481565b600b5481565b60046020528060005260406000206000915090505481565b6000806001600c5414611bdd576040517f08c379a000000000000000000000000000000000000000000000000000000000815260040180806020018281038252600d8152602001807f56697065723a204c4f434b45440000000000000000000000000000000000000081525060200191505060405180910390fd5b6000600c81905550600080611bf0611289565b50915091506000600660009054906101000a900473ffffffffffffffffffffffffffffffffffffffff1690506000600760009054906101000a900473ffffffffffffffffffffffffffffffffffffffff16905060008273ffffffffffffffffffffffffffffffffffffffff166370a08231306040518263ffffffff1660e01b8152600401808273ffffffffffffffffffffffffffffffffffffffff1673ffffffffffffffffffffffffffffffffffffffff16815260200191505060206040518083038186803b158015611cc257600080fd5b505afa158015611cd6573d6000803e3d6000fd5b505050506040513d6020811015611cec57600080fd5b8101908080519060200190929190505050905060008273ffffffffffffffffffffffffffffffffffffffff166370a08231306040518263ffffffff1660e01b8152600401808273ffffffffffffffffffffffffffffffffffffffff1673ffffffffffffffffffffffffffffffffffffffff16815260200191505060206040518083038186803b158015611d7e57600080fd5b505afa158015611d92573d6000803e3d6000fd5b505050506040513d6020811015611da857600080fd5b810190808051906020019092919050505090506000600160003073ffffffffffffffffffffffffffffffffffffffff1673ffffffffffffffffffffffffffffffffffffffff1681526020019081526020016000205490506000611e0b888861340e565b905060008054905080611e278685612d0290919063ffffffff16565b81611e2e57fe5b049a5080611e458585612d0290919063ffffffff16565b81611e4c57fe5b04995060008b118015611e5f575060008a115b611eb4576040517f08c379a0000000000000000000000000000000000000000000000000000000008152600401808060200182810382526024815260200180613a186024913960400191505060405180910390fd5b611ebe3084613784565b611ec9878d8d612ab5565b611ed4868d8c612ab5565b8673ffffffffffffffffffffffffffffffffffffffff166370a08231306040518263ffffffff1660e01b8152600401808273ffffffffffffffffffffffffffffffffffffffff1673ffffffffffffffffffffffffffffffffffffffff16815260200191505060206040518083038186803b158015611f5157600080fd5b505afa158015611f65573d6000803e3d6000fd5b505050506040513d6020811015611f7b57600080fd5b810190808051906020019092919050505094508573ffffffffffffffffffffffffffffffffffffffff166370a08231306040518263ffffffff1660e01b8152600401808273ffffffffffffffffffffffffffffffffffffffff1673ffffffffffffffffffffffffffffffffffffffff16815260200191505060206040518083038186803b15801561200b57600080fd5b505afa15801561201f573d6000803e3d6000fd5b505050506040513d602081101561203557600080fd5b8101908080519060200190929190505050935061205485858b8b612e11565b81156120cc576120c56008600e9054906101000a90046dffffffffffffffffffffffffffff166dffffffffffffffffffffffffffff16600860009054906101000a90046dffffffffffffffffffffffffffff166dffffffffffffffffffffffffffff16612d0290919063ffffffff16565b600b819055505b8b73ffffffffffffffffffffffffffffffffffffffff163373ffffffffffffffffffffffffffffffffffffffff167fdccd412f0b1252819cb1fd330b93224ca42612892bb3f4f789976e6d819364968d8d604051808381526020018281526020019250505060405180910390a35050505050505050506001600c81905550915091565b6040518060400160405280600881526020017f56697065722d4c5000000000000000000000000000000000000000000000000081525081565b600061219533848461327a565b6001905092915050565b6103e881565b6001600c541461221d576040517f08c379a000000000000000000000000000000000000000000000000000000000815260040180806020018281038252600d8152602001807f56697065723a204c4f434b45440000000000000000000000000000000000000081525060200191505060405180910390fd5b6000600c819055506000600660009054906101000a900473ffffffffffffffffffffffffffffffffffffffff1690506000600760009054906101000a900473ffffffffffffffffffffffffffffffffffffffff169050612373828461236e600860009054906101000a90046dffffffffffffffffffffffffffff166dffffffffffffffffffffffffffff168673ffffffffffffffffffffffffffffffffffffffff166370a08231306040518263ffffffff1660e01b8152600401808273ffffffffffffffffffffffffffffffffffffffff1673ffffffffffffffffffffffffffffffffffffffff16815260200191505060206040518083038186803b15801561232557600080fd5b505afa158015612339573d6000803e3d6000fd5b505050506040513d602081101561234f57600080fd5b8101908080519060200190929190505050612d8890919063ffffffff16565b612ab5565b612473818461246e6008600e9054906101000a90046dffffffffffffffffffffffffffff166dffffffffffffffffffffffffffff168573ffffffffffffffffffffffffffffffffffffffff166370a08231306040518263ffffffff1660e01b8152600401808273ffffffffffffffffffffffffffffffffffffffff1673ffffffffffffffffffffffffffffffffffffffff16815260200191505060206040518083038186803b15801561242557600080fd5b505afa158015612439573d6000803e3d6000fd5b505050506040513d602081101561244f57600080fd5b8101908080519060200190929190505050612d8890919063ffffffff16565b612ab5565b50506001600c8190555050565b600560009054906101000a900473ffffffffffffffffffffffffffffffffffffffff1681565b600760009054906101000a900473ffffffffffffffffffffffffffffffffffffffff1681565b42841015612542576040517f08c379a000000000000000000000000000000000000000000000000000000000815260040180806020018281038252600e8152602001807f56697065723a204558504952454400000000000000000000000000000000000081525060200191505060405180910390fd5b60006003547f6e71edae12b1b97f4d1f60370fef10105fa2faae0126114a169c64845d6126c960001b898989600460008e73ffffffffffffffffffffffffffffffffffffffff1673ffffffffffffffffffffffffffffffffffffffff1681526020019081526020016000206000815480929190600101919050558a604051602001808781526020018673ffffffffffffffffffffffffffffffffffffffff1673ffffffffffffffffffffffffffffffffffffffff1681526020018573ffffffffffffffffffffffffffffffffffffffff1673ffffffffffffffffffffffffffffffffffffffff16815260200184815260200183815260200182815260200196505050505050506040516020818303038152906040528051906020012060405160200180807f190100000000000000000000000000000000000000000000000000000000000081525060020183815260200182815260200192505050604051602081830303815290604052805190602001209050600060018286868660405160008152602001604052604051808581526020018460ff1660ff1681526020018381526020018281526020019450505050506020604051602081039080840390855afa158015612714573d6000803e3d6000fd5b505050602060405103519050600073ffffffffffffffffffffffffffffffffffffffff168173ffffffffffffffffffffffffffffffffffffffff161415801561278857508873ffffffffffffffffffffffffffffffffffffffff168173ffffffffffffffffffffffffffffffffffffffff16145b6127fa576040517f08c379a00000000000000000000000000000000000000000000000000000000081526004018080602001828103825260188152602001807f56697065723a20494e56414c49445f5349474e4154555245000000000000000081525060200191505060405180910390fd5b61280589898961318f565b505050505050505050565b6002602052816000526040600020602052806000526040600020600091509150505481565b6001600c54146128ad576040517f08c379a000000000000000000000000000000000000000000000000000000000815260040180806020018281038252600d8152602001807f56697065723a204c4f434b45440000000000000000000000000000000000000081525060200191505060405180910390fd5b6000600c81905550612aab600660009054906101000a900473ffffffffffffffffffffffffffffffffffffffff1673ffffffffffffffffffffffffffffffffffffffff166370a08231306040518263ffffffff1660e01b8152600401808273ffffffffffffffffffffffffffffffffffffffff1673ffffffffffffffffffffffffffffffffffffffff16815260200191505060206040518083038186803b15801561295757600080fd5b505afa15801561296b573d6000803e3d6000fd5b505050506040513d602081101561298157600080fd5b8101908080519060200190929190505050600760009054906101000a900473ffffffffffffffffffffffffffffffffffffffff1673ffffffffffffffffffffffffffffffffffffffff166370a08231306040518263ffffffff1660e01b8152600401808273ffffffffffffffffffffffffffffffffffffffff1673ffffffffffffffffffffffffffffffffffffffff16815260200191505060206040518083038186803b158015612a3157600080fd5b505afa158015612a45573d6000803e3d6000fd5b505050506040513d6020811015612a5b57600080fd5b8101908080519060200190929190505050600860009054906101000a90046dffffffffffffffffffffffffffff166008600e9054906101000a90046dffffffffffffffffffffffffffff16612e11565b6001600c81905550565b600060608473ffffffffffffffffffffffffffffffffffffffff166040518060400160405280601981526020017f7472616e7366657228616464726573732c75696e743235362900000000000000815250805190602001208585604051602401808373ffffffffffffffffffffffffffffffffffffffff1673ffffffffffffffffffffffffffffffffffffffff16815260200182815260200192505050604051602081830303815290604052907bffffffffffffffffffffffffffffffffffffffffffffffffffffffff19166020820180517bffffffffffffffffffffffffffffffffffffffffffffffffffffffff83818316178352505050506040518082805190602001908083835b60208310612be25780518252602082019150602081019050602083039250612bbf565b6001836020036101000a0380198251168184511680821785525050505050509050019150506000604051808303816000865af19150503d8060008114612c44576040519150601f19603f3d011682016040523d82523d6000602084013e612c49565b606091505b5091509150818015612c895750600081511480612c885750808060200190516020811015612c7657600080fd5b81019080805190602001909291905050505b5b612cfb576040517f08c379a00000000000000000000000000000000000000000000000000000000081526004018080602001828103825260168152602001807f56697065723a205452414e534645525f4641494c45440000000000000000000081525060200191505060405180910390fd5b5050505050565b600080831415612d155760009050612d82565b6000828402905082848281612d2657fe5b0414612d7d576040517f08c379a00000000000000000000000000000000000000000000000000000000081526004018080602001828103825260218152602001806139f76021913960400191505060405180910390fd5b809150505b92915050565b600082821115612e00576040517f08c379a000000000000000000000000000000000000000000000000000000000815260040180806020018281038252601e8152602001807f536166654d6174683a207375627472616374696f6e206f766572666c6f77000081525060200191505060405180910390fd5b600082840390508091505092915050565b7fffffffffffffffffffffffffffffffffffffffffffffffffffffffffffffffff6dffffffffffffffffffffffffffff168411158015612e8157507fffffffffffffffffffffffffffffffffffffffffffffffffffffffffffffffff6dffffffffffffffffffffffffffff168311155b612ef3576040517f08c379a000000000000000000000000000000000000000000000000000000000815260040180806020018281038252600f8152602001807f56697065723a204f564552464c4f57000000000000000000000000000000000081525060200191505060405180910390fd5b60006401000000004281612f0357fe5b06905060006008601c9054906101000a900463ffffffff168203905060008163ffffffff16118015612f4657506000846dffffffffffffffffffffffffffff1614155b8015612f6357506000836dffffffffffffffffffffffffffff1614155b15613045578063ffffffff16612fa885612f7c8661389e565b7bffffffffffffffffffffffffffffffffffffffffffffffffffffffff166138c990919063ffffffff16565b7bffffffffffffffffffffffffffffffffffffffffffffffffffffffff16026009600082825401925050819055508063ffffffff1661301684612fea8761389e565b7bffffffffffffffffffffffffffffffffffffffffffffffffffffffff166138c990919063ffffffff16565b7bffffffffffffffffffffffffffffffffffffffffffffffffffffffff1602600a600082825401925050819055505b85600860006101000a8154816dffffffffffffffffffffffffffff02191690836dffffffffffffffffffffffffffff160217905550846008600e6101000a8154816dffffffffffffffffffffffffffff02191690836dffffffffffffffffffffffffffff160217905550816008601c6101000a81548163ffffffff021916908363ffffffff1602179055507f1c411e9a96e071241c2f21f7726b17ae89e3cab4c78be50e062b03a9fffbbad1600860009054906101000a90046dffffffffffffffffffffffffffff166008600e9054906101000a90046dffffffffffffffffffffffffffff1660405180836dffffffffffffffffffffffffffff166dffffffffffffffffffffffffffff168152602001826dffffffffffffffffffffffffffff166dffffffffffffffffffffffffffff1681526020019250505060405180910390a1505050505050565b80600260008573ffffffffffffffffffffffffffffffffffffffff1673ffffffffffffffffffffffffffffffffffffffff16815260200190815260200160002060008473ffffffffffffffffffffffffffffffffffffffff1673ffffffffffffffffffffffffffffffffffffffff168152602001908152602001600020819055508173ffffffffffffffffffffffffffffffffffffffff168373ffffffffffffffffffffffffffffffffffffffff167f8c5be1e5ebec7d5bd14f71427d1e84f3dd0314c0f7b2291e5b200ac8c7c3b925836040518082815260200191505060405180910390a3505050565b6132cc81600160008673ffffffffffffffffffffffffffffffffffffffff1673ffffffffffffffffffffffffffffffffffffffff16815260200190815260200160002054612d8890919063ffffffff16565b600160008573ffffffffffffffffffffffffffffffffffffffff1673ffffffffffffffffffffffffffffffffffffffff1681526020019081526020016000208190555061336181600160008573ffffffffffffffffffffffffffffffffffffffff1673ffffffffffffffffffffffffffffffffffffffff1681526020019081526020016000205461392990919063ffffffff16565b600160008473ffffffffffffffffffffffffffffffffffffffff1673ffffffffffffffffffffffffffffffffffffffff168152602001908152602001600020819055508173ffffffffffffffffffffffffffffffffffffffff168373ffffffffffffffffffffffffffffffffffffffff167fddf252ad1be2c89b69c2b068fc378daa952ba7f163c4a11628f55a4df523b3ef836040518082815260200191505060405180910390a3505050565b600080600560009054906101000a900473ffffffffffffffffffffffffffffffffffffffff1673ffffffffffffffffffffffffffffffffffffffff1663017e7e586040518163ffffffff1660e01b815260040160206040518083038186803b15801561347957600080fd5b505afa15801561348d573d6000803e3d6000fd5b505050506040513d60208110156134a357600080fd5b81019080805190602001909291905050509050600073ffffffffffffffffffffffffffffffffffffffff168173ffffffffffffffffffffffffffffffffffffffff16141591506000600b54905082156135d557600081146135d057600061353b613536866dffffffffffffffffffffffffffff16886dffffffffffffffffffffffffffff16612d0290919063ffffffff16565b6135ef565b90506000613548836135ef565b9050808211156135cd57600061357b61356a8385612d8890919063ffffffff16565b600054612d0290919063ffffffff16565b905060006135a583613597600387612d0290919063ffffffff16565b61392990919063ffffffff16565b905060008183816135b257fe5b04905060008111156135c9576135c88782613651565b5b5050505b50505b6135e7565b600081146135e6576000600b819055505b5b505092915050565b6000600382111561363e57819050600060016002848161360b57fe5b040190505b818110156136385780915060028182858161362757fe5b04018161363057fe5b049050613610565b5061364c565b6000821461364b57600190505b5b919050565b6136668160005461392990919063ffffffff16565b6000819055506136be81600160008573ffffffffffffffffffffffffffffffffffffffff1673ffffffffffffffffffffffffffffffffffffffff1681526020019081526020016000205461392990919063ffffffff16565b600160008473ffffffffffffffffffffffffffffffffffffffff1673ffffffffffffffffffffffffffffffffffffffff168152602001908152602001600020819055508173ffffffffffffffffffffffffffffffffffffffff16600073ffffffffffffffffffffffffffffffffffffffff167fddf252ad1be2c89b69c2b068fc378daa952ba7f163c4a11628f55a4df523b3ef836040518082815260200191505060405180910390a35050565b600081831061377a578161377c565b825b905092915050565b6137d681600160008573ffffffffffffffffffffffffffffffffffffffff1673ffffffffffffffffffffffffffffffffffffffff16815260200190815260200160002054612d8890919063ffffffff16565b600160008473ffffffffffffffffffffffffffffffffffffffff1673ffffffffffffffffffffffffffffffffffffffff1681526020019081526020016000208190555061382e81600054612d8890919063ffffffff16565b600081905550600073ffffffffffffffffffffffffffffffffffffffff168273ffffffffffffffffffffffffffffffffffffffff167fddf252ad1be2c89b69c2b068fc378daa952ba7f163c4a11628f55a4df523b3ef836040518082815260200191505060405180910390a35050565b60006e010000000000000000000000000000826dffffffffffffffffffffffffffff16029050919050565b6000816dffffffffffffffffffffffffffff167bffffffffffffffffffffffffffffffffffffffffffffffffffffffff16837bffffffffffffffffffffffffffffffffffffffffffffffffffffffff168161392057fe5b04905092915050565b6000808284019050838110156139a7576040517f08c379a000000000000000000000000000000000000000000000000000000000815260040180806020018281038252601b8152602001807f536166654d6174683a206164646974696f6e206f766572666c6f77000000000081525060200191505060405180910390fd5b809150509291505056fe56697065723a20494e53554646494349454e545f4f55545055545f414d4f554e5456697065723a20494e53554646494349454e545f4c49515549444954595f4d494e544544536166654d6174683a206d756c7469706c69636174696f6e206f766572666c6f7756697065723a20494e53554646494349454e545f4c49515549444954595f4255524e4544a265627a7a72315820973b9d4d868493731d803c5d24df45bc613829c143fc7ff1ebd61aaa7309605564736f6c63430005110032454950373132446f6d61696e28737472696e67206e616d652c737472696e672076657273696f6e2c75696e7432353620636861696e49642c6164647265737320766572696679696e67436f6e747261637429a265627a7a72315820cb7de3e16eed57f12569d122395ff780bc93f77f90adf047c8bada48e78b2c1864736f6c63430005110032",
  "source": "pragma solidity ^0.5.16;\n\nimport './interfaces/IViperFactory.sol';\nimport './ViperPair.sol';\n\ncontract ViperFactory is IViperFactory {\n    bytes32 public constant INIT_CODE_PAIR_HASH = keccak256(abi.encodePacked(type(ViperPair).creationCode));\n\n    address public feeTo;\n    address public feeToSetter;\n\n    mapping(address => mapping(address => address)) public getPair;\n    address[] public allPairs;\n\n    event PairCreated(address indexed token0, address indexed token1, address pair, uint);\n\n    constructor(address _feeToSetter) public {\n        feeToSetter = _feeToSetter;\n    }\n\n    function allPairsLength() external view returns (uint) {\n        return allPairs.length;\n    }\n\n    function createPair(address tokenA, address tokenB) external returns (address pair) {\n        require(tokenA != tokenB, 'Viper: IDENTICAL_ADDRESSES');\n        (address token0, address token1) = tokenA < tokenB ? (tokenA, tokenB) : (tokenB, tokenA);\n        require(token0 != address(0), 'Viper: ZERO_ADDRESS');\n        require(getPair[token0][token1] == address(0), 'Viper: PAIR_EXISTS'); // single check is sufficient\n        bytes memory bytecode = type(ViperPair).creationCode;\n        bytes32 salt = keccak256(abi.encodePacked(token0, token1));\n        assembly {\n            pair := create2(0, add(bytecode, 32), mload(bytecode), salt)\n        }\n        IViperPair(pair).initialize(token0, token1);\n        getPair[token0][token1] = pair;\n        getPair[token1][token0] = pair; // populate mapping in the reverse direction\n        allPairs.push(pair);\n        emit PairCreated(token0, token1, pair, allPairs.length);\n    }\n\n    function setFeeTo(address _feeTo) external {\n        require(msg.sender == feeToSetter, 'Viper: FORBIDDEN');\n        feeTo = _feeTo;\n    }\n\n    function setFeeToSetter(address _feeToSetter) external {\n        require(msg.sender == feeToSetter, 'Viper: FORBIDDEN');\n        feeToSetter = _feeToSetter;\n    }\n}",
  "sourcePath": "/Users/mingcai/Documents/GitHub/viperSwap1/contracts/ViperFactory.sol",
  "compiler": {
    "name": "solc",
    "version": "0.5.17+commit.d19bba13.Emscripten.clang"
  },
  "schemaVersion": "3.0.20",
  "updatedAt": "2021-12-06T09:30:47.314Z",
  "devdoc": {
    "methods": {}
  },
  "userdoc": {
    "methods": {}
  }
}